:020000040800F2
:1000000070B3012039030008C139000861380008C5
:10001000BD390008B50B00088F4A00080000000039
:10002000000000000000000000000000790200084D
:10003000F70E000800000000D5020008453F000848
:100040005D0300085D0300085D0300085D03000810
:100050005D0300085D0300085D0300085D03000800
:100060005D0300085D0300085D0300085D030008F0
:100070005D0300085D0300085D030008CD0D000866
:100080005D0300085D030008450A00085D030008E1
:100090005D0300085D0300085D0300085D030008C0
:1000A0005D0300085D0300085D0300085D030008B0
:1000B0006D3F00085D0300088D4000085D030008E7
:1000C0005D0300085D0300085D0300085D03000890
:1000D0005D0300085D0300085D0300085D03000880
:1000E0005D0300085D0300085D0300085D03000870
:1000F0005D0300085D0300085D0300085D03000860
:100100005D0300085D0300089D4000085D030008D2
:10011000714500085D0300085D030008AD4000085C
:10012000DD0D00085D0300085D0300085D030008A5
:100130005D0300085D0300085D0300085D0300081F
:100140005D0300085D0300085D0300085D0300080F
:100150005D0300085D0300085D0300085D030008FF
:100160005D0300085D0300085D0300085D030008EF
:100170005D0300085D0300085D0300080000000047
:100180005D0300085D03000800F002F800F064F869
:100190000AA090E8000C82448344AAF10107DA45E2
:1001A00001D100F059F8AFF2090EBAE80F0013F0D0
:1001B000010F18BFFB1A43F00103184774790000C0
:1001C000947900000A444FF0000C10F8013B13F042
:1001D000070408BF10F8014B1D1108BF10F8015BA0
:1001E000641E05D010F8016B641E01F8016BF9D193
:1001F00013F0080F1EBF10F8014BAD1C0C1B09D1EA
:100200006D1E58BF01F801CBFAD505E014F8016B5B
:1002100001F8016B6D1EF9D59142D6D370470000ED
:100220000023002400250026103A28BF78C1FBD8FF
:10023000520728BF30C148BF0B607047642900F0E7
:100240004F81732900F00A83002070471FB507F023
:1002500043FB1FBD10B510BD00F072FB1146FFF748
:10026000F5FF04F0FFFC00F090FB03B4FFF7F2FF92
:1002700003BC04F04AFC00002C4B19680868B0E885
:10028000F04F80F30988BFF36F8F4FF0000080F3C9
:10029000118870470000000008480068006880F37B
:1002A00008884FF0000080F3148862B661B6BFF38F
:1002B0004F8FBFF36F8F00DF00BF00BF08ED00E07E
:1002C000DFF80C00016841F470010160704700BF65
:1002D00088ED00E0EFF30980BFF36F8F134B1A68CE
:1002E0001EF0100F08BF20ED108A20E9F04F1060BB
:1002F00009B44FF0500080F31188BFF34F8FBFF364
:100300006F8F06F0EBFA4FF0000080F3118809BC04
:1003100019680868B0E8F04F1EF0100F08BFB0EC85
:10032000108A80F30988BFF36F8F7047F8000020B0
:10033000EFF30580704700000C48016841F470013C
:1003400001600B4880470B480047FEE7FEE7FEE7E9
:10035000FEE7FEE7FEE7FEE7FEE7FEE7FEE700005A
:1003600005480649044A064B7047000088ED00E046
:10037000593F00088901000870AF012070B30120C7
:1003800070AF0120704753EA020C00F069802DE93C
:10039000F04B4FF00006002B1FBFB3FA83F503FAB2
:1003A00005F424FA05F65E4012BF1643B2FA82F550
:1003B00002FA05F4C5F120051EBF22FA05FC44EA45
:1003C0000C04203556EA044C4FEA144418BF641C50
:1003D0004FF000084FF00009904271EB030C39D345
:1003E000002919BFB1FA81F701FA07F6B0FA80F7D0
:1003F00000FA07F6C7F120071EBF20FA07FC46EAFD
:100400000C062037B6FBF4FCA7EB0507103F07F0FE
:100410001F0BCBF120060CFA0BFB2CFA06F644BF9F
:10042000B3460026202FA4BF5E464FF0000B5BEAC8
:10043000060C08BF4FF0010B19EB0B09ABFB027C5C
:1004400048EB0608C01B06FB02CC0BFB03CC71EB90
:100450000C01C1E70B46024641464846BDE8F08B19
:1004600013B54FF000004FF00001AFF30080BDE87E
:100470001C4070470FB4044910B503AA029800F05D
:10048000F1F910BC5DF814FB4400002070B50C4677
:100490000546012A05D02878800600D5EA690023A0
:1004A00002E0012305E05B1C934202D2E05C0028DD
:1004B000F9D1A869E618C01AA861286A1844286208
:1004C0002846AFF3008004E0D5E9012114F8010BC0
:1004D0009047B442F8D32846AFF3008070BD0000C7
:1004E0002DE9F0410646002410687529314616A50D
:1004F00010D0AFF30080002802DA404213A507E0D5
:1005000031688A0701D512A502E0490704D511A573
:10051000012401E0AFF3008000210A2206F1240744
:1005200009E0B0FBF2FCB0FBF2F302FB1C00303040
:1005300078541846491C0028F3D123462A463046F1
:10054000BDE8F04100F007B9000000002D000000F8
:100550002B000000200000002DE9F0474FF0000ABA
:1005600089460446C0F820A02046E1688847002854
:1005700076D0252806D0D4E901219047206A401C76
:100580002062F1E7E168204600258847C4F81CA0F6
:1005900006460027C4F818A02A2E09D0304604F0D9
:1005A000ADFA38B304EB8708303EC8F8186019E09C
:1005B00059F8041B204604EB87029161E1688847E3
:1005C000012F064618D1E069002820DA25F0200521
:1005D0001DE0D8F8180000EB800006EB4000303832
:1005E000C8F818002046E1688847064604F086FAF5
:1005F0000028EED1012F0AD02E2E08D12046E16826
:1006000088477F1C0646022F45F02005C4DBA06901
:10061000002803DA404245F00105A061E80701D057
:1006200025F01005B6B1A6F14100192802D82036F0
:1006300045F400654A463146204625604D46FFF7A1
:10064000FDFD58B1012806D0ED1D25F0070000F191
:10065000080989E704E005F1040985E730468AE7DF
:10066000206ABDE8F087032A40F2308010F0030CC6
:1006700000F0158011F8013BBCF1020F624498BFF5
:1006800011F801CB00F8013B38BF11F8013BA2F192
:10069000040298BF00F801CB38BF00F8013B11F00D
:1006A000030300F0F180083AC0F0088051F8043BE1
:1006B000083A51F804CBA0E80810F5E7121D5CBF1A
:1006C00051F8043B40F8043BAFF30080D20724BF4D
:1006D00011F8013B11F801CB48BF11F8012B24BFE1
:1006E00000F8013B00F801CB48BF00F8012B704730
:1006F00002F0FF0343EA032242EA024200F0F8B8A4
:100700004FF0000200B5134694469646203922BFAA
:10071000A0E80C50A0E80C50B1F12001BFF4F7AFF5
:10072000090728BFA0E80C5048BF0CC05DF804EBD7
:10073000890028BF40F8042B08BF704748BF20F845
:10074000022B11F0804F18BF00F8012B7047704743
:100750007047704770472DE9F0470D46994692461D
:10076000044600F124080168880604D5E06921F0F8
:100770001001216000E00120A84201DD471B00E0DC
:100780000027A1697A1902EB0900081AA0612078F4
:10079000C00602D42046AFF30080002608E0D4E96A
:1007A00001211AF806009047206A401C761C20623E
:1007B0004E45F4DB2078C0060AD52046AFF3008012
:1007C00006E0D4E9012130209047206A401C2062D5
:1007D000381EA7F10107F4DC07E0D4E9012118F87D
:1007E00005009047206A401C2062281EA5F10105E3
:1007F000F3DC2046AFF300802078000602D502200B
:10080000BDE8F0870120FBE701694A1C0261087816
:10081000704700B58FB0CDE9013100210591054940
:100820007944CDE9031011466846FFF795FE0FB0F5
:1008300000BD0000E5FFFFFF10B5436913B1AFF342
:10084000008001E0FFF722FE012010BD127800F1C8
:1008500024010A7000224A700122EDE711684FF06E
:10086000FF32E9E7074B70B50D467B44FFF7D1FF38
:100870000446284600F05CF810B14FF0FF3070BD20
:10088000204670BDAB43000010B5203AC0F00B808D
:10089000B1E81850203AA0E81850B1E81850A0E884
:1008A0001850BFF4F5AF5FEA027C24BFB1E81850DE
:1008B000A0E8185044BF18C918C0BDE810405FEA4E
:1008C000827C24BF51F8043B40F8043B08BF7047CA
:1008D000D20728BF31F8023B48BF11F8012B28BFCF
:1008E00020F8023B48BF00F8012B70474FF0000290
:1008F0000429C0F0128010F0030C3FF403AFCCF1D8
:10090000040CBCF1020F18BF00F8012BA8BF20F89F
:10091000022BA1EB0C01FFF7F5BE5FEAC17C24BFFF
:1009200000F8012B00F8012B48BF00F8012B70479D
:10093000007B00F080007047004870470CAF01203A
:100940007546FFF7F9FFAE4605006946534620F0AD
:100950000700854618B020B5FFF702FDBDE820402E
:100960004FF000064FF000074FF000084FF0000B6B
:1009700021F00701AC46ACE8C009ACE8C009ACE81E
:10098000C009ACE8C0098D46704710B50446AFF306
:1009900000802046BDE81040FFF767BC70B50546F3
:1009A000AC6B206C00F0500050BB206C40F4007029
:1009B00020642068806800F04050E8B9207ED8B9F3
:1009C0002068C06A00F4700020B12068806800F4DC
:1009D000806088B92068406820F020002168486065
:1009E000206C20F480702064206C00F4805018B9D2
:1009F000206C40F001002064204600F099FC0BE0E0
:100A0000206C00F0100018B1204600F012FD03E049
:100A1000A06BC16C2846884770BD70B50546AC6BAD
:100A200040202064606C40F004006064204600F0C8
:100A300000FD70BD70B50446A56B284600F0F8FCBB
:100A400070BD000010B5024800F0F4FC10BD0000BD
:100A50009804002055494A6822F440324A604A68A6
:100A600043681A434A600268526822F4807203683D
:100A70005A6002685368026943EA022203685A60B6
:100A80000268526822F0407203685A600268526835
:100A900083681A4303685A600268926822F400620D
:100AA00003689A6002689268C3681A4303689A6090
:100AB0003F4B826A9A4218D00268926822F07062B4
:100AC00003689A6002689268836A1A4303689A60AE
:100AD0000268926822F0405203689A600268926845
:100AE000C36A1A4303689A600BE00268926822F0B6
:100AF000706203689A600268926822F0405203684C
:100B00009A600268926822F0020203689A600268A2
:100B10009368027E43EA420203689A602022125CD4
:100B2000A2B10268526842F4006203685A60026827
:100B3000526822F4604203685A6002685368426A4D
:100B4000521E43EA423203685A6005E00268526866
:100B500022F4006203685A600268D26A22F47002CA
:100B60000368DA620268D36A828B521E43EA025239
:100B70000368DA620268926822F4007203689A607D
:100B80000268936890F8302043EA422203689A6032
:100B90000268926822F4806203689A60026893682F
:100BA000426943EA822203689A6070470023014049
:100BB0000100000F00BFFEE710B52DED048B754856
:100BC00090ED000AB0EE409A734890ED000AF0EE06
:100BD000409A724890ED000A79EE400A90ED000AC2
:100BE0009FED6F1A01EE200A80ED000A6D4890ED2E
:100BF000000A79EEC00A90ED000A9FED691A01EE35
:100C0000200A80ED000A684890ED000A6348D0EDA4
:100C1000000A30EE600AB0EE408A644890ED000AA7
:100C20006048D0ED000A30EE600AF0EE408AB7EE80
:100C3000080A28EE000A5E4880ED000AB7EE080AAE
:100C400028EE800A5B4880ED000A9FED550A68EEA9
:100C5000000A594890ED000A9FED581A00EE810AEB
:100C600080ED000A90ED000ADFED550AB4EEE00ACF
:100C7000F1EE10FA03DD9FED520A80ED000A4E48B6
:100C800090ED000ADFED4F0AB4EEE00AF1EE10FA43
:100C900003D29FED4C0A80ED000A474890ED000A10
:100CA000F7EE080A00EE880A414880ED000A90ED50
:100CB000000ADFED430AB4EEE00AF1EE10FA03DDBC
:100CC0009FED3F0A80ED000A394890ED000ADFED04
:100CD0003D0AB4EEE00AF1EE10FA03D29FED390AB4
:100CE00080ED000A9FED2E0A68EE800A364890EDEE
:100CF000000A9FED321A00EE810A80ED000A90EDA5
:100D0000000ADFED2F0AB4EEE00AF1EE10FA03DD7F
:100D10009FED2B0A80ED000A2B4890ED000ADFEDD5
:100D2000290AB4EEE00AF1EE10FA03D29FED250A8B
:100D300080ED000A244890ED000AF7EE080A00EE64
:100D4000A80A1C4880ED000A90ED000ADFED1C0A9D
:100D5000B4EEE00AF1EE10FA03DD9FED190A80ED22
:100D6000000A144890ED000ADFED160AB4EEE00A1E
:100D7000F1EE10FA03D29FED130A80ED000A0D4840
:100D8000D0ED000A0A4890ED000A03F075FBBDECB7
:100D9000048B10BDA0000020A4000020C40000208F
:100DA000CDCCCC3DC800002074000020780000208D
:100DB000CC000020D0000020BC0000206F12833A3D
:100DC0003333733F333373BFC000002010B5024884
:100DD00000F05CFD10BD00000402002010B50248C8
:100DE00000F054FD10BD0000E0040020014608782A
:100DF00010381823B0FBF3F20848805CC865032A5A
:100E000005D908686FF30900001D886503E00868CC
:100E10006FF309008865886D704700000479000849
:100E2000014600208A6A8B69CBB932B1012A0DD004
:100E3000022A03D0032A10D10EE000BFCB6A03F0D0
:100E40008073B3F1807F00D1012007E0CB6AB3F15A
:100E5000C07F00D1012001E000E000BF34E08B69D9
:100E6000B3F5005F1AD132B1012A07D0022A03D0AC
:100E7000032A11D10AE000BF01200EE0CB6A03F083
:100E80008073B3F1807F00D1012006E0CB6AB3F11B
:100E9000C07F00D1012000E000BF15E032B1012A7F
:100EA00005D0022A04D0032A0CD103E000BF00BF02
:100EB000012008E0CB6A03F08073B3F1807F00D19A
:100EC000012000E000BF00BF704730B5046824680F
:100ED00024F4802405682C60046863608468402CD6
:100EE00004D10468A2600468E16003E00468A160C2
:100EF0000468E26030BD704708B500BF0020009074
:100F00001548006840F4001013490860084600685E
:100F100000F40010009000BF00BF104810490860A6
:100F20004FF00060486040210D4881600021C160A1
:100F30004FF480610161002141618161C161016201
:100F4000416200F0C3FD002205210F2000F0F3FFF5
:100F50000F2000F0E0FF08BD303802407060024012
:100F60000402002000B58BB000BF0020019029488A
:100F7000006840F00100274908600846006800F05A
:100F80000100019000BF00BF08062349086000204F
:100F90004860002120488160491EC1600021016134
:100FA000032002900220039001200490002005906D
:100FB0000D20069000200790012008900020099045
:100FC0000D200A90002014490968486202A91248BD
:100FD00001F026FD6FF001000F49096808610E4815
:100FE0000068006840F004000B49096808600A487E
:100FF0000068C06840F0010007490968C860002225
:1010000011461C2000F097FF1C2000F084FF0BB05D
:1010100000BD0000403802405004002070B590B080
:101020001C480068C21700250121A0FB053602FB01
:10103000056200FB012018490968496A591868418E
:10104000164A11605060104601684068CDE90E10E4
:10105000AA208DF8200001208DF8210020208DF895
:10106000220008208DF833000E98CDF823000F9849
:10107000CDF8270055208DF83500694608A802F004
:1010800018FD0446642322466946054802F02EFBFB
:1010900010B070BD6800002050040020080000203F
:1010A0006402002070B50446B3F5804F13D1D1E936
:1010B000000540EA05108D6840EA05208D69284347
:1010C0008D8940EA054054F82250064E35402843A9
:1010D00044F8220003E06FF0704044F82200002042
:1010E00070BD00000000F0CF70B50246086852F8ED
:1010F000200020F001000E6842F8260088680828C9
:1011000001D1402300E00023486818438E68304333
:10111000CE6830430E6930434E693043CE69304368
:101120000E6A30434E6A30438E6A3043CE6A304393
:101130000E6B40EA060488690443C86B0443074DFC
:1011400045F4806545F4E025086852F82000A8437E
:1011500020430E6842F82600002070BD7FFB080087
:1011600010B50346D1E9000440EA04108C6840EA57
:1011700004208C8940EA0444088A401E44EA005452
:10118000087D801E44EA00608C692043541C53F89B
:10119000244004F040442043541C43F82400002021
:1011A00010BD704738B502460020009000BF92F88D
:1011B0003C00012801D1022038BD012082F83C000A
:1011C00000BF0868092816D91068C0680C780A3C66
:1011D00004EB44050724AC40A0431468E0600C789D
:1011E0000A3C04EB44048868A0401468E468204387
:1011F0001468E06013E0106800690C7804EB4405A3
:101200000724AC40A043146820610C7804EB44042C
:101210008868A040146824692043146820614868E5
:10122000072817D21068406B0C79641E04EB840504
:101230001F24AC40A04314686063088880B20C7916
:10124000641E04EB8404A0401468646B204314689B
:10125000606331E048680D2817D21068006B0C7984
:10126000E41F04EB84051F24AC40A04314682063F2
:10127000088880B20C79E41F04EB8404A040146851
:10128000246B20431468206316E01068C06A0C7950
:101290000D3C04EB84051F24AC40A0431468E062BD
:1012A000088880B20C790D3C04EB8404A0401468DB
:1012B000E46A20431468E062194B1A4C1068A0429B
:1012C00006D10868122803D1586840F4800058609D
:1012D000144C1068A0421CD10868102802D008687D
:1012E000112816D1586840F400005860086810288A
:1012F0000FD10D4800680D4CB0FBF4F000EB8000FE
:101300004000009002E00098401E009000980028E5
:10131000F9D100BF002082F83C0000BF00BF4BE7BE
:1013200000230140002001400000002040420F0047
:10133000344A0168914263D13349498800EE101A5A
:101340003149098800EE901AF8EE403A9FED2F4A95
:1013500063EE843A9FED2E4AC3EE844AB0EE641ADF
:10136000F8EE603A9FED294A63EE843A9FED284AF1
:10137000C3EE844AF0EE641ADFED263A71EE633A6A
:10138000F1EE633AB6EE004AC3EE844AB0EE642A48
:10139000DFED203A71EEE33AB6EE004AC3EE844A3E
:1013A000F0EE642ADFED1C3AB0EE633A1B49D1ED52
:1013B000003A32EE634AD1ED003ADFED174A44EECF
:1013C000843AC1ED003A1649D1ED003A32EEE34AD3
:1013D000D1ED003ADFED104A44EE843AC1ED003A17
:1013E0000E49D1ED003A0F49C1ED003A0C49D1ED5B
:1013F000003A0D49C1ED003A01210C4A117000BFBD
:1014000070470000002001409C000020333353400F
:1014100000F07F453333D33F9A99993EB0000020C6
:10142000B4000020A0000020A4000020AC00002098
:10143000704770472DE9F0410446002500262068DA
:1014400007682068D0F8048007F0020508F020063D
:1014500095B38EB3206C00F0100018B9206C40F4E6
:10146000007020642068806800F04050E8B9207E59
:10147000D8B92068C06A00F4700020B12068806884
:1014800000F4806088B92068406820F0200021685E
:101490004860206C20F480702064206C00F4805040
:1014A00018B9206C40F0010020642046FFF740FF8F
:1014B0006FF012002168086007F0040508F080064C
:1014C000E5B3DEB3206C00F0100018B9206C40F4D6
:1014D000005020642068806800F4401038BB206809
:1014E000806B00F4401020B12068806800F48060B8
:1014F000E8B92068406800F48060C0B9206880685E
:1015000000F0405098B9207E88B92068406820F0EB
:10151000800021684860206C20F480502064206C9A
:1015200000F4807018B9206C40F00100206420465F
:10153000FFF737FE6FF00C002168086007F0010527
:1015400008F0400685B17EB12068006800F0010017
:1015500050B1206C40F480302064204600F050F8F8
:101560006FF001002168086007F0200508F0806630
:101570007DB176B1606C40F0020060646FF02000D5
:10158000216808602046FFF754FF6FF020002168B3
:101590000860BDE8F081000070B5044600250CB974
:1015A000012070BD1549A06A884200D000BF206CA0
:1015B00030B9204600F025F80020606484F83C0033
:1015C000206C00F0100088B9206C20F4885040F0A6
:1015D000020020642046FFF73DFA00206064206C82
:1015E00020F0020040F00100206400E0012500BF6F
:1015F000002084F83C0000BF2846D2E70100000F1D
:1016000070477047F8B504460D4616460020009016
:1016100000BF94F83C00012801D10220F8BD012050
:1016200084F83C0000BF2068806800F00100A0B989
:101630002068806840F00100216888605548006893
:101640005549B0FBF1F000EB4000009002E000983B
:10165000401E009000980028F9D12068806800F4AE
:101660008070B0F5807F05D12068806820F480709C
:10167000216888602068806800F0010000287ED022
:10168000206C40F20161884340F48070206420683F
:10169000406800F4806028B1206C20F4005040F4D1
:1016A00080502064206C00F48050B0F5805F04D13D
:1016B000606C20F00600606401E00020606400BF00
:1016C000002084F83C0000BF344F3548A16BC8634C
:1016D0003448A16B08643448A16BC8646FF02200E1
:1016E000216808602068406840F080602168486098
:1016F0002068806840F4807021688860226802F168
:101700004C0133462A46A06B00F056FA786800F088
:101710001F0018BB25492068884213D0244920683F
:10172000884204D1381D006800F01F0050B12149E3
:10173000206888422BD11948001D006800F01F0066
:10174000102824D22068806800F04050F8B9206842
:10175000806840F080402168886018E01349206864
:10176000884214D12068806800F0405078B9206821
:10177000806840F080402168886008E0FFE7206CC6
:1017800040F010002064606C40F0010060640020B4
:1017900044E700000000002040420F000023014009
:1017A0009D090008350A00081B0A000800200140B6
:1017B000002101400022014070B50446A56D00F0F3
:1017C00059FB064694F83500022808D08020606551
:1017D00000BF002084F8340000BF012070BD2068E5
:1017E000006820F01600216808602068406920F039
:1017F000800021684861206C08B9A06C28B120687D
:10180000006820F00800216808602068006820F067
:1018100001002168086010E000F02CFB801B052807
:101820000BD920206065032084F8350000BF00201C
:1018300084F8340000BF0320D0E72068006800F07F
:1018400001000028E8D194F85C103F208840A8608F
:10185000012084F8350000BF002084F8340000BF68
:1018600000BFBBE7014691F83500022803D0802075
:10187000486501207047052081F835000868006838
:1018800020F001000A6810600020F3E7F8B5044674
:10189000002000908C4800684FF41651B0FBF1F71F
:1018A000A56D2E6894F85C1008208840304098B1EF
:1018B0002068006800F0040070B12068006820F023
:1018C00004002168086094F85C1008208840A86033
:1018D000606D40F00100606594F85C100120884064
:1018E000304068B12068406900F0800040B194F851
:1018F0005C1001208840A860606D40F002006065C7
:1019000094F85C1004208840304068B1206800687A
:1019100000F0020040B194F85C1004208840A860F8
:10192000606D40F00400606594F85C101020884001
:10193000304078B32068006800F0080050B394F895
:101940005C1010208840A8602068006800F48020A7
:1019500080B12068006800F4002028B9206CC8B16C
:101960002046216C884715E0A06C98B12046A16CF8
:1019700088470FE02068006800F4807028B920686C
:10198000006820F0080021680860206C10B1204633
:10199000216C884794F85C10202088403040002853
:1019A00065D02068006800F0100000285FD094F82F
:1019B0005C1020208840A86094F83500052828D1C4
:1019C0002068006820F016002168086020684069DF
:1019D00020F0800021684861206C08B9A06C28B113
:1019E0002068006820F008002168086094F85C1006
:1019F0003F208840A860012084F8350000BF002007
:101A000084F8340000BF206D10B12046216D884756
:101A1000F8BD2068006800F4802080B1206800686C
:101A200000F4002028B9606C10B12046616C884732
:101A30001DE0E06BD8B12046E16B884717E02068D5
:101A4000006800F4807068B92068006820F0100019
:101A500021680860012084F8350000BF002084F868
:101A6000340000BFE06B10B12046E16B8847606D29
:101A700038B3606D00F00100F0B1052084F8350046
:101A80002068006820F001002168086000BF00980D
:101A9000401C0090B84200D905E02068006800F0C2
:101AA00001000028F3D100BF012084F8350000BFF9
:101AB000002084F8340000BFE06C10B12046E16CD7
:101AC000884700BFA4E70000000000202DE9F04196
:101AD0000446002500F0CEF9074614B90120BDE800
:101AE000F081606A00B100BF022084F8350000BFB9
:101AF000002084F8340000BF2068006820F0010056
:101B0000216808600AE000F0B5F9C01B052805D976
:101B100020206065032084F83500E0E72068006835
:101B200000F001000028EED120680568214805403A
:101B3000D4E901010843E168084321690843616968
:101B40000843A1690843E1690843216A0843054342
:101B5000606A042803D1D4E90B01084305432068D7
:101B600005602068456925F00705606A0543606ADD
:101B700004280DD1A06A0543E06A48B12046FFF76A
:101B80004FF928B140206065012084F83500A6E7B0
:101B9000206845612046FFF729F9064694F85C1055
:101BA0003F208840B06000206065012084F8350047
:101BB000002094E73F8010F02DE9F04704460D46E1
:101BC00016461F464FF00008D4F8589000BF94F80E
:101BD0003400012802D10220BDE8F087012084F8FA
:101BE000340000BF94F83500012825D1022084F884
:101BF0003500002060653B46324629462046FFF707
:101C000064F994F85C103F208840C9F80800206807
:101C1000006840F0160021680860206C28B1206838
:101C2000006840F00800216808602068006840F003
:101C300001002168086006E000BF002084F834003D
:101C400000BF4FF002084046C6E7000070B50446EA
:101C500000F010F906462546681C10B104480078CB
:101C6000054400BF00F006F9801BA842FAD370BDFE
:101C700058000020F8B502460B460025002400203D
:101C80000021D6E0012606FA01F51E6806EA0504E1
:101C9000AC4274D11E7906F00306012E04D01E79E1
:101CA00006F00306022E13D190684F000326BE40B3
:101CB000B0434F00DE68BE4030439060506801265C
:101CC0008E40B0431E79C6F300168E4030435060FC
:101CD0001E7906F00306032E09D0D0684F000326B4
:101CE000BE40B0434F009E68BE403043D0601E7976
:101CF00006F00306022E13D1CF0802F1200656F893
:101D000027004E07F70E0F26BE40B0434F07FF0EC9
:101D10001E69BE403043CF0802F1200646F8270076
:101D200010684F000326BE40B0431E7906F003063C
:101D30004F00BE40304310605E6806F44036002E0F
:101D400076D000BF002600963C4E366846F48046AA
:101D50003A4F3E603E46366806F48046009600BF25
:101D600000BF374E8F0856F827008E07370F0F2613
:101D7000BE40B043334EB24202D1002624E057E0C9
:101D8000314EB24201D101261EE0304EB24201D1A5
:101D9000022619E02E4EB24201D1032614E02D4E48
:101DA000B24201D104260FE02B4EB24201D10526EA
:101DB0000AE02A4EB24201D1062605E0284EB24280
:101DC00001D1072600E008268F073F0FBE403043B1
:101DD0001B4E8F0846F82700224E3068A0435E68ED
:101DE00006F4801606B120431E4E3060361D306862
:101DF000A0435E6806F4001606B12043194E361D56
:101E00003060184E361F3068A0435E6806F4003616
:101E100006B12043134E361F3060361F3068A04392
:101E20005E6806F4803606B120430E4E083E3060F0
:101E3000491C1029FFF426AFF8BD000044380240C9
:101E4000083801400000024000040240000802403F
:101E5000000C024000100240001402400018024032
:101E6000001C0240083C014001480068000C70471B
:101E7000002004E001480068704700005000002086
:101E8000034800680349097808440149086070471D
:101E9000500000205800002010B50A48006840F4A7
:101EA0000070084908600846006840F480600860D7
:101EB000032000F07FF80F2000F006F800F02AF869
:101EC000002010BD003C024070B504460E4800786A
:101ED0004FF47A71B1FBF0F00C490968B1FBF0F5F1
:101EE000284600F09FFC08B1012070BD102C07D2DD
:101EF00000222146501E00F01EF80548046001E053
:101F00000120F2E70020F0E7580000200000002048
:101F100054000020704701460846002809DB00F005
:101F20001F0301229A4043099B0003F1E023C3F8F9
:101F3000002100BF70472DE9F05F80460D46164630
:101F4000002702F0BFFD074639462A46334601F016
:101F50000700C0F1070ABAF1040F02D94FF0040AD2
:101F600001E0C0F1070AD14600F1040ABAF1070FF7
:101F700002D24FF0000A01E0A0F1030AD4464FF06C
:101F8000010A0AFA09FAAAF1010A0AEA020A0AFA95
:101F90000CFA4FF0010B0BFA0CFBABF1010B0BEA47
:101FA000030B4AEA0B042146404602F093FDBDE8CC
:101FB000F09F000000BF00F00702064B19684FF6C3
:101FC000FF031940044B0B4343EA0221014B196004
:101FD00000BF70470CED00E00000FA0570B5044644
:101FE0000D460CB9012070BD5848006800F007008C
:101FF000A84209D255490D700846006800F0070054
:10200000A84201D00120EEE7207800F0020002286B
:102010001DD1207800F00400042805D14C48006848
:1020200040F4E0504A490860207800F00800082891
:1020300005D14748006840F460404549086044487D
:10204000006820F0F000A16808434149086020784A
:1020500000F00100A8B36068012807D13C480838A7
:102060000068C0F34040B8B90120BCE760680228AE
:1020700002D06068032807D1354808380068C0F3EB
:10208000406048B90120AEE7314808380068C0F325
:10209000400008B90120A6E72D48006820F00300A1
:1020A000616808432A490860FFF7E4FE064609E034
:1020B000FFF7E0FE801B41F28831884202D90320FD
:1020C00091E707E02248006800F00C006168B0EB7F
:1020D000810FEDD11D48006800F00700A84209D922
:1020E0001A490D700846006800F00700A84201D0A8
:1020F000012078E7207800F00400042807D1144874
:10210000006820F4E050E168084311490860207835
:1021100000F00800082808D10D48006820F460404D
:10212000216940EAC1000A49086000F03FF8084907
:102130000968C1F30311074A515CC84006490860A9
:1021400006480068FFF7C0FE00204CE7003C024054
:1021500008380240EC7800080000002054000020FD
:1021600001480068704700000000002000B5FFF73C
:10217000F7FF04490968C1F38221034A515CC84052
:1021800000BD000008380240FC78000800B5FFF7E9
:10219000E7FF04490968C1F34231034A515CC84072
:1021A00000BD000008380240FC7800082DE9F04727
:1021B000002400250026A1462548006800F00C00F8
:1021C00020B1042805D008283AD105E0DFF8849032
:1021D00039E0DFF8849036E01D48001F006800F009
:1021E0003F041B48001F006800F4800078B11A48C3
:1021F0001749091F0968C1F38811A0FB0170014646
:10220000224600233846FEF7BEF805460EE0114888
:102210000F49091F0968C1F38811A0FB017001462D
:10222000224600233846FEF7AEF805460848001F50
:102230000068C0F30140401C4600B5FBF6F902E01F
:10224000DFF8109000BF00BF4846BDE8F0870000EF
:10225000083802400024F40000127A00F8B5044661
:102260000CB90120F8BD207800F00100002874D0DE
:10227000F948006800F00C0004280DD0F64800680A
:1022800000F00C00082813D1F348001F006800F488
:102290008000B0F5800F0BD1EF4808380068C0F31C
:1022A0004040002859D06068002856D10120D9E765
:1022B00000BF6068B0F5803F08D1E7480838006883
:1022C00040F48030E449083908601EE06068B0F5E9
:1022D000A02F0DD1E0480838006840F48020DE4986
:1022E000083908600846006840F4803008600CE057
:1022F000D9480838006820F48030D7490839086088
:102300000846006820F48020086000BF606890B133
:10231000FFF7B0FD054606E0FFF7ACFD401B642863
:1023200001D903209EE7CC4808380068C0F340403C
:102330000028F1D011E0FFF79DFD054606E0FFF70C
:1023400099FD401B642801D903208BE7C248083857
:102350000068C0F340400028F1D1207800F002006E
:1023600002285FD1BC48006800F00C0058B1BA48A0
:10237000006800F00C0008281CD1B748001F006856
:1023800000F48000B0B9B44808380068C0F34000D9
:1023900020B1E068012801D0012063E7AE48083889
:1023A000006820F0F800216940EAC100AA49083914
:1023B000086037E0E06800B30120A8490860FFF733
:1023C00059FD054606E0FFF755FD401B022801D9DF
:1023D000032047E7A04808380068C0F34000002801
:1023E000F1D09D480838006820F0F800216940EAE3
:1023F000C10099490839086014E000209749086035
:10240000FFF738FD054606E0FFF734FD401B0228C4
:1024100001D9032026E7904808380068C0F340003F
:102420000028F1D1207800F0080008282CD160693C
:10243000A8B101208A490860FFF71CFD054606E0A7
:10244000FFF718FD401B022801D903200AE7824844
:102450006C300068C0F340000028F1D014E0002088
:102460007F490860FFF706FD054606E0FFF702FD1D
:10247000401B022801D90320F4E677486C3000683D
:10248000C0F340000028F1D1207800F004000428B7
:1024900070D1002770483830006800F0805090B943
:1024A00000BF002000906C483830006840F0805039
:1024B0006949383108600846006800F08050009093
:1024C00000BF00BF01276748006800F48070B0B902
:1024D0006448006840F4807062490860FFF7CAFCF5
:1024E000054606E0FFF7C6FC401B022801D9032081
:1024F000B8E65C48006800F480700028F2D000BFA5
:10250000A068012808D154486830006840F00100F4
:102510005149683108601DE0A06805280DD14E487A
:102520006830006840F004004B4968310860084694
:10253000006840F0010008600CE04748683000681F
:1025400020F001004449683108600846006820F026
:102550000400086000BFA068A8B1FFF78BFC054627
:1025600009E0FFF787FC401B41F28831884202D91D
:10257000032077E626E0384868300068C0F3400062
:102580000028EED013E0FFF775FC054608E0FFF7E2
:1025900071FC401B41F28831884201D9032061E679
:1025A0002D4868300068C0F340000028EFD1012FAB
:1025B00007D129483830006820F08050264938314A
:1025C000086000BFA069002845D02348006800F0DB
:1025D0000C0008285DD0A069022845D100201F49C1
:1025E0000866FFF747FC054606E0FFF743FC401B83
:1025F000022801D9032035E6174808380068C0F3DF
:1026000040600028F1D1D4E907010843616A40EA3B
:1026100081110122A06AC2EB500041EA00412C2046
:10262000005D41EA00600C49091F086001200B4968
:102630000866FFF71FFC054606E0FFF71BFC401B82
:10264000022801D903200DE6034808380068C0F3CA
:1026500040600028F1D049E00838024000004742BD
:10266000800E474200700040002021490866FFF7B5
:1026700001FC054606E0FFF7FDFB401B022801D9DF
:102680000320EFE51B480068C0F340600028F2D14A
:102690002CE0A069012800D1E4E51648001D066879
:1026A000A069012820D006F48001E06981421BD195
:1026B00006F03F01206A814216D147F6C0703040D3
:1026C000616AB0EB811F0FD106F440310122A06A8C
:1026D000C2EB5000B1EB004F06D106F070612C2028
:1026E000005DB1EB006F01D00120BBE50020B9E532
:1026F000000047420038024070B504460E461546B9
:102700000CB9012070BD94F8490028B9002084F864
:102710004800204600F020F804F108012068FEF788
:10272000E3FC3146A2682068FEF71AFD2946236BB8
:10273000D4E90102FEF7B6FCA168206850F8210038
:1027400040F00100A268216841F82200012084F8CD
:1027500049000020D6E7000010B586B0044600BF4F
:10276000002000902248006840F0010020490860E5
:102770000846006800F00100009000BF00BF00BFE5
:10278000002000901A480838006840F008001849F6
:10279000083908600846006800F00800009000BF93
:1027A00000BF00BF002000900846006840F0100005
:1027B00008600846006800F01000009000BF00BFED
:1027C0004CF203700190022002900120039002203D
:1027D00004900C20059001A90648FFF74BFA4FF62C
:1027E0008070019001A90448FFF744FA06B010BDBB
:1027F00038380240000C024000100240042808D182
:102800004FF0E021096941F004014FF0E02211612D
:1028100007E04FF0E021096921F004014FF0E022C8
:102820001161704770B504462546681EB0F1807F7F
:1028300001D301200FE0681E4FF0E02148610F2115
:102840004FF0FF3002F046F900204FF0E0218861A0
:1028500007200861002070BD7047704730B5024600
:102860000B4600BF92F83C00012801D1022030BD88
:10287000012082F83C0000BF022082F83D00106871
:1028800044681068816824F0700418680443106874
:102890004460184D1068A8421BD01068B0F1804FFA
:1028A00017D0154D1068A84213D0144D1068A842D7
:1028B0000FD0134D1068A8420BD0124D1068A842DB
:1028C00007D0114D1068A84203D0104D1068A842DF
:1028D00005D121F080015868014310688160012012
:1028E00082F83D0000BF002082F83C0000BF00BF1E
:1028F000BDE7000000000140000400400008004067
:10290000000C00400004014000400140001800405D
:1029100010B504460CB9012010BD94F83D0028B94B
:10292000002084F83C00204600F025F8022084F8BE
:102930003D00211D206801F0D1FB012084F84600F4
:1029400000BF84F83E0001213F2001554020015581
:102950004120015500BF00BF012084F84200432000
:102960000155442001554520015500BF012084F840
:102970003D000020D0E77047014691F83D00012856
:1029800001D001207047022081F83D000868C0682E
:1029900040F001000B68D8601A4B086898421BD0C1
:1029A0000868B0F1804F17D0174B0868984213D0D1
:1029B000164B086898420FD0154B086898420BD008
:1029C000144B0868984207D0134B0868984203D00C
:1029D000124B086898420CD10868806800F0070222
:1029E000062A0CD00868006840F001000B681860E7
:1029F00005E00868006840F001000B6818600020DE
:102A0000C0E7000000000140000400400008004052
:102A1000000C00400004014000400140001800404C
:102A20002DE9F04104460D4614B90120BDE8F081BE
:102A300094F83D0028B9002084F83C00204600F0BE
:102A400053F8022084F83D002068806844F20701B2
:102A5000884321688860211D206801F03FFB2068C1
:102A6000D0F80880206886692068076A286840EAEC
:102A7000080840F203308643A969A86840EA0120AB
:102A8000064340F60C4086434FF2F0008643E96966
:102A9000E86840EA0120064328690001296A40EA03
:102AA0000130064327F0220727F088076969686824
:102AB00040EA011007432068C0F80880206886615A
:102AC00020680762012084F8460084F83E00012156
:102AD0003F200155012084F8420043200155012088
:102AE00084F83D000020A1E710B586B004462068B8
:102AF000B0F1804F35D100BF002000901A48006827
:102B000040F00100184908600846006800F0010024
:102B1000009000BF00BF00BF002000900846006882
:102B200040F0020008600846006800F002000090D3
:102B300000BF00BF4FF4004001900220029001202E
:102B40000390059001A90948FFF794F80820019027
:102B50000220029001200390059001A90448FFF78C
:102B600089F806B010BD0000303802400000024075
:102B7000000402402DE9F04304460D4694F83E60FF
:102B80003F20075D94F84280432010F804906DB90F
:102B9000012E02D1B8F1010F02D00120BDE8F0836F
:102BA000022084F83E0084F8420025E0042D0CD178
:102BB000012F02D1B9F1010F01D00120EEE702216E
:102BC0003F2001554320015516E0012E07D1012F6A
:102BD00005D1B8F1010F02D1B9F1010F01D00120E7
:102BE000DCE7022084F83E0002213F20015502204C
:102BF00084F842004320015515B1042D0CD105E0A5
:102C000001220021206801F0D5FA10E00122042100
:102C1000206801F0CFFA0AE001220021206801F0CB
:102C2000C9FA01220421206801F0C4FA00BF00BFE4
:102C30002068006840F00100216808600020ADE7CE
:102C4000704710B5044620680069C0F34000D8B151
:102C50002068C068C0F34000B0B16FF00200216886
:102C60000861012020772068806900F0030018B116
:102C70002046FFF7E5FF05E0204600F0E5F8204696
:102C800000F020FA0020207720680069C0F380005F
:102C9000D8B12068C068C0F38000B0B16FF0040004
:102CA00021680861022020772068806900F4407064
:102CB00018B12046FFF7C4FF05E0204600F0C4F835
:102CC000204600F0FFF90020207720680069C0F35B
:102CD000C000D8B12068C068C0F3C000B0B16FF0C8
:102CE000080021680861042020772068C06900F08E
:102CF000030018B12046FFF7A3FF05E0204600F0CF
:102D0000A3F8204600F0DEF9002020772068006953
:102D1000C0F30010D8B12068C068C0F30010B0B193
:102D20006FF0100021680861082020772068C069D2
:102D300000F4407018B12046FFF782FF05E02046FE
:102D400000F082F8204600F0BDF9002020772068CE
:102D5000006900F0010058B12068C06800F001006F
:102D600030B16FF0010021680861204600F032FAAE
:102D700020680069C0F3C01058B12068C068C0F373
:102D8000C01030B16FF08000216808612046FFF765
:102D900063FD20680069C0F3801058B12068C068E6
:102DA000C0F3801030B16FF0400021680861204608
:102DB00000F082FA20680069C0F3401058B1206822
:102DC000C068C0F3401030B16FF020002168086186
:102DD0002046FFF742FD10BD2DE9F04104460E46A6
:102DE0001546002700BF94F83C00012802D10220BC
:102DF000BDE8F081012084F83C0000BF35B1042D0E
:102E000009D0082D0CD00C2D14D10EE031462068CD
:102E100001F0E2F910E03146206801F015FA0BE00C
:102E20003146206801F04EFA06E03146206801F094
:102E300085FA01E0012700BF00BF00BF002084F831
:102E40003C0000BF3846D3E77047000070B5044629
:102E50000D4615B994F83E000BE0042D02D13F2039
:102E6000005D06E0082D02D14020005D01E0412018
:102E7000005D012801D0012070BD1DB9022084F839
:102E80003E000EE0042D03D102213F20015508E051
:102E9000082D03D102214020015502E002214120EA
:102EA000015501222946206801F084F92349206850
:102EB000884203D022492068884201D1012000E0E5
:102EC000002028B12068406C40F40040216848642C
:102ED0001A49206888421BD02068B0F1804F17D073
:102EE00018492068884213D01749206888420FD0BB
:102EF0001649206888420BD011492068884207D0C3
:102F000013492068884203D01249206888420CD1B6
:102F10002068806800F00706062E0CD02068006844
:102F200040F001002168086005E02068006840F07A
:102F300001002168086000209EE7000000000140B9
:102F4000000401400004004000080040000C004064
:102F500000400140001800402DE9F04104460D46B4
:102F60001646002700BF94F83C00012802D1022039
:102F7000BDE8F081012084F83C0000BF36B1042E8A
:102F80001BD0082E31D00C2E5ED145E0294620689A
:102F900001F022F92068806940F00800216888610A
:102FA0002068806920F004002168886120688069B9
:102FB000296908432168886148E02946206801F0B2
:102FC00043F92068806940F40060216888612068C6
:102FD000806920F48060216888612068806929699F
:102FE00040EA01202168886130E02946206801F02C
:102FF00069F92068C06940F008002168C86120684C
:10300000C06920F004002168C8612068C06929698E
:1030100008432168C86119E02946206801F08EF94B
:103020002068C06940F400602168C8612068C069F8
:1030300020F480602168C8612068C069296940EA7D
:1030400001202168C86101E0012700BF00BF00BF67
:10305000002084F83C0000BF384689E710B50446DC
:103060000CB9012010BD94F83D0028B9002084F867
:103070003C00204600F025F8022084F83D00211D88
:10308000206801F02BF8012084F8460000BF84F886
:103090003E0001213F2001554020015541200155AE
:1030A00000BF00BF012084F84200432001554420A6
:1030B00001554520015500BF012084F83D00002046
:1030C000D0E770477047000070B504460D4615B94B
:1030D00094F83E000BE0042D02D13F20005D06E095
:1030E000082D02D14020005D01E04120005D012853
:1030F00001D0012070BD1DB9022084F83E000EE011
:10310000042D03D102213F20015508E0082D03D1F1
:1031100002214020015502E00221412001550122F7
:103120002946206801F046F823492068884203D0E8
:1031300022492068884201D1012000E0002028B106
:103140002068406C40F40040216848641A492068B7
:1031500088421BD02068B0F1804F17D018492068F2
:10316000884213D01749206888420FD0164920683A
:1031700088420BD011492068884207D01349206843
:10318000884203D01249206888420CD120688068A8
:1031900000F00706062E0CD02068006840F0010001
:1031A0002168086005E02068006840F0010021689F
:1031B000086000209EE7000000000140000401407C
:1031C0000004004000080040000C004000400140A6
:1031D0000018004010B504462B492068884225D1CC
:1031E0002A480078401CC0B22849087002280CDB2D
:1031F000002008702648007838B12648007820B1B1
:10320000002023490870FDF7D7FC23480078401CB4
:10321000C0B221490870142808DB002008701F483C
:1032200090ED000A00F05CFE00F008FD2068B0F1AF
:10323000804F11D11A480068006800F01000102873
:1032400005D118480068401E1649086004E015487A
:103250000068401C1349086013492068884212D155
:1032600012480068124908600E4800680021A0FB5F
:1032700001100B480068406A08180C4908604FF0BC
:1032800001000C49087010BD000C004065000020D2
:10329000AC00002014000020660000208C000020FC
:1032A000500400206800002000080040600000205A
:1032B0005C000020640000207047704770470000E9
:1032C0002DE9F84F0446206805682068C668206824
:1032D00047694FF00009CA4605F00F09B9F1000F20
:1032E0000AD105F0200038B106F0200020B12046B8
:1032F00001F0CFF9BDE8F88FB9F1000F72D007F0F7
:10330000010018B906F4907000286BD005F0010098
:1033100030B106F4807018B1206C40F001002064D8
:1033200005F0040030B107F0010018B1206C40F046
:103330000200206405F0020030B107F0010018B16E
:10334000206C40F00400206405F0080048B106F04D
:10335000200010B907F0010018B1206C40F00800FF
:103360002064206C70B305F0200028B106F0200026
:1033700010B1204601F08DF920684069C0F3801A31
:10338000206C00F0080010B9BAF1000F23D02046DD
:1033900001F04AF92068406900F04000402816D149
:1033A0002068406920F0400021684861A06B50B15E
:1033B0005648A16B0865A06BFEF754FA10B1A06BDC
:1033C000016D88470CE02046FFF778FF08E02046B3
:1033D000FFF774FF04E02046FFF770FF0020206431
:1033E00088E7FFE7206B012879D105F0100000285D
:1033F00075D006F01000002871D000BF00200090AA
:1034000020680068009020684068009000BF00BFFE
:103410002068406900F04000402839D1A06B006866
:1034200040681FFA80F8B8F1000F30D0A08D4045F9
:103430002DDDA4F82E80A06BC069B0F5807F1FD071
:103440002068C06820F480702168C86020684069E6
:1034500020F00100216848612068406920F04000A8
:1034600021684861202084F83E0000202063206805
:10347000C06820F010002168C860A06BFEF79CF9BE
:10348000A08DE28D801A81B22046FFF716FF31E74A
:10349000A08DE18D401A1FFA80F8E08DE8B1B8F1F7
:1034A000000F1AD02068C06820F490702168C860AE
:1034B0002068406920F0010021684861202084F8DC
:1034C0003E00002020632068C06820F010002168C2
:1034D000C86041462046FFF7F0FE0BE7FFE705F026
:1034E000800030B106F0800018B1204601F069FA82
:1034F00000E705F0400030B106F0400018B120466A
:1035000001F0ADF8F6E600BFF4E6000081450008E2
:1035100010B504460CB9012010BDA06900B100E04F
:1035200000BF94F83D0028B9002084F83C002046F4
:1035300000F028F8242084F83D002068C06820F4BA
:1035400000502168C860204601F002F92068006937
:1035500020F49040216808612068406920F02A002A
:10356000216848612068C06840F400502168C86044
:1035700000202064202084F83D0084F83E000020D4
:10358000CAE7000010B586B004463049206888427A
:103590005AD100BF00BF002000902D48006840F4C1
:1035A00000202B4908600846006800F400200090C5
:1035B00000BF00BF00BF00BF00BF00200090244834
:1035C0001038006840F004002149103908600846AE
:1035D000006800F00400009000BF00BF00BF00BF03
:1035E00000BF002000900846006840F0040008601A
:1035F0000846006800F00400009000BF00BF00BF54
:1036000008150190022002900120039002200490EE
:103610000820059001A90F48FEF72CFB4FF400602D
:1036200001900820059001A90A48FEF723FB00BF7E
:1036300009486063846300BF3420FEF76CFC0322FA
:1036400011463420FEF777FC06B010BD004C004058
:1036500040380240000802400402002070B50446D1
:103660000D46164694F83E00202816D105B10EB935
:10367000012070BD00BF94F83C00012801D1022058
:10368000F7E7012084F83C0000BF002020633246A9
:103690002946204601F072F9EBE70220E9E7000035
:1036A00010B504460C492068884214D10B490A78A9
:1036B0000B490888411C0A4B19800A490A541846CC
:1036C0000088402802DB00201946088001220349B7
:1036D0000548FFF7C3FF10BD004C00404800002024
:1036E0004A000020C4010020640200202DE9F84FA8
:1036F00004460E46174699464FF0000A94F83D00DE
:1037000020285AD106B117B90120BDE8F88F00BFB3
:1037100094F83C00012801D10220F6E7012084F84A
:103720003C0000BF00202064212084F83D00FEF70B
:10373000A1FB8246A784E784A068B0F5805F04D12E
:10374000206910B90025B04602E035464FF0000868
:1037500000BF002084F83C0000BF1BE0534600225D
:1037600080212046CDF8009001F05BF908B10320DC
:10377000CBE745B9B8F80000C0F3080021684860FD
:1037800008F1020803E02878216848606D1CE08C8D
:10379000401EE084E08C0028E0D153460022402106
:1037A0002046CDF8009001F03CF908B10320ACE7C9
:1037B000202084F83D000020A7E70220A5E70000B4
:1037C000F7B50446154694F83D0020283DD10198F0
:1037D00000B10DB90120FEBD00BF94F83C000128E6
:1037E00001D10220F7E7012084F83C0000BF0198D6
:1037F0002062A584E58400202064212084F83D0017
:103800001348616BC8631348616B08641248616BAD
:10381000C8640020616B086501AE23681A1D316819
:103820002B46606BFEF7C8F96FF040002168086016
:1038300000BF002084F83C0000BF2068406940F0D1
:103840008000216848610020C5E70220C3E700002E
:10385000E54500081B46000895450008704770477D
:1038600000BFFEE700B58BB000BF002001904C48C0
:10387000006840F480704A4908600846006800F417
:103880008070019000BF00BF00BF0020019044483D
:103890001438006840F004004149143908600846B3
:1038A000006800F00400019000BF00BF00BF0020CE
:1038B00001900846006840F48000086008460068EF
:1038C00000F48000019000BF00BF142106A8FCF79F
:1038D00017FF0C200690032007900020089006A9EF
:1038E0003048FEF7C7F9304830490860002048608A
:1038F00000212E488160C1604FF480610161490060
:103900004161890081614911C1614902016200215F
:103910004162FEF7DBF800BF24482549886308466A
:103920002249886300BF2348214908604FF4803052
:10393000486000211E48816001210161002101765B
:1039400080F820104FF0006181624900C1620021BF
:10395000C1600221C161012180F830100021416164
:10396000FDF71AFE002002900390049005900C20B1
:103970000290012003900620049002A90C48FDF754
:1039800011FC0D2002900220039002A90848FDF7C7
:1039900009FC022208490648FDF734FE0BB000BDC1
:1039A000443802400008024010640240E004002055
:1039B00098040020002001409C00002000BFFEE78A
:1039C000704700001749C96800EE901AB0EEC01A9F
:1039D000F8EE601A21EE211ABCEEC11A11EE100A9F
:1039E000B5EEC00AF1EE10FA07DD0E490968086469
:1039F00000210C4A1268516313E0B5EEC00AF1EEE3
:103A000010FA07D20021074A1268116405490968B3
:103A1000486306E00021034A12681164014A1268F3
:103A200051637047780300201749C96800EE901A67
:103A3000B0EEC01AF8EE601A21EE211ABCEEC11ADF
:103A400011EE100AB5EEC00AF1EE10FA07DD0E49CC
:103A50000968C86300210C4A1268116413E0B5EECE
:103A6000C00AF1EE10FA07D20021074A1268D163AA
:103A700005490968086406E00021034A1268D16319
:103A8000014A126811647047C003002001460020FB
:103A90004A7850408A785040CA7C5040002204E066
:103AA000CB1C9B5C5840531CDAB2CB7C9342F7DCB6
:103AB000704770B504460D4604B10DB9002070BDC5
:103AC000002622783146761C6A5462783146761C8C
:103AD0006A54A2783146761C6A54E27C3146761CE0
:103AE0006A54002007E0E11C0B5C3146721CD6B220
:103AF0006B54411CC8B2E17C8142F4DC2046FFF7E4
:103B0000C5FF2075227D3046711CCEB22A54627DDD
:103B10003046711CCEB22A543046D0E72DE9F0472A
:103B20000C46DDE90867002100258C4600BF60E0F7
:103B30004FF0010808FA01F504EA050CAC4557D12D
:103B4000D0F800804FEA410A4FF0030909FA0AF958
:103B500028EA0908C0F80080D0F800804FEA41093F
:103B600002FA09F948EA0908C0F80080012A01D0E0
:103B7000022A27D1D0F808804FEA410A4FF0030902
:103B800009FA0AF928EA0908C0F80880D0F808807C
:103B90004FEA410906FA09F948EA0908C0F808801D
:103BA000D0F804904FF0010808FA01F829EA080952
:103BB000C0F80490D0F8048003FA01F948EA090833
:103BC000C0F80480D0F80C804FEA410A4FF0030996
:103BD00009FA0AF928EA0908C0F80C80D0F80C8024
:103BE0004FEA410907FA09F948EA0908C0F80C80C8
:103BF000491C10299CD3BDE8F0870000DFED0C0ABA
:103C0000B4EEE00AF1EE10FA03DDDFED090AB0EEE2
:103C1000600ADFED080AB4EEE00AF1EE10FA03D212
:103C2000DFED040AB0EE600A034880ED000A704739
:103C300000007A4400007AC48400002000B52348C4
:103C400090ED000ADFED220AB4EEE00AF1EE10FA80
:103C500003DD4FF416701F490860DFED1F2A1B4873
:103C600090ED000A1D48D0ED000AB4EEE00AF1EE36
:103C700010FA1ED2154890ED000A1648D0ED000A41
:103C8000F8EEE00A9FED141A00EE810A0F4880ED6D
:103C9000000A90ED000A1148D0ED000AB4EEE00AE7
:103CA000F1EE10FA0BDD90ED000A084880ED000AF5
:103CB00005E00A4890ED000A044880ED000A034838
:103CC00090ED000A00F062F800BD00008C000020BA
:103CD00000004843900000206F12833A84000020C7
:103CE00030B52DED048B87B020480468204800686B
:103CF0001E4908601E4804601E4800681E49096885
:103D0000401A1E4908600846006803F0D0FC41ECE8
:103D1000190B9FED1B0B53EC102B03F0DFFC41EC58
:103D2000180B03F093FC0690AA208DF800000120E8
:103D30008DF8010070208DF8020004208DF813002A
:103D40000698CDF8030055208DF815000748016846
:103D50006846FFF7AEFE05462A46054801680A4850
:103D6000FFF72EFD07B0BDEC048B30BD2000002016
:103D700024000020600000205C00002010000020D3
:103D8000000000000000E83F64020020184880EDB9
:103D9000000ADFED181A80EE212AF0EE420ADFED6C
:103DA000161A60EEA11AB0EE611ADFED141A81EE58
:103DB000212A134880ED002AD0ED001A9FED112A28
:103DC000F4EEC21AF1EE10FA03D2DFED0F1AC0EDD5
:103DD000001A0B48D0ED001AB7EE002AF4EEC21A12
:103DE000F1EE10FA03DDF7EE001AC0ED001A70478D
:103DF00088000020000070420000484200409C46BD
:103E00008000002095BFD633000000002C4991EDC2
:103E1000001A2C4991ED002A2B4991F9001001EE6E
:103E2000901AF8EEE11A02EE211A254981ED001AE6
:103E300091ED001AF7EE001AB4EEE11AF1EE10FA65
:103E400007DB91ED001AF7EE001A31EE611A81EDF1
:103E5000001A1B4991ED001AB5EEC01AF1EE10FAE6
:103E600007D291ED001AF7EE001A31EE211A81ED1A
:103E7000001A134991ED001ADFED141A21EE211AF0
:103E8000BDEEC11A11EE101A01F03F00104901EB0E
:103E9000800191ED000A0F4901EB8001D1ED000A8C
:103EA000B0EE041A20EE011A0B4981ED001AB0EEB3
:103EB000041A20EE811A094981ED001A70470000AA
:103EC0007C000020800000206D0000200000804267
:103ED0000C7900080C7A000874000020780000209B
:103EE000DFED130AB4EEE00AF1EE10FA01D2402041
:103EF0001BE0DFED100AB4EEE00AF1EE10FA01D299
:103F0000202012E0DFED0C0AB4EEE00AF1EE10FA28
:103F100001D2102009E0DFED090AB4EEE00AF1EE6B
:103F200010FA01D2082000E004200549087070470B
:103F30000000A042000020430000A04300002F44E6
:103F40009400002010B5FDF79BFF03F02FF8012827
:103F500001D002F0F5FD10BD0348006840F4700088
:103F6000014908607047000088ED00E010B5024884
:103F7000FEF767FE10BD00005004002000B597B0AA
:103F800000BF002001903D48006840F002003B491E
:103F900008600846006800F00200019000BF00BF02
:103FA00000BF0020019035481030006840F002004A
:103FB0003249103108600846006800F002000190A4
:103FC00000BF00BF142112A8FCF79AFB0320129037
:103FD000022013900020149002201590169012A930
:103FE0002748FDF747FE27482749086053204860C7
:103FF0000021254881601821C16000210161FFF77F
:104000002DF81C210BA8FCF77BFB60200B900020F7
:104010000C900D900F9008220BA91B48FEF79CFFF7
:104020000C220BA91848FEF797FF1C2104A8FCF7E7
:1040300067FB602004901448C06840080590002287
:1040400004A91148FEF7C8FE00200290039040200A
:1040500002900020039002A90B48FEF7FFFB00210D
:104060000948FEF7F3FE08210748FFF72DF80C2159
:104070000548FFF729F817B000BD000030380240AE
:104080000004024000040040C003002010B50248B4
:10409000FEF7D7FD10BD00000804002010B502484F
:1040A000FEF7CFFD10BD00007803002010B50A48D0
:1040B0000068006900F0010060B107480068C0684E
:1040C00000F0010030B16FF0010003490968086198
:1040D000FFF79CFE10BD00003003002010B5026801
:1040E000294B98420ED0B0F1804F0BD0274B98420D
:1040F00008D0274B984205D0264B984202D0264B39
:10410000984203D122F070024B681A431E4B98422A
:1041100020D0B0F1804F1DD01C4B98421AD01C4BC0
:10412000984217D01B4B984214D01B4B984211D089
:104130001A4B98420ED01A4B98420BD0194B98420A
:1041400008D0194B984205D0184B984202D0184B12
:10415000984203D122F44072CB681A4322F08003C4
:104160004C6943EA040202608B68C3620B68836295
:10417000054B984202D0084B984201D10B6903636A
:104180000123436110BD0000000001400004004015
:1041900000080040000C00400004014000400140C5
:1041A000004401400048014000180040001C00404D
:1041B0000020004030B501F01F05012404FA05F38A
:1041C000046A9C430462046A01F01F0502FA05F5C3
:1041D0002C43046230BD000030B5056A25F00105AE
:1041E0000562026A4368846924F0700424F00304C1
:1041F0000D682C4322F002028D682A43104DA8421C
:1042000000D103E00F4DA84206D100BF22F0080202
:10421000CD682A4322F00402094DA84202D0094D7C
:10422000A84207D123F4807323F400734D692B4314
:104230008D692B43436084614D684563026230BDE4
:10424000000001400004014030B5056A25F010056A
:104250000562026A4368846924F4E04424F44074EB
:104260000D6844EA052422F020028D6842EA051216
:10427000124DA84200D103E0114DA84207D100BF62
:1042800022F08002CD6842EA051222F040020B4D76
:10429000A84202D00A4DA84209D123F4806323F436
:1042A00000634D6943EA85038D6943EA85034360F2
:1042B00084614D688563026230BD000000000140EA
:1042C0000004014030B5056A25F480750562026A74
:1042D0004368C46924F0700424F003040D682C437F
:1042E00022F400728D6842EA0522124DA84200D1E4
:1042F00003E0114DA84207D100BF22F40062CD684F
:1043000042EA052222F480620A4DA84202D00A4DF8
:10431000A84209D123F4805323F400534D6943EAA2
:1043200005138D6943EA05134360C4614D68C56395
:10433000026230BD000001400004014030B5056A52
:1043400025F480550562036A4468C26922F4E0429C
:1043500022F440720D6842EA052223F400538D686E
:1043600043EA0533084DA84202D0084DA84204D1C3
:1043700024F480444D6944EA85144460C2614D6868
:104380000564036230BD00000000014000040140EC
:1043900000B58DB000BF002000903348006840F0A9
:1043A0000100314908600846006800F001000090F3
:1043B00000BF00BF00BF002000902B4810300068F5
:1043C00040F008002849103108600846006800F0F5
:1043D0000800009000BF00BF142108A8FCF790F966
:1043E000092008900220099000200A9002200B90DA
:1043F0000C9008A91D48FDF73DFC1D481D490860AB
:104400005320486020211B4881601821C160002191
:104410000161FEF723FE1C2101A8FCF771F9602061
:1044200001900020029003900590002201A91148FC
:10443000FEF792FD0C2201A90E48FEF78DFD032226
:1044400001213220FDF777FD3220FDF764FD094898
:10445000FEF792FA00210748FEF736FE0C210548C8
:10446000FEF732FE0DB000BD3038024000000240C1
:10447000000C00407803002000B5F0EE402AB0EEBA
:10448000602AB0EE620AFFF79DFAB0EE420AFFF72B
:10449000CBFA00BD08B500BF0020009013480068AB
:1044A00040F00400114908600846006800F004006C
:1044B000009000BF00BF0E480E49086053204860BE
:1044C00044F61F610B48C160002101618160FEF765
:1044D0001FFA002201211E20FDF72DFD1E20FDF7F1
:1044E0001AFD0448FEF748FA08BD000040380240B3
:1044F000000800400804002010B5002003490968A6
:1045000048620248FEF738FA10BD00003003002070
:1045100008B500BF002000901248006840F020005D
:10452000104908600846006800F02000009000BFB5
:1045300000BF0D480D4908605320486031210B48E9
:10454000C160002101618160FEF7E2F900220121D2
:104550003720FDF7F0FC3720FDF7DDFC0348FEF7C0
:104560000BFA08BD40380240001400403003002020
:1045700010B50248FEF7A4FE10BD00006402002042
:1045800070B50546AC6B0020E085E0842046FEF760
:1045900095FE70BD70B506460025B46B2068406975
:1045A000C0F3C01594F83D00212805D125B10020A5
:1045B000E084204600F063F820684069C0F380156D
:1045C00094F83E00222805D125B10020E085204640
:1045D00000F02AF8206C40F0100020642046FEF71E
:1045E0006DFE70BD70B50546AC6B2868006800F4C0
:1045F000807070B90020E0842068406920F080005D
:10460000216848612068C06840F040002168C860A7
:1046100002E02046FFF722F970BD70B50446A56B95
:104620002846FFF71CF970BD0168C96821F4907134
:104630000268D1600168496921F001010268516195
:10464000016B012905D10168C96821F010010268D8
:10465000D160202180F83E1000210163704710B521
:1046600004462068C06820F040002168C86020200F
:1046700084F83D002046FFF7F1F8002010BD0168E6
:10468000C96821F0C0010268D160202180F83D1086
:10469000704770B5044694F83E00222856D1A068B1
:1046A000B0F5805F0CD1206950B90025A66A20685A
:1046B0004068C0F308003080A06A801CA06215E04A
:1046C000A56A0026A068B0F5805F03D0A06828B96D
:1046D000206918B920684068287004E020684068A4
:1046E00000F07F002870A06A401CA062E08D401E90
:1046F00080B2E08540BB2068C06820F020002168BF
:10470000C8602068C06820F480702168C860206894
:10471000406920F0010021684861202084F83E00B3
:10472000206B01280AD12068C06820F010002168A1
:10473000C860A18D2046FEF7C0FD02E02046FEF7CE
:10474000AFFF0020206370BD0020FCE70220FAE7E5
:104750002DE9F84F04462068006920F44050E168D4
:104760000843216808612169A0680843616908431A
:10477000E169084300902068C06849F20C618843F1
:10478000009908432168C8602068406920F440709F
:10479000A16908432168486176492068884203D0AE
:1047A00075492068884203D1FDF7F0FC814602E09C
:1047B000FDF7DCFC8146E069B0F5004F6CD10220CA
:1047C0006168A0FB015003461920A9FB0070014657
:1047D0002A463846FBF7D7FD6421B0FBF1F04FEADB
:1047E000001A02206168A0FB01510B461920A9FBA9
:1047F00000712A463846FBF7C6FD834602206168F1
:10480000A0FB015003461920A9FB00712A46384637
:10481000FBF7B9FD6421B0FBF1F000EBC00101EB47
:104820000010ABEB8000322101EBC0006421B0FB33
:10483000F1F000F0F8000AEB400A02206168A0FBEA
:10484000015003461920A9FB007001462A4638464C
:10485000FBF799FD834602206168A0FB01500346E7
:104860001920A9FB00712A463846FBF78CFD64210C
:10487000B0FBF1F000EBC00101EB0010ABEB8000EE
:10488000322101EBC0006421B0FBF1F000F0070021
:104890005044216888606AE004206168A0FB0150F0
:1048A00003461920A9FB007001462A463846FBF74B
:1048B0006AFD824604206168A0FB0150034619206E
:1048C000A9FB007001462A463846FBF75CFD6421CF
:1048D000B0FBF1F000EBC00101EB0010AAEB80008F
:1048E000322101EB00106421B0FBF1F000F0F00A7E
:1048F00004206168A0FB017003461920A9FB005148
:104900003A462846FBF73FFD6421B0FBF1F00AEB85
:10491000001A04206168A0FB01510B461920A9FB75
:1049200000712A463846FBF72EFD83460420616855
:10493000A0FB015003461920A9FB007001462A463E
:104940003846FBF720FD6421B0FBF1F000EBC0011D
:1049500001EB0010ABEB8000322101EB0010642171
:10496000B0FBF1F000F00F00504421688860BDE812
:10497000F88F0000001001400014014010B50346FC
:1049800099629A85DA8500201864222083F83E0017
:1049900000BF002083F83C0000BF1868C06840F4E6
:1049A00080701C68E0601868406940F001001C6875
:1049B00060611868C06840F020001C68E06000205A
:1049C00010BD014691F83D00212828D18868B0F536
:1049D000805F0BD1086948B90A6A1088C0F30800E3
:1049E0000B685860086A801C086205E00B6A581C56
:1049F000086218780B685860C88C401E80B2C88462
:104A000058B90868C06820F080000B68D860086852
:104A1000C06840F040000B68D8600020704702205A
:104A2000FCE72DE9F04104460D4617469846069EE0
:104A300021E0701CF8B12EB1FDF71CFAA0EB0800C4
:104A4000B04218D92068C06820F4D0702168C860CE
:104A50002068406920F0010021684861202084F826
:104A60003D0084F83E0000BF002084F83C0000BFF9
:104A70000320BDE8F081206800682840A84201D1E9
:104A8000012000E00020B842D3D00020F1E700BFB1
:104A9000FEE770B50621302001F034FA302001F035
:104AA00041F90546062D03D00621302001F02AFAEF
:104AB000002403E002F0C2FD601C84B2C82CF9DBC4
:104AC00070BD000002480068C0F30220704700007B
:104AD0000CED00E010B5002804DB0A07130E054AB0
:104AE000135406E00A07140E034A00F00F031B1FBD
:104AF000D45410BD00E400E018ED00E030380A287E
:104B000001D2012070470020704700BF70470000AD
:104B100000F00101194A1160C0F34001184AC2F8BF
:104B20008412C0F38001154A08321160C0F30011ED
:104B3000121F1160C0F34011104A3C321160C0F3E3
:104B40008011104A1160C0F3C0110C4A3832116054
:104B5000C0F300210B4A121D1160C0F34021074A27
:104B600034321160C0F38021044A14321160C0F362
:104B7000C021024A0C32116070470000808242421C
:104B8000000043429002434200F00101104A1160CC
:104B9000C0F340010F4AC2F8BC12C0F380010C4AB6
:104BA000383A1160C0F3C001121D1160C0F300114A
:104BB000094A1160C0F34011121D1160C0F3801149
:104BC000121D1160C109054AC2F8A8127047000001
:104BD000B8824142008041429C024242000042426F
:104BE00070B504460420FDF709FE0A480460254616
:104BF0004FF47A7045434FF0E020006940F0020026
:104C00004FF0E021086108464561006940F001006D
:104C1000086170BD4000002000BF054A126802F024
:104C20004002002AF9D0C2B2014B1B1D1A60704726
:104C3000004C00401CB50648012100238022CDE92C
:104C4000001004A1064802F081F901F0DDFD1CBD51
:104C50002800002073746172745F7461736B0000CC
:104C6000E95F000810B5FDF717F9072302220821B4
:104C70004FF4A87001F0FCF90320FDF79BF9A82080
:104C8000FFF7AEFF4FF4E12001F082FAFCF734F9B0
:104C900000F0FEFEFFF73CFCFFF77AFBFFF7FAFBA4
:104CA000FFF76CF9FCF75EF90120FCF7CFFFFEF788
:104CB000D9FD002206211220FDF73DF91220FDF753
:104CC0002AF9002206213820FDF735F93820FDF7B2
:104CD00022F93C210748FDF74DFF002000F00CF8B9
:104CE000022000F009F8012000F006F8FFF7A2FF0B
:104CF000002010BD5004002010B504460C4951F8A6
:104D000024104A000B4951F82400002100F036F825
:104D1000094951F8242007490C3951F82400002191
:104D200000F02CF8012103480C30015510BD0000A3
:104D30000C7B0008E8000020247B000810B5014629
:104D40000023002207E00B4850F8210030F8120041
:104D500000B15B1C521C084850F821009042F2D868
:104D60004FF47A705843044C54F82140B0FBF4F0EF
:104D700080B210BDE80000200C7B000830B503466F
:104D800001E003F8011B141EA2F10102F9D130BDAC
:104D90002DE9F04105460E462948076800202949BB
:104DA000096881F8590027480068001D01F00CFAD5
:104DB00050B92448006890F82C10012088402249FE
:104DC0000968814320480160681CD8B9D6B11F49E1
:104DD00048681C49096888601A4982680968CA607D
:104DE00018490968091D8268516016490968091D3A
:104DF0008160164A134909684A6111460968491CCD
:104E000011601AE07C190F4800684460BC4207D268
:104E10000C480168091D0E48006801F0F9F90CE022
:104E200008480168091D0B48006801F0F1F90A48BB
:104E30000068844201D208480460BDE8F0810000A7
:104E40000C010020F800002010010020D086012075
:104E500000010020FC0000202801002010B50446BD
:104E600001F0FCF931480068401C304908603048C6
:104E7000006840B92E4804600846006801280DD13A
:104E800000F016FA0AE02B48006838B92848006894
:104E9000C06AE16A884201D8254804602648006853
:104EA000401C2549086008460068606494F82C108E
:104EB0000120884021490968084320490860E16AC7
:104EC00001EB81011E4A02EB81014868A060826803
:104ED000E260211D826851608160E16A01EB81011D
:104EE000174A02EB81026261E16A01EB8101144A17
:104EF00052F82110491CE26A02EB8202104B43F87F
:104F0000221001F0F7F90B48006868B10848006802
:104F1000C06AE16A884207D24FF0805009490860B0
:104F2000BFF34F8FBFF36F8F10BD0000080100204B
:104F3000F8000020140100202401002010010020AE
:104F40000084012004ED00E010B501F087F910485D
:104F50000068D0B90F4801F04BF90F4801F048F94B
:104F60000C480E4908600C480D49086000221021C9
:104F7000052001F0FFFD064908600846006820B1E1
:104F800008A10348006801F075FA01F0B3F910BDFB
:104F900040010020E4860120F8860120380100202D
:104FA0003C010020546D72510000000010B516E065
:104FB00001F054F90C48C068C468201D01F004F9E0
:104FC0000A480068401E0949086009480068401EF8
:104FD0000749086001F08EF9204600F05FF80448A8
:104FE00000680028E4D110BDBC8601200801002023
:104FF0000401002070B504460D46206C70B1216C90
:10500000E0680144E160D4E90210884201D32168DC
:10501000E1602846226CE168FBF725FB70BD2DE9B5
:10502000F04104460F4615464FF00008A66B206C71
:1050300048B9206800282CD1A06802F0C1F8804649
:105040000020A06025E07DB93946226C6068FBF73E
:105050000AFB216C606808446060D4E90101884261
:1050600017D32068606014E03946226CE068FBF7D3
:10507000FAFA216CE068411AE1602168E068884230
:1050800003D2216CA068411AE160022D01D106B162
:10509000761E701CA0634046BDE8F08110B5044642
:1050A000206B01F067F9204601F064F910BD0000A3
:1050B0000146084A126812680AB9012200E000227B
:1050C0000A600A6822B9034A1268D268106800E0D0
:1050D000002070473801002030B54FF420531748A6
:1050E00000F007042CB1C01D20F00700134C041B76
:1050F0001B1B0246124C22600024114D6C60D0181C
:10510000083820F007000F4C206000240D4D2D685A
:105110006C600C4D2D682C601146441A4C60094C93
:1051200024680C60084D4C682C60084D4C682C605D
:105130004FF00044064D2C6030BD00000C8701206C
:105140004C010020540100205C0100205801002087
:105150006801002000BFFFF729FF0648006801280A
:10516000F9D94FF0805004490860BFF34F8FBFF367
:105170006F8FF0E70084012004ED00E02DE9F0419D
:1051800006460D4617469846069C0DB9246000E079
:105190002760E66325640121204601F033FD84F891
:1051A00050800020A064BDE8F08100002DE9F05F90
:1051B00082460F4690469B460A9E0C9C4FEA880109
:1051C000A522206BFBF794FAA8F10100216B01EBFB
:1051D000800929F0070909F0070008B9012000E05B
:1051E000002028B94FF4587224A12DA0FBF742F9F2
:1051F00087B1002507E0795D04F134004155785D01
:1052000000B902E06D1C102DF5D300BF0021432032
:10521000015502E0002084F83400202E01D2012044
:1052200000E0002028B940F2973214A11CA0FBF73F
:1052300021F9202E00D31F26E662E66400202065B7
:10524000201D00F0E2FF04F1180000F0DEFF2461F1
:10525000C6F12000A06164620020606584F85800F7
:1052600084F859005A465146484600F0FBFB20603E
:105270000B9808B10B980460BDE8F09F2E2E5C2EB1
:105280002E5C4D6964646C6577617265735C46720F
:10529000656552544F535C7461736B732E630000E9
:1052A0004572726F723A2025732C2025640D0A0016
:1052B00010B5002407E004EB84010F4A02EB8100E3
:1052C00000F096FF641C202CF5D30C4800F090FFF2
:1052D0000B4800F08DFF0B4800F08AFF0A4800F0F1
:1052E00087FF0A4800F084FF044809490860044821
:1052F0000849086010BD000000840120808601205C
:1053000094860120A8860120BC860120D086012039
:10531000FC0000200001002010B50146164800E006
:10532000006803688B42FBD30246436813448B42F8
:1053300004D143684C682344436001460A464B68E5
:1053400013440468A34211D10C4C03682468A3429F
:1053500008D04B680468646823444B6003681B688A
:105360000B6005E0054B1B680B6001E003680B60F8
:10537000884200D0016010BD4C0100205401002083
:105380002DE9F04104460D4616461F464FF0000831
:1053900065602461B5420CD8F01BA169884202D334
:1053A0004FF0010811E0211D0948006800F030FFAE
:1053B0000BE0BE4204D2BD4202D34FF0010804E02C
:1053C000211D0448006800F023FF4046BDE8F0813D
:1053D0003C0100203801002070B5054600F03EFF7A
:1053E000A86B08B9012400E0002400F083FF2046E8
:1053F00070BD0000F1B50098846C00262CB940F611
:10540000D53220A128A0FBF735F8A06BE16B8842CC
:1054100001D2012000E0002028B940F6D63219A1BF
:1054200021A0FBF727F8A06BE16B884227D294F903
:105430004550002269462046FFF7F1FD0646681CEC
:1054400060B9606A08B9012000E00020B0B904F139
:10545000240001F03DFF88B101260FE07F2D01D02F
:10546000012000E0002028B940F6F63205A10EA088
:10547000FBF700F8681C40B284F8450000BF3046D6
:10548000F8BD00002E2E5C2E2E5C4D6964646C65A8
:1054900077617265735C4672656552544F535C71F7
:1054A000756575652E6300004572726F723A20252E
:1054B000732C2025640D0A0070B505460E460E4873
:1054C0000068C068C468201D00F07EFE94F82800C3
:1054D00000F0040028B132462946204600F0FEF8CC
:1054E00005E094F8280000F0FE0084F8280020462B
:1054F000216A884770BD00003801002070B586B071
:105500008AE0029800280CDA03AE2EB940F2063287
:1055100047A150A0FAF7AEFFD6E90020B168904746
:1055200000BF0298002877DB049C606908B901205D
:1055300000E0002010B9201D00F046FE01A800F098
:10554000F9F8054602980A2864D2DFE800F06305FE
:10555000072E365306082F3700BF00BF00BF94F850
:10556000280040F0010084F828000398A2698118FF
:1055700003462A462046FFF703FFA8B194F8280007
:1055800000F0040038B10398A26981182A46204629
:1055900000F0A4F805E094F8280000F0FE0084F87C
:1055A00028002046216A884735E000BF94F828008B
:1055B00000F0FE0084F828002DE000BF94F82800D9
:1055C00040F0010084F828000398A061A06908B1A8
:1055D000012000E0002028B940F2593214A11DA09A
:1055E000FAF748FFA06941192B462A462046FFF7E3
:1055F000C7FE10E094F8280000F0020018B9204619
:1056000000F0B8FE05E094F8280000F0FE0084F8F1
:10561000280000E000BF00BF002202A91148006876
:1056200001F06EFB00287FF46CAF06B070BD000087
:105630002E2E5C2E2E5C4D6964646C6577617265FC
:10564000735C4672656552544F535C74696D657244
:10565000732E63004572726F723A2025732C2025D9
:10566000640D0A0040010020F8B505460C4601F023
:105670002DF9684600F05EF80646009820BB44B954
:10568000B54206D801F0CAFE31462846FFF714FF9E
:105690001CE03CB10E480068006808B9012000E039
:1056A00000200446A91B22460A48006800F028FF93
:1056B00001F0B4FE50B94FF0805007490860BFF3C5
:1056C0004F8FBFF36F8F01E001F0A8FEF8BD00001F
:1056D0003C0100204001002004ED00E070B50446CC
:1056E0000D46164604E0A06905442046216A884715
:1056F000A06941192B4632462046FFF741FE00289B
:10570000F1D170BD09480068006808B9012000E0C7
:10571000002020B14FF0FF300549086005E0034844
:105720000068C0680068024908607047FC000020FB
:105730002801002070B5044601F048FC05460748E2
:105740000068854204D200F00BF80120206001E0DF
:105750000020206001480560284670BD48010020F7
:1057600070B508E00D480068C06804684FF0FF316C
:105770002046FFF7A1FE09480068006808B901202B
:1057800000E000200028EDD00448056804480068C7
:10579000024908600248056070BD00003801002021
:1057A0003C0100200B480068401C08B9012000E0C3
:1057B000002020B9E92208A116A0FAF75BFE00BF7D
:1057C000502080F31188BFF34F8FBFF36F8F00BF5E
:1057D00000BFFEE76C0100202E2E5C2E2E5C4D6972
:1057E00064646C6577617265735C4672656552547A
:1057F0004F535C706F727461626C655C52564453B7
:105800005C41524D5F434D34465C706F72742E6341
:10581000000000004572726F723A2025732C20251B
:10582000640D0A0008B500BF6846FFF741FC044656
:1058300020460099FFF718FFFFF760FEF4E770B508
:10584000044600F00BFD94F9455019E0A06C30B10E
:105850002046FFF7CFFD88B100F058FF0EE0606AE8
:1058600008B9012000E0002038B904F1240001F05B
:105870002FFD18B100F04AFF00E003E0681E45B2BA
:10588000002DE3DC00BFFF2084F8450000F032FD6E
:1058900000F0E4FC94F9445010E0206908B90120BC
:1058A00000E0002048B904F1100001F011FD08B13A
:1058B00000F02CFF681E45B200E001E0002DECDC9A
:1058C00000BFFF2084F8440000F014FD70BD00000C
:1058D0002DE9F04104464FF0000800F0F7FF494879
:1058E000006808B9FFF7F8FB474800682040002827
:1058F00075D1002C23D004F10800A0421FD9083430
:1059000004F0070000281BD004F00700C0F10800D5
:105910002044A04211D904F00700C0F1080004445B
:1059200004F0070008B9012000E0002040B99C22E3
:1059300036A144A0FAF79EFD02E0002400E0002416
:10594000002C4CD043480068844248D8424E304630
:10595000056801E02E462D686868A04202D22868DA
:105960000028F7D127480068854238D0306800F118
:105970000808286830606868001B102813D92F19A0
:1059800007F0070008B9012000E0002020B9CF226D
:105990001EA12CA0FAF76EFD6868001B78606C6091
:1059A0003846FFF7B9FC2B4968680968081A294985
:1059B00008600846006829490968884203D22548DA
:1059C00000682649086010496868096808436860EB
:1059D0000020286022480068401C2149086001F02E
:1059E0001DFD08F0070008B9012000E0002028B9DB
:1059F0004FF4887205A113A0FAF73CFD4046BDE8BC
:105A0000F081000054010020680100202E2E5C2E41
:105A10002E5C4D6964646C6577617265735C467277
:105A2000656552544F535C706F727461626C655C53
:105A30004D656D4D616E675C686561705F342E63A6
:105A4000000000004572726F723A2025732C2025E9
:105A5000640D0A00580100204C0100205C01002068
:105A600060010020001F4FF080730360001F21F0D1
:105A700001030360001F054B036014380260001F20
:105A80006FF002030360203870470000A55700083C
:105A900000B58DB0FEF7FDFF00BF00BF00200090F5
:105AA0007148006840F040006F490860084600688F
:105AB00000F04000009000BF00BF00BF00BF00BF6B
:105AC000002000900846006840F008000860084682
:105AD000006800F00800009000BF00BF00BF00BFDA
