:020000040800F2
:10000000F0B2012039030008653800080137000804
:1000100061380008B50B00087F45000800000000AB
:10002000000000000000000000000000790200084D
:10003000870F000800000000D5020008613B00089F
:100040005D0300085D0300085D0300085D03000810
:100050005D0300085D0300085D0300085D03000800
:100060005D0300085D0300085D0300085D030008F0
:100070005D0300085D0300085D0300085D030008E0
:100080005D0300085D030008450A00085D030008E1
:100090005D0300085D0300085D0300085D030008C0
:1000A0005D0300085D0300085D0300085D030008B0
:1000B000893B00085D0300085D0300085D0300083C
:1000C0005D0300085D0300085D0300085D03000890
:1000D0005D0300085D0300085D0300085D03000880
:1000E0005D0300085D0300085D0300085D03000870
:1000F0005D0300085D0300085D0300085D03000860
:100100005D0300085D0300086D3C00085D03000806
:10011000094100085D0300085D0300087D3C0008FC
:100120006D0E00085D0300085D0300085D03000814
:100130005D0300085D0300085D0300085D0300081F
:100140005D0300085D0300085D0300085D0300080F
:100150005D0300085D0300085D0300085D030008FF
:100160005D0300085D0300085D0300085D030008EF
:100170005D0300085D0300085D0300080000000047
:100180005D0300085D03000800F002F800F064F869
:100190000AA090E8000C82448344AAF10107DA45E2
:1001A00001D100F059F8AFF2090EBAE80F0013F0D0
:1001B000010F18BFFB1A43F00103184740700000FD
:1001C000607000000A444FF0000C10F8013B13F07F
:1001D000070408BF10F8014B1D1108BF10F8015BA0
:1001E000641E05D010F8016B641E01F8016BF9D193
:1001F00013F0080F1EBF10F8014BAD1C0C1B09D1EA
:100200006D1E58BF01F801CBFAD505E014F8016B5B
:1002100001F8016B6D1EF9D59142D6D370470000ED
:100220000023002400250026103A28BF78C1FBD8FF
:10023000520728BF30C148BF0B607047642900F0E7
:100240004F81732900F00A83002070471FB506F024
:100250006DFF1FBD10B510BD00F072FB1146FFF71A
:10026000F5FF04F077FA00F090FB03B4FFF7F2FF1C
:1002700003BC04F0C2F900002C4B19680868B0E810
:10028000F04F80F30988BFF36F8F4FF0000080F3C9
:10029000118870470000000008480068006880F37B
:1002A00008884FF0000080F3148862B661B6BFF38F
:1002B0004F8FBFF36F8F00DF00BF00BF08ED00E07E
:1002C000DFF80C00016841F470010160704700BF65
:1002D00088ED00E0EFF30980BFF36F8F134B1A68CE
:1002E0001EF0100F08BF20ED108A20E9F04F1060BB
:1002F00009B44FF0500080F31188BFF34F8FBFF364
:100300006F8F06F05BF84FF0000080F3118809BC96
:1003100019680868B0E8F04F1EF0100F08BFB0EC85
:10032000108A80F30988BFF36F8F7047BC000020EC
:10033000EFF30580704700000C48016841F470013C
:1003400001600B4880470B480047FEE7FEE7FEE7E9
:10035000FEE7FEE7FEE7FEE7FEE7FEE7FEE700005A
:1003600005480649044A064B7047000088ED00E046
:10037000753B000889010008F0AE0120F0B20120B1
:10038000F0AE0120704753EA020C00F069802DE9BD
:10039000F04B4FF00006002B1FBFB3FA83F503FAB2
:1003A00005F424FA05F65E4012BF1643B2FA82F550
:1003B00002FA05F4C5F120051EBF22FA05FC44EA45
:1003C0000C04203556EA044C4FEA144418BF641C50
:1003D0004FF000084FF00009904271EB030C39D345
:1003E000002919BFB1FA81F701FA07F6B0FA80F7D0
:1003F00000FA07F6C7F120071EBF20FA07FC46EAFD
:100400000C062037B6FBF4FCA7EB0507103F07F0FE
:100410001F0BCBF120060CFA0BFB2CFA06F644BF9F
:10042000B3460026202FA4BF5E464FF0000B5BEAC8
:10043000060C08BF4FF0010B19EB0B09ABFB027C5C
:1004400048EB0608C01B06FB02CC0BFB03CC71EB90
:100450000C01C1E70B46024641464846BDE8F08B19
:1004600013B54FF000004FF00001AFF30080BDE87E
:100470001C4070470FB4044910B503AA029800F05D
:10048000F1F910BC5DF814FB3800002070B50C4683
:100490000546012A05D02878800600D5EA690023A0
:1004A00002E0012305E05B1C934202D2E05C0028DD
:1004B000F9D1A869E618C01AA861286A1844286208
:1004C0002846AFF3008004E0D5E9012114F8010BC0
:1004D0009047B442F8D32846AFF3008070BD0000C7
:1004E0002DE9F0410646002410687529314616A50D
:1004F00010D0AFF30080002802DA404213A507E0D5
:1005000031688A0701D512A502E0490704D511A573
:10051000012401E0AFF3008000210A2206F1240744
:1005200009E0B0FBF2FCB0FBF2F302FB1C00303040
:1005300078541846491C0028F3D123462A463046F1
:10054000BDE8F04100F007B9000000002D000000F8
:100550002B000000200000002DE9F0474FF0000ABA
:1005600089460446C0F820A02046E1688847002854
:1005700076D0252806D0D4E901219047206A401C76
:100580002062F1E7E168204600258847C4F81CA0F6
:1005900006460027C4F818A02A2E09D0304604F0D9
:1005A00025F838B304EB8708303EC8F8186019E026
:1005B00059F8041B204604EB87029161E1688847E3
:1005C000012F064618D1E069002820DA25F0200521
:1005D0001DE0D8F8180000EB800006EB4000303832
:1005E000C8F818002046E1688847064603F0FEFF79
:1005F0000028EED1012F0AD02E2E08D12046E16826
:1006000088477F1C0646022F45F02005C4DBA06901
:10061000002803DA404245F00105A061E80701D057
:1006200025F01005B6B1A6F14100192802D82036F0
:1006300045F400654A463146204625604D46FFF7A1
:10064000FDFD58B1012806D0ED1D25F0070000F191
:10065000080989E704E005F1040985E730468AE7DF
:10066000206ABDE8F087032A40F2308010F0030CC6
:1006700000F0158011F8013BBCF1020F624498BFF5
:1006800011F801CB00F8013B38BF11F8013BA2F192
:10069000040298BF00F801CB38BF00F8013B11F00D
:1006A000030300F0F180083AC0F0088051F8043BE1
:1006B000083A51F804CBA0E80810F5E7121D5CBF1A
:1006C00051F8043B40F8043BAFF30080D20724BF4D
:1006D00011F8013B11F801CB48BF11F8012B24BFE1
:1006E00000F8013B00F801CB48BF00F8012B704730
:1006F00002F0FF0343EA032242EA024200F0F8B8A4
:100700004FF0000200B5134694469646203922BFAA
:10071000A0E80C50A0E80C50B1F12001BFF4F7AFF5
:10072000090728BFA0E80C5048BF0CC05DF804EBD7
:10073000890028BF40F8042B08BF704748BF20F845
:10074000022B11F0804F18BF00F8012B7047704743
:100750007047704770472DE9F0470D46994692461D
:10076000044600F124080168880604D5E06921F0F8
:100770001001216000E00120A84201DD471B00E0DC
:100780000027A1697A1902EB0900081AA0612078F4
:10079000C00602D42046AFF30080002608E0D4E96A
:1007A00001211AF806009047206A401C761C20623E
:1007B0004E45F4DB2078C0060AD52046AFF3008012
:1007C00006E0D4E9012130209047206A401C2062D5
:1007D000381EA7F10107F4DC07E0D4E9012118F87D
:1007E00005009047206A401C2062281EA5F10105E3
:1007F000F3DC2046AFF300802078000602D502200B
:10080000BDE8F0870120FBE701694A1C0261087816
:10081000704700B58FB0CDE9013100210591054940
:100820007944CDE9031011466846FFF795FE0FB0F5
:1008300000BD0000E5FFFFFF10B5436913B1AFF342
:10084000008001E0FFF722FE012010BD127800F1C8
:1008500024010A7000224A700122EDE711684FF06E
:10086000FF32E9E7074B70B50D467B44FFF7D1FF38
:100870000446284600F05CF810B14FF0FF3070BD20
:10088000204670BD9B3E000010B5203AC0F00B80A2
:10089000B1E81850203AA0E81850B1E81850A0E884
:1008A0001850BFF4F5AF5FEA027C24BFB1E81850DE
:1008B000A0E8185044BF18C918C0BDE810405FEA4E
:1008C000827C24BF51F8043B40F8043B08BF7047CA
:1008D000D20728BF31F8023B48BF11F8012B28BFCF
:1008E00020F8023B48BF00F8012B70474FF0000290
:1008F0000429C0F0128010F0030C3FF403AFCCF1D8
:10090000040CBCF1020F18BF00F8012BA8BF20F89F
:10091000022BA1EB0C01FFF7F5BE5FEAC17C24BFFF
:1009200000F8012B00F8012B48BF00F8012B70479D
:10093000007B00F080007047004870478CAE0120BB
:100940007546FFF7F9FFAE4605006946534620F0AD
:100950000700854618B020B5FFF702FDBDE820402E
:100960004FF000064FF000074FF000084FF0000B6B
:1009700021F00701AC46ACE8C009ACE8C009ACE81E
:10098000C009ACE8C0098D46704710B50446AFF306
:1009900000802046BDE81040FFF767BC70B50546F3
:1009A000AC6B206C00F0500050BB206C40F4007029
:1009B00020642068806800F04050E8B9207ED8B9F3
:1009C0002068C06A00F4700020B12068806800F4DC
:1009D000806088B92068406820F020002168486065
:1009E000206C20F480702064206C00F4805018B9D2
:1009F000206C40F001002064204600F0ABFC0BE0CE
:100A0000206C00F0100018B1204600F022FD03E039
:100A1000A06BC16C2846884770BD70B50546AC6BAD
:100A200040202064606C40F004006064204600F0C8
:100A300010FD70BD70B50446A56B284600F008FD9A
:100A400070BD000010B5024800F004FD10BD0000AC
:100A50000C04002055494A6822F440324A604A6832
:100A600043681A434A600268526822F4807203683D
:100A70005A6002685368026943EA022203685A60B6
:100A80000268526822F0407203685A600268526835
:100A900083681A4303685A600268926822F400620D
:100AA00003689A6002689268C3681A4303689A6090
:100AB0003F4B826A9A4218D00268926822F07062B4
:100AC00003689A6002689268836A1A4303689A60AE
:100AD0000268926822F0405203689A600268926845
:100AE000C36A1A4303689A600BE00268926822F0B6
:100AF000706203689A600268926822F0405203684C
:100B00009A600268926822F0020203689A600268A2
:100B10009368027E43EA420203689A602022125CD4
:100B2000A2B10268526842F4006203685A60026827
:100B3000526822F4604203685A6002685368426A4D
:100B4000521E43EA423203685A6005E00268526866
:100B500022F4006203685A600268D26A22F47002CA
:100B60000368DA620268D36A828B521E43EA025239
:100B70000368DA620268926822F4007203689A607D
:100B80000268936890F8302043EA422203689A6032
:100B90000268926822F4806203689A60026893682F
:100BA000426943EA822203689A6070470023014049
:100BB0000100000F00BFFEE7B5EEC00AF1EE10FA2B
:100BC00016DDDFED1C0AB4EEE00AF1EE10FA03D2F6
:100BD000DFED180AB0EE600ADFED170AB4EEE00AA6
:100BE000F1EE10FA24DDDFED140AB0EE600A1FE02A
:100BF000B5EEC00AF1EE10FA16D2DFED100AB4EE2F
:100C0000E00AF1EE10FA03DDDFED0C0AB0EE600A47
:100C1000DFED0B0AB4EEE00AF1EE10FA08D2DFEDD8
:100C2000080AB0EE600A03E0DFED060AB0EE600AE3
:100C300070470000CDCC4C3DCDCC4C3ECDCC4CBD16
:100C4000CDCC4CBE0000000010B52DED048B6448E7
:100C500090ED000AB1EE400AB0EE408A614890ED96
:100C6000000AB1EE400AF0EE408A5F4890ED000ABB
:100C700078EE400A90ED000A9FED5C1A01EE200A22
:100C800080ED000A5A4890ED000A78EEC00A90ED17
:100C9000000A9FED561A01EE200A80ED000A554821
:100CA00090ED000A5048D0ED000A30EE600AB0EE38
:100CB000409A514890ED000A4D48D0ED000A30EEC0
:100CC000600AF0EE409AB7EE080A69EE000A4B4857
:100CD00090ED000A9FED4A1A00EE810A80ED000AAD
:100CE000B7EE080A69EE800A464890ED000A9FEDCB
:100CF000441A00EE810A80ED000A3E4890ED000A99
:100D0000414880ED000A3C4890ED000A3F4880EDE4
:100D1000000A3D4890ED000ADFED340AB4EEE00A27
:100D2000F1EE10FA0CDD9FED310A80ED000A334838
:100D300090ED000ADFED320A30EE600A80ED000A25
:100D4000314890ED000ADFED320AB4EEE00AF1EE30
:100D500010FA0CD29FED2E0A80ED000A274890ED84
:100D6000000ADFED270A30EE600A80ED000A27480E
:100D700090ED000ADFED1D0AB4EEE00AF1EE10FA84
:100D80000CDD9FED1A0A80ED000A1E4890ED000A66
:100D9000DFED1B0A30EE600A80ED000A1B4890ED83
:100DA000000ADFED1B0AB4EEE00AF1EE10FA0CD2F5
:100DB0009FED170A80ED000A124890ED000ADFED62
:100DC000100A30EE600A80ED000A1048D0ED000AEB
:100DD0000D4890ED000A03F04BF9BDEC048B10BDFB
:100DE000640000206800002088000020CDCC4C3E2C
:100DF0008C000020580000205C00002080000020B3
:100E00006F12833A8400002090000020940000209C
:100E1000CDCC4CBE30B52DED028B8FB00446B0EE7C
:100E2000408A8DED0E8AAA208DF8200001208DF8D1
:100E300021008DF8224004208DF833000E98CDF863
:100E4000230055208DF83500694608A802F09FFD63
:100E5000054664232A466946034802F0E7FB0FB0C3
:100E6000BDEC028B30BD00001002002010B502481E
:100E700000F01CFD10BD000054040020014608785D
:100E800010381823B0FBF3F20848805CC865032AC9
:100E900005D908686FF30900001D886503E008683C
:100EA0006FF309008865886D704700004E71000877
:100EB000014600208A6A8B69CBB932B1012A0DD074
:100EC000022A03D0032A10D10EE000BFCB6A03F040
:100ED0008073B3F1807F00D1012007E0CB6AB3F1CA
:100EE000C07F00D1012001E000E000BF34E08B6949
:100EF000B3F5005F1AD132B1012A07D0022A03D01C
:100F0000032A11D10AE000BF01200EE0CB6A03F0F2
:100F10008073B3F1807F00D1012006E0CB6AB3F18A
:100F2000C07F00D1012000E000BF15E032B1012AEE
:100F300005D0022A04D0032A0CD103E000BF00BF71
:100F4000012008E0CB6A03F08073B3F1807F00D109
:100F5000012000E000BF00BF704730B5046824687E
:100F600024F4802405682C60046863608468402C45
:100F700004D10468A2600468E16003E00468A16031
:100F80000468E26030BD704700B58BB000BF002040
:100F900001902948006840F0010027490860084690
:100FA000006800F00100019000BF00BF080623495F
:100FB000086000204860002120488160491EC1600F
:100FC0000021016103200290002003900120049081
:100FD000002005900D200690002007900120089029
:100FE000002009900D200A900020144909684862E9
:100FF00002A9124801F0CAFC6FF001000F4909680C
:1010000008610E480068006840F004000B49096858
:1010100008600A480068C06840F001000749096894
:10102000C860002211461C2000F095FF1C2000F033
:1010300082FF0BB000BD000040380240C403002016
:1010400070B590B01C480068C21700250121A0FBB4
:10105000053602FB056200FB012018490968496A50
:1010600059186841164A116050601046016840687E
:10107000CDE90E10AA208DF8200001208DF8210066
:1010800020208DF8220008208DF833000E98CDF82E
:1010900023000F98CDF8270055208DF835006946BC
:1010A00008A802F074FC04466423224669460548F9
:1010B00002F0BCFA10B070BD4C000020C403002048
:1010C000080000201002002070B50446B3F5804FE0
:1010D00013D1D1E9000540EA05108D6840EA0520EA
:1010E0008D6928438D8940EA054054F82250064E08
:1010F0003540284344F8220003E06FF0704044F884
:101100002200002070BD00000000F0CF70B5024644
:10111000086852F8200020F001000E6842F826000E
:101120008868082801D1402300E00023486818435C
:101130008E683043CE6830430E6930434E69304389
:10114000CE6930430E6A30434E6A30438E6A304374
:10115000CE6A30430E6B40EA060488690443C86BCC
:101160000443074D45F4806545F4E025086852F8CE
:101170002000A84320430E6842F82600002070BDDE
:101180007FFB080010B50346D1E9000440EA0410D3
:101190008C6840EA04208C8940EA0444088A401E96
:1011A00044EA0054087D801E44EA00608C692043B4
:1011B000541C53F8244004F040442043541C43F88A
:1011C0002400002010BD704738B502460020009072
:1011D00000BF92F83C00012801D1022038BD012057
:1011E00082F83C0000BF0868092816D91068C0685A
:1011F0000C780A3C04EB44050724AC40A043146877
:10120000E0600C780A3C04EB44048868A040146851
:10121000E46820431468E06013E0106800690C780B
:1012200004EB44050724AC40A043146820610C780B
:1012300004EB44048868A0401468246920431468BF
:1012400020614868072817D21068406B0C79641E2B
:1012500004EB84051F24AC40A04314686063088835
:1012600080B20C79641E04EB8404A0401468646BA3
:1012700020431468606331E048680D2817D2106875
:10128000006B0C79E41F04EB84051F24AC40A043E1
:1012900014682063088880B20C79E41F04EB84048E
:1012A000A0401468246B20431468206316E0106883
:1012B000C06A0C790D3C04EB84051F24AC40A043AC
:1012C0001468E062088880B20C790D3C04EB840459
:1012D000A0401468E46A20431468E062194B1A4C79
:1012E0001068A04206D10868122803D1586840F45B
:1012F00080005860144C1068A0421CD10868102867
:1013000002D00868112816D1586840F400005860CF
:10131000086810280FD10D4800680D4CB0FBF4F0A0
:1013200000EB80004000009002E00098401E00901A
:1013300000980028F9D100BF002082F83C0000BFCF
:1013400000BF4BE7002301400020014000000020C7
:1013500040420F00334A0168914261D13249098805
:1013600000EE101A3049498800EE901AF8EE403A23
:101370009FED2E4A63EE843A9FED2D4AC3EE844AD8
:10138000B0EE641AF8EE603A9FED284A63EE843AB4
:101390009FED274AC3EE844AF0EE641ADFED253A4A
:1013A00071EE633AB6EE004AC3EE844AB0EE642AA8
:1013B000DFED203A71EEE33AB6EE004AC3EE844A1E
:1013C000F0EE642ADFED1C3AB0EE633A1B49D1ED32
:1013D000003A32EE634AD1ED003ADFED174A44EEAF
:1013E000843AC1ED003A1649D1ED003A32EEE34AB3
:1013F000D1ED003ADFED104A44EE843AC1ED003AF7
:101400000E49D1ED003A0F49C1ED003A0C49D1ED3A
:10141000003A0D49C1ED003A01210C4A117000BF9C
:10142000704700000020014060000020333353402B
:1014300000F07F453333D33F9A99993E74000020E2
:101440007800002064000020680000207000002068
:10145000704770472DE9F0410446002500262068BA
:1014600007682068D0F8048007F0020508F020061D
:1014700095B38EB3206C00F0100018B9206C40F4C6
:10148000007020642068806800F04050E8B9207E39
:10149000D8B92068C06A00F4700020B12068806864
:1014A00000F4806088B92068406820F0200021683E
:1014B0004860206C20F480702064206C00F4805020
:1014C00018B9206C40F0010020642046FFF742FF6D
:1014D0006FF012002168086007F0040508F080062C
:1014E000E5B3DEB3206C00F0100018B9206C40F4B6
:1014F000005020642068806800F4401038BB2068E9
:10150000806B00F4401020B12068806800F4806097
:10151000E8B92068406800F48060C0B9206880683D
:1015200000F0405098B9207E88B92068406820F0CB
:10153000800021684860206C20F480502064206C7A
:1015400000F4807018B9206C40F00100206420463F
:10155000FFF739FE6FF00C002168086007F0010505
:1015600008F0400685B17EB12068006800F00100F7
:1015700050B1206C40F480302064204600F050F8D8
:101580006FF001002168086007F0200508F0806610
:101590007DB176B1606C40F0020060646FF02000B5
:1015A000216808602046FFF754FF6FF02000216893
:1015B0000860BDE8F081000070B5044600250CB954
:1015C000012070BD1549A06A884200D000BF206C80
:1015D00030B9204600F025F80020606484F83C0013
:1015E000206C00F0100088B9206C20F4885040F086
:1015F000020020642046FFF72DFA00206064206C72
:1016000020F0020040F00100206400E0012500BF4E
:10161000002084F83C0000BF2846D2E70100000FFC
:1016200070477047F8B504460D46164600200090F6
:1016300000BF94F83C00012801D10220F8BD012030
:1016400084F83C0000BF2068806800F00100A0B969
:101650002068806840F00100216888605548006873
:101660005549B0FBF1F000EB4000009002E000981B
:10167000401E009000980028F9D12068806800F48E
:101680008070B0F5807F05D12068806820F480707C
:10169000216888602068806800F0010000287ED002
:1016A000206C40F20161884340F48070206420681F
:1016B000406800F4806028B1206C20F4005040F4B1
:1016C00080502064206C00F48050B0F5805F04D11D
:1016D000606C20F00600606401E00020606400BFE0
:1016E000002084F83C0000BF344F3548A16BC8632C
:1016F0003448A16B08643448A16BC8646FF02200C1
:10170000216808602068406840F080602168486077
:101710002068806840F4807021688860226802F147
:101720004C0133462A46A06B00F056FA786800F068
:101730001F0018BB25492068884213D0244920681F
:10174000884204D1381D006800F01F0050B12149C3
:10175000206888422BD11948001D006800F01F0046
:10176000102824D22068806800F04050F8B9206822
:10177000806840F080402168886018E01349206844
:10178000884214D12068806800F0405078B9206801
:10179000806840F080402168886008E0FFE7206CA6
:1017A00040F010002064606C40F001006064002094
:1017B00044E700000000002040420F0000230140E9
:1017C0009D090008350A00081B0A00080020014096
:1017D000002101400022014070B50446A56D00F0D3
:1017E00059FB064694F83500022808D08020606531
:1017F00000BF002084F8340000BF012070BD2068C5
:10180000006820F01600216808602068406920F018
:10181000800021684861206C08B9A06C28B120685C
:10182000006820F00800216808602068006820F047
:1018300001002168086010E000F02CFB801B0528E7
:101840000BD920206065032084F8350000BF0020FC
:1018500084F8340000BF0320D0E72068006800F05F
:1018600001000028E8D194F85C103F208840A8606F
:10187000012084F8350000BF002084F8340000BF48
:1018800000BFBBE7014691F83500022803D0802055
:10189000486501207047052081F835000868006818
:1018A00020F001000A6810600020F3E7F8B5044654
:1018B000002000908C4800684FF41651B0FBF1F7FF
:1018C000A56D2E6894F85C1008208840304098B1CF
:1018D0002068006800F0040070B12068006820F003
:1018E00004002168086094F85C1008208840A86013
:1018F000606D40F00100606594F85C100120884044
:10190000304068B12068406900F0800040B194F830
:101910005C1001208840A860606D40F002006065A6
:1019200094F85C1004208840304068B1206800685A
:1019300000F0020040B194F85C1004208840A860D8
:10194000606D40F00400606594F85C1010208840E1
:10195000304078B32068006800F0080050B394F875
:101960005C1010208840A8602068006800F4802087
:1019700080B12068006800F4002028B9206CC8B14C
:101980002046216C884715E0A06C98B12046A16CD8
:1019900088470FE02068006800F4807028B920684C
:1019A000006820F0080021680860206C10B1204613
:1019B000216C884794F85C10202088403040002833
:1019C00065D02068006800F0100000285FD094F80F
:1019D0005C1020208840A86094F83500052828D1A4
:1019E0002068006820F016002168086020684069BF
:1019F00020F0800021684861206C08B9A06C28B1F3
:101A00002068006820F008002168086094F85C10E5
:101A10003F208840A860012084F8350000BF0020E6
:101A200084F8340000BF206D10B12046216D884736
:101A3000F8BD2068006800F4802080B1206800684C
:101A400000F4002028B9606C10B12046616C884712
:101A50001DE0E06BD8B12046E16B884717E02068B5
:101A6000006800F4807068B92068006820F01000F9
:101A700021680860012084F8350000BF002084F848
:101A8000340000BFE06B10B12046E16B8847606D09
:101A900038B3606D00F00100F0B1052084F8350026
:101AA0002068006820F001002168086000BF0098ED
:101AB000401C0090B84200D905E02068006800F0A2
:101AC00001000028F3D100BF012084F8350000BFD9
:101AD000002084F8340000BFE06C10B12046E16CB7
:101AE000884700BFA4E70000000000202DE9F04176
:101AF0000446002500F0CEF9074614B90120BDE8E0
:101B0000F081606A00B100BF022084F8350000BF98
:101B1000002084F8340000BF2068006820F0010035
:101B2000216808600AE000F0B5F9C01B052805D956
:101B300020206065032084F83500E0E72068006815
:101B400000F001000028EED120680568214805401A
:101B5000D4E901010843E168084321690843616948
:101B60000843A1690843E1690843216A0843054322
:101B7000606A042803D1D4E90B01084305432068B7
:101B800005602068456925F00705606A0543606ABD
:101B900004280DD1A06A0543E06A48B12046FFF74A
:101BA00087F928B140206065012084F83500A6E758
:101BB000206845612046FFF761F9064694F85C10FD
:101BC0003F208840B06000206065012084F8350027
:101BD000002094E73F8010F02DE9F04704460D46C1
:101BE00016461F464FF00008D4F8589000BF94F8EE
:101BF0003400012802D10220BDE8F087012084F8DA
:101C0000340000BF94F83500012825D1022084F863
:101C10003500002060653B46324629462046FFF7E6
:101C20009CF994F85C103F208840C9F808002068AF
:101C3000006840F0160021680860206C28B1206818
:101C4000006840F00800216808602068006840F0E3
:101C500001002168086006E000BF002084F834001D
:101C600000BF4FF002084046C6E7000070B50446CA
:101C700000F010F906462546681C10B104480078AB
:101C8000054400BF00F006F9801BA842FAD370BDDE
:101C900048000020F8B502460B460025002400202D
:101CA0000021D6E0012606FA01F51E6806EA0504C1
:101CB000AC4274D11E7906F00306012E04D01E79C1
:101CC00006F00306022E13D190684F000326BE4093
:101CD000B0434F00DE68BE4030439060506801263C
:101CE0008E40B0431E79C6F300168E4030435060DC
:101CF0001E7906F00306032E09D0D0684F00032694
:101D0000BE40B0434F009E68BE403043D0601E7955
:101D100006F00306022E13D1CF0802F1200656F872
:101D200027004E07F70E0F26BE40B0434F07FF0EA9
:101D30001E69BE403043CF0802F1200646F8270056
:101D400010684F000326BE40B0431E7906F003061C
:101D50004F00BE40304310605E6806F44036002EEF
:101D600076D000BF002600963C4E366846F480468A
:101D70003A4F3E603E46366806F48046009600BF05
:101D800000BF374E8F0856F827008E07370F0F26F3
:101D9000BE40B043334EB24202D1002624E057E0A9
:101DA000314EB24201D101261EE0304EB24201D185
:101DB000022619E02E4EB24201D1032614E02D4E28
:101DC000B24201D104260FE02B4EB24201D10526CA
:101DD0000AE02A4EB24201D1062605E0284EB24260
:101DE00001D1072600E008268F073F0FBE40304391
:101DF0001B4E8F0846F82700224E3068A0435E68CD
:101E000006F4801606B120431E4E3060361D306841
:101E1000A0435E6806F4001606B12043194E361D35
:101E20003060184E361F3068A0435E6806F40036F6
:101E300006B12043134E361F3060361F3068A04372
:101E40005E6806F4803606B120430E4E083E3060D0
:101E5000491C1029FFF426AFF8BD000044380240A9
:101E6000083801400000024000040240000802401F
:101E7000000C024000100240001402400018024012
:101E8000001C0240083C014001480068000C7047FB
:101E9000002004E001480068704700004000002076
:101EA00003480068034909780844014908607047FD
:101EB000400000204800002010B50A48006840F4A7
:101EC0000070084908600846006840F480600860B7
:101ED000032000F07FF80F2000F006F800F02AF849
:101EE000002010BD003C024070B504460E4800784A
:101EF0004FF47A71B1FBF0F00C490968B1FBF0F5D1
:101F0000284600F09FFC08B1012070BD102C07D2BC
:101F100000222146501E00F01EF80548046001E032
:101F20000120F2E70020F0E7480000200000002038
:101F300044000020704701460846002809DB00F0F5
:101F40001F0301229A4043099B0003F1E023C3F8D9
:101F5000002100BF70472DE9F05F80460D46164610
:101F6000002702F027FB074639462A46334601F090
:101F70000700C0F1070ABAF1040F02D94FF0040AB2
:101F800001E0C0F1070AD14600F1040ABAF1070FD7
:101F900002D24FF0000A01E0A0F1030AD4464FF04C
:101FA000010A0AFA09FAAAF1010A0AEA020A0AFA75
:101FB0000CFA4FF0010B0BFA0CFBABF1010B0BEA27
:101FC000030B4AEA0B042146404602F0FBFABDE847
:101FD000F09F000000BF00F00702064B19684FF6A3
:101FE000FF031940044B0B4343EA0221014B1960E4
:101FF00000BF70470CED00E00000FA0570B5044624
:102000000D460CB9012070BD5848006800F007006B
:10201000A84209D255490D700846006800F0070033
:10202000A84201D00120EEE7207800F0020002284B
:102030001DD1207800F00400042805D14C48006828
:1020400040F4E0504A490860207800F00800082871
:1020500005D14748006840F460404549086044485D
:10206000006820F0F000A16808434149086020782A
:1020700000F00100A8B36068012807D13C48083887
:102080000068C0F34040B8B90120BCE7606802288E
:1020900002D06068032807D1354808380068C0F3CB
:1020A000406048B90120AEE7314808380068C0F305
:1020B000400008B90120A6E72D48006820F0030081
:1020C000616808432A490860FFF7E4FE064609E014
:1020D000FFF7E0FE801B41F28831884202D90320DD
:1020E00091E707E02248006800F00C006168B0EB5F
:1020F000810FEDD11D48006800F00700A84209D902
:102100001A490D700846006800F00700A84201D087
:10211000012078E7207800F00400042807D1144853
:10212000006820F4E050E168084311490860207815
:1021300000F00800082808D10D48006820F460402D
:10214000216940EAC1000A49086000F03FF80849E7
:102150000968C1F30311074A515CC8400649086089
:1021600006480068FFF7C0FE00204CE7003C024034
:1021700008380240367100080000002044000020AA
:1021800001480068704700000000002000B5FFF71C
:10219000F7FF04490968C1F38221034A515CC84032
:1021A00000BD0000083802404671000800B5FFF786
:1021B000E7FF04490968C1F34231034A515CC84052
:1021C00000BD000008380240467100082DE9F047C4
:1021D000002400250026A1462548006800F00C00D8
:1021E00020B1042805D008283AD105E0DFF8849012
:1021F00039E0DFF8849036E01D48001F006800F0E9
:102200003F041B48001F006800F4800078B11A48A2
:102210001749091F0968C1F38811A0FB0170014625
:10222000224600233846FEF7AEF805460EE0114878
:102230000F49091F0968C1F38811A0FB017001460D
:10224000224600233846FEF79EF805460848001F40
:102250000068C0F30140401C4600B5FBF6F902E0FF
:10226000DFF8109000BF00BF4846BDE8F0870000CF
:10227000083802400024F40000127A00F8B5044641
:102280000CB90120F8BD207800F00100002874D0BE
:10229000F948006800F00C0004280DD0F6480068EA
:1022A00000F00C00082813D1F348001F006800F468
:1022B0008000B0F5800F0BD1EF4808380068C0F3FC
:1022C0004040002859D06068002856D10120D9E745
:1022D00000BF6068B0F5803F08D1E7480838006863
:1022E00040F48030E449083908601EE06068B0F5C9
:1022F000A02F0DD1E0480838006840F48020DE4966
:10230000083908600846006840F4803008600CE036
:10231000D9480838006820F48030D7490839086067
:102320000846006820F48020086000BF606890B113
:10233000FFF7B0FD054606E0FFF7ACFD401B642843
:1023400001D903209EE7CC4808380068C0F340401C
:102350000028F1D011E0FFF79DFD054606E0FFF7EC
:1023600099FD401B642801D903208BE7C248083837
:102370000068C0F340400028F1D1207800F002004E
:1023800002285FD1BC48006800F00C0058B1BA4880
:10239000006800F00C0008281CD1B748001F006836
:1023A00000F48000B0B9B44808380068C0F34000B9
:1023B00020B1E068012801D0012063E7AE48083869
:1023C000006820F0F800216940EAC100AA490839F4
:1023D000086037E0E06800B30120A8490860FFF713
:1023E00059FD054606E0FFF755FD401B022801D9BF
:1023F000032047E7A04808380068C0F340000028E1
:10240000F1D09D480838006820F0F800216940EAC2
:10241000C10099490839086014E000209749086014
:10242000FFF738FD054606E0FFF734FD401B0228A4
:1024300001D9032026E7904808380068C0F340001F
:102440000028F1D1207800F0080008282CD160691C
:10245000A8B101208A490860FFF71CFD054606E087
:10246000FFF718FD401B022801D903200AE7824824
:102470006C300068C0F340000028F1D014E0002068
:102480007F490860FFF706FD054606E0FFF702FDFD
:10249000401B022801D90320F4E677486C3000681D
:1024A000C0F340000028F1D1207800F00400042897
:1024B00070D1002770483830006800F0805090B923
:1024C00000BF002000906C483830006840F0805019
:1024D0006949383108600846006800F08050009073
:1024E00000BF00BF01276748006800F48070B0B9E2
:1024F0006448006840F4807062490860FFF7CAFCD5
:10250000054606E0FFF7C6FC401B022801D9032060
:10251000B8E65C48006800F480700028F2D000BF84
:10252000A068012808D154486830006840F00100D4
:102530005149683108601DE0A06805280DD14E485A
:102540006830006840F004004B4968310860084674
:10255000006840F0010008600CE0474868300068FF
:1025600020F001004449683108600846006820F006
:102570000400086000BFA068A8B1FFF78BFC054607
:1025800009E0FFF787FC401B41F28831884202D9FD
:10259000032077E626E0384868300068C0F3400042
:1025A0000028EED013E0FFF775FC054608E0FFF7C2
:1025B00071FC401B41F28831884201D9032061E659
:1025C0002D4868300068C0F340000028EFD1012F8B
:1025D00007D129483830006820F08050264938312A
:1025E000086000BFA069002845D02348006800F0BB
:1025F0000C0008285DD0A069022845D100201F49A1
:102600000866FFF747FC054606E0FFF743FC401B62
:10261000022801D9032035E6174808380068C0F3BE
:1026200040600028F1D1D4E907010843616A40EA1B
:1026300081110122A06AC2EB500041EA00412C2026
:10264000005D41EA00600C49091F086001200B4948
:102650000866FFF71FFC054606E0FFF71BFC401B62
:10266000022801D903200DE6034808380068C0F3AA
:1026700040600028F1D049E008380240000047429D
:10268000800E474200700040002021490866FFF795
:1026900001FC054606E0FFF7FDFB401B022801D9BF
:1026A0000320EFE51B480068C0F340600028F2D12A
:1026B0002CE0A069012800D1E4E51648001D066859
:1026C000A069012820D006F48001E06981421BD175
:1026D00006F03F01206A814216D147F6C0703040B3
:1026E000616AB0EB811F0FD106F440310122A06A6C
:1026F000C2EB5000B1EB004F06D106F070612C2008
:10270000005DB1EB006F01D00120BBE50020B9E511
:10271000000047420038024070B504460E46154698
:102720000CB9012070BD94F8490028B9002084F844
:102730004800204600F020F804F108012068FEF768
:10274000E5FC3146A2682068FEF71CFD2946236B94
:10275000D4E90102FEF7B8FCA168206850F8210016
:1027600040F00100A268216841F82200012084F8AD
:1027700049000020D6E7000010B586B0044600BF2F
:10278000002000902248006840F0010020490860C5
:102790000846006800F00100009000BF00BF00BFC5
:1027A000002000901A480838006840F008001849D6
:1027B000083908600846006800F00800009000BF73
:1027C00000BF00BF002000900846006840F01000E5
:1027D00008600846006800F01000009000BF00BFCD
:1027E0004CF203700190022002900120039002201D
:1027F00004900C20059001A90648FFF74BFA4FF60C
:102800008070019001A90448FFF744FA06B010BD9A
:1028100038380240000C024000100240042808D161
:102820004FF0E021096941F004014FF0E02211610D
:1028300007E04FF0E021096921F004014FF0E022A8
:102840001161704770B504462546681EB0F1807F5F
:1028500001D301200FE0681E4FF0E02148610F21F5
:102860004FF0FF3001F0AEFE00204FF0E021886114
:1028700007200861002070BD7047704710B50446FE
:102880000CB9012010BD94F83D0028B9002084F84F
:102890003C00204600F025F8022084F83D00211D70
:1028A000206801F003FA012084F8460000BF84F894
:1028B0003E0001213F200155402001554120015596
:1028C00000BF00BF012084F842004320015544208E
:1028D00001554520015500BF012084F83D0000202E
:1028E000D0E77047014691F83D00012801D0012052
:1028F0007047022081F83D000868C06840F0010080
:102900000B68D8601A4B086898421BD00868B0F171
:10291000804F17D0174B0868984213D0164B0868A1
:1029200098420FD0154B086898420BD0144B08689A
:10293000984207D0134B0868984203D0124B08689E
:1029400098420CD10868806800F00702062A0CD073
:102950000868006840F001000B68186005E008682E
:10296000006840F001000B6818600020C0E700001C
:10297000000001400004004000080040000C00403E
:102980000004014000400140001800402DE9F041E2
:1029900004460D4614B90120BDE8F08194F83D00CD
:1029A00028B9002084F83C00204600F053F80220AB
:1029B00084F83D002068806844F20701884321685C
:1029C0008860211D206801F071F92068D0F8088026
:1029D000206886692068076A286840EA080840F28B
:1029E00003308643A969A86840EA0120064340F6FF
:1029F0000C4086434FF2F0008643E969E86840EAFC
:102A00000120064328690001296A40EA0130064393
:102A100027F0220727F088076969686840EA0110F3
:102A200007432068C0F80880206886612068076234
:102A3000012084F8460084F83E0001213F20015522
:102A4000012084F8420043200155012084F83D0014
:102A50000020A1E710B586B004462068B0F1804F91
:102A600035D100BF002000901A48006840F00100F6
:102A7000184908600846006800F00100009000BF97
:102A800000BF00BF002000900846006840F0020030
:102A900008600846006800F00200009000BF00BF18
:102AA0004FF4004001900220029001200390059015
:102AB00001A90948FFF7EEF80820019002200290D2
:102AC00001200390059001A90448FFF7E3F806B040
:102AD00010BD0000303802400000024000040240F7
:102AE0002DE9F04304460D4694F83E603F20075D13
:102AF00094F84280432010F804906DB9012E02D161
:102B0000B8F1010F02D00120BDE8F083022084F863
:102B10003E0084F8420025E0042D0CD1012F02D1A3
:102B2000B9F1010F01D00120EEE702213F2001554C
:102B30004320015516E0012E07D1012F05D1B8F130
:102B4000010F02D1B9F1010F01D00120DCE7022011
:102B500084F83E0002213F200155022084F8420003
:102B60004320015515B1042D0CD105E001220021AF
:102B7000206801F007F910E001220421206801F02B
:102B800001F90AE001220021206801F0FBF801228E
:102B90000421206801F0F6F800BF00BF206800683B
:102BA00040F00100216808600020ADE7704710B5D3
:102BB000044620680069C0F34000D8B12068C068AE
:102BC000C0F34000B0B16FF002002168086101203D
:102BD00020772068806900F0030018B12046FFF7D5
:102BE000E5FF05E0204600F0E5F8204600F020FA79
:102BF0000020207720680069C0F38000D8B12068E9
:102C0000C068C0F38000B0B16FF0040021680861B3
:102C1000022020772068806900F4407018B12046B7
:102C2000FFF7C4FF05E0204600F0C4F8204600F09E
:102C3000FFF90020207720680069C0F3C000D8B1F8
:102C40002068C068C0F3C000B0B16FF00800216810
:102C50000861042020772068C06900F0030018B1E3
:102C60002046FFF7A3FF05E0204600F0A3F820462A
:102C700000F0DEF90020207720680069C0F3001022
:102C8000D8B12068C068C0F30010B0B16FF0100078
:102C900021680861082020772068C06900F440702E
:102CA00018B12046FFF782FF05E0204600F082F8C9
:102CB000204600F0BDF9002020772068006900F070
:102CC000010058B12068C06800F0010030B16FF019
:102CD000010021680861204600F032FA206800698E
:102CE000C0F3C01058B12068C068C0F3C01030B144
:102CF0006FF08000216808612046FFF7BDFD206865
:102D00000069C0F3801058B12068C068C0F380101B
:102D100030B16FF0400021680861204600F04AFAA7
:102D200020680069C0F3401058B12068C068C0F343
:102D3000401030B16FF02000216808612046FFF795
:102D40009CFD10BD2DE9F04104460E4615460027B6
:102D500000BF94F83C00012802D10220BDE8F081B8
:102D6000012084F83C0000BF35B1042D09D0082DA6
:102D70000CD00C2D14D10EE03146206801F014F86F
:102D800010E03146206801F047F80BE0314620683A
:102D900001F080F806E03146206801F0B7F801E064
:102DA000012700BF00BF00BF002084F83C0000BF27
:102DB0003846D3E77047000070B504460D4615B994
:102DC00094F83E000BE0042D02D13F20005D06E0A8
:102DD000082D02D14020005D01E04120005D012866
:102DE00001D0012070BD1DB9022084F83E000EE024
:102DF000042D03D102213F20015508E0082D03D105
:102E000002214020015502E002214120015501220A
:102E10002946206800F0B6FF23492068884203D085
:102E200022492068884201D1012000E0002028B119
:102E30002068406C40F40040216848641A492068CA
:102E400088421BD02068B0F1804F17D01849206805
:102E5000884213D01749206888420FD0164920684D
:102E600088420BD011492068884207D01349206856
:102E7000884203D01249206888420CD120688068BB
:102E800000F00706062E0CD02068006840F0010014
:102E90002168086005E02068006840F001002168B2
:102EA000086000209EE7000000000140000401408F
:102EB0000004004000080040000C004000400140B9
:102EC000001800402DE9F04104460D461646002743
:102ED00000BF94F83C00012802D10220BDE8F08137
:102EE000012084F83C0000BF36B1042E1BD0082E10
:102EF00031D00C2E5ED145E02946206800F054FF09
:102F00002068806940F00800216888612068806935
:102F100020F00400216888612068806929690843DD
:102F20002168886148E02946206800F075FF206824
:102F3000806940F40060216888612068806920F41D
:102F400080602168886120688069296940EA0120E1
:102F50002168886130E02946206800F09BFF2068E6
:102F6000C06940F008002168C8612068C06920F08D
:102F700004002168C8612068C06929690843216884
:102F8000C86119E02946206800F0C0FF2068C069C8
:102F900040F400602168C8612068C06920F4806046
:102FA0002168C8612068C069296940EA0120216858
:102FB000C86101E0012700BF00BF00BF002084F806
:102FC0003C0000BF384689E710B504460CB9012023
:102FD00010BD94F83D0028B9002084F83C0020463C
:102FE00000F025F8022084F83D00211D206800F043
:102FF0005DFE012084F8460000BF84F83E000121F8
:103000003F200155402001554120015500BF00BF20
:10301000012084F8420043200155442001554520F9
:10302000015500BF012084F83D000020D0E7704723
:103030007047000070B504460D4615B994F83E007F
:103040000BE0042D02D13F20005D06E0082D02D1E7
:103050004020005D01E04120005D012801D00120F9
:1030600070BD1DB9022084F83E000EE0042D03D18E
:1030700002213F20015508E0082D03D10221402004
:10308000015502E002214120015501222946206814
:1030900000F078FE23492068884203D02249206846
:1030A000884201D1012000E0002028B12068406C56
:1030B00040F40040216848641A49206888421BD0C7
:1030C0002068B0F1804F17D018492068884213D08B
:1030D0001749206888420FD01649206888420BD0D3
:1030E00011492068884207D013492068884203D0DC
:1030F0001249206888420CD12068806800F00706D9
:10310000062E0CD02068006840F00100216808609D
:1031100005E02068006840F0010021680860002098
:103120009EE7000000000140000401400004004050
:1031300000080040000C0040004001400018004022
:1031400010B5044616492068884211D11548007808
:10315000401CC0B213490870042809DB0020087025
:103160001148007820B100200F490870FDF76CFD70
:103170002068B0F1804F11D10C480068006800F061
:103180001000102805D10A480068401E0849086050
:1031900004E007480068401C0549086010BD0000B5
:1031A000000C00404900002070000020C4030020F3
:1031B0004C00002070477047704700002DE9F84F21
:1031C0000446206805682068C668206847694FF093
:1031D0000009CA4605F00F09B9F1000F0AD105F040
:1031E000200038B106F0200020B1204600F0C9FFD1
:1031F000BDE8F88FB9F1000F72D007F0010018B9DF
:1032000006F4907000286BD005F0010030B106F490
:10321000807018B1206C40F00100206405F00400BB
:1032200030B107F0010018B1206C40F002002064BA
:1032300005F0020030B107F0010018B1206C40F039
:103240000400206405F0080048B106F0200010B921
:1032500007F0010018B1206C40F008002064206CD9
:1032600070B305F0200028B106F0200010B1204610
:1032700000F087FF20684069C0F3801A206C00F0DE
:10328000080010B9BAF1000F23D0204600F04EFF1D
:103290002068406900F04000402816D1206840694D
:1032A00020F0400021684861A06B50B15648A16BE6
:1032B0000865A06BFEF7E6FA10B1A06B016D8847B8
:1032C0000CE02046FFF778FF08E02046FFF774FF88
:1032D00004E02046FFF770FF0020206488E7FFE746
:1032E000206B012879D105F01000002875D006F078
:1032F0001000002871D000BF0020009020680068F6
:10330000009020684068009000BF00BF20684069BE
:1033100000F04000402839D1A06B006840681FFAD7
:1033200080F8B8F1000F30D0A08D40452DDDA4F815
:103330002E80A06BC069B0F5807F1FD02068C06868
:1033400020F480702168C8602068406920F0010086
:10335000216848612068406920F040002168486188
:10336000202084F83E00002020632068C06820F000
:1033700010002168C860A06BFEF72EFAA08DE28DC8
:10338000801A81B22046FFF716FF31E7A08DE18D4C
:10339000401A1FFA80F8E08DE8B1B8F1000F1AD09A
:1033A0002068C06820F490702168C8602068406977
:1033B00020F0010021684861202084F83E000020B0
:1033C00020632068C06820F010002168C860414672
:1033D0002046FFF7F0FE0BE7FFE705F0800030B175
:1033E00006F0800018B1204601F063F800E705F010
:1033F000400030B106F0400018B1204600F0B1FEA8
:10340000F6E600BFF4E600001941000810B50446D6
:103410000CB9012010BDA06900B100E000BF94F814
:103420003D0028B9002084F83C00204600F028F830
:10343000242084F83D002068C06820F400502168F2
:10344000C860204600F0FCFE2068006920F490402F
:10345000216808612068406920F02A0021684861DD
:103460002068C06840F400502168C86000202064D3
:10347000202084F83D0084F83E000020CAE70000C8
:1034800010B586B004462E492068884255D100BF49
:1034900000BF002000902B48006840F4002029491C
:1034A00008600846006800F40020009000BF00BFDC
:1034B00000BF00BF00BF0020009022481038006805
:1034C00040F004001F49103908600846006800F009
:1034D0000400009000BF00BF00BF00BF00BF00207D
:1034E00000900846006840F0040008600846006844
:1034F00000F00400009000BF00BF00BF081501905D
:1035000002200290012003900220049008200590E0
:1035100001A90D48FEF7BEFB4FF4006001900820A2
:10352000059001A90848FEF7B5FB3420FEF703FD1E
:10353000032211463420FEF70EFD06B010BD000038
:10354000004C0040403802400008024070B504467C
:103550000D46164694F83E00202816D105B10EB946
:10356000012070BD00BF94F83C00012801D1022069
:10357000F7E7012084F83C0000BF002020633246BA
:103580002946204600F072FFEBE70220E9E7000041
:1035900010B504462049206888423BD11F48008866
:1035A00000F4004088BB1D48008800F4804070B1E2
:1035B0001B4800780A2803D000201849088024E01E
:1035C0001648008840F40040144908801DE0144863
:1035D00000780D2806D11148008840F480400F493A
:1035E000088012E00E4800780C490988C1F30D01EB
:1035F0000C4A505409480088401C08490880084675
:103600000088C72801DD00200880012204490648FF
:10361000FFF79CFF10BD0000004C00403C00002064
:103620003E00002048010020100200202DE9F84F44
:1036300004460E46174699464FF0000A94F83D009E
:1036400020285AD106B117B90120BDE8F88F00BF74
:1036500094F83C00012801D10220F6E7012084F80B
:103660003C0000BF00202064212084F83D00FEF7CC
:1036700011FC8246A784E784A068B0F5805F04D17E
:10368000206910B90025B04602E035464FF0000829
:1036900000BF002084F83C0000BF1BE0534600221E
:1036A00080212046CDF8009000F033FF08B10320C0
:1036B000CBE745B9B8F80000C0F3080021684860BE
:1036C00008F1020803E02878216848606D1CE08C4E
:1036D000401EE084E08C0028E0D1534600224021C7
:1036E0002046CDF8009000F014FF08B10320ACE7AD
:1036F000202084F83D000020A7E70220A5E77047BE
:1037000000BFFEE700B58BB000BF002001904D4820
:10371000006840F480704B4908600846006800F477
:103720008070019000BF00BF00BF0020019045489D
:103730001438006840F00400424914390860084613
:10374000006800F00400019000BF00BF00BF00202F
:1037500001900846006840F4800008600846006850
:1037600000F48000019000BF00BF142106A8FCF700
:10377000C7FF0C200690032007900020089006A9A0
:103780003148FEF787FA3148314908600020486027
:1037900000212F488160C1604FF4806101614900C0
:1037A0004161890081614911C161490201620021C1
:1037B0004162FEF79BF900BF254826498863084609
:1037C0002349886300BF2448224908604FF48030B1
:1037D000486000211F4881600121016100210176BC
:1037E00080F820104FF0306181624FF08051C1624B
:1037F0000021C1600221C161012180F83010002147
:103800004161FDF7D9FE00200290039004900590DD
:103810000C200290012003900420049002A90D487E
:10382000FDF7D2FC0D2002900220039002A9094866
:10383000FDF7CAFC022209490648FDF7F3FE0BB06A
:1038400000BD0000443802400008024010640240FD
:10385000540400200C0400200020014060000020DF
:1038600000BFFEE77047000010B52DED028BB0EEF3
:10387000408AB0EE480AFDF79FF9B0EE408A194839
:10388000C06808EE900AB0EEC80AF8EE680A20EEAA
:10389000200ABCEEC00A10EE104AB5EEC08AF1EE66
:1038A00010FA07DD0F480068046400200D4909681C
:1038B000486313E0B5EEC08AF1EE10FA07D200209B
:1038C00008490968086407480068446306E0002066
:1038D000044909680864034909684863BDEC028B20
:1038E00010BD00003403002010B52DED028BB0EEAA
:1038F000408AB0EE480AFDF75FF9B0EE408A1948F9
:10390000C06808EE900AB0EEC80AF8EE680A20EE29
:10391000200ABCEEC00A10EE104AB5EEC08AF1EEE5
:1039200010FA07DD0F480068C46300200D490968DC
:10393000086413E0B5EEC08AF1EE10FA07D2002059
:1039400008490968C86307480068046406E0002065
:1039500004490968C863034909680864BDEC028B1F
:1039600010BD00007C030020014600204A78504032
:103970008A785040CA7C5040002204E0CB1C9B5CFB
:103980005840531CDAB2CB7C9342F7DC704770B5D9
:1039900004460D4604B10DB9002070BD0026227802
:1039A0003146761C6A5462783146761C6A54A27895
:1039B0003146761C6A54E27C3146761C6A540020FB
:1039C00007E0E11C0B5C3146721CD6B26B54411C03
:1039D000C8B2E17C8142F4DC2046FFF7C5FF2075C8
:1039E000227D3046711CCEB22A54627D3046711C55
:1039F000CEB22A543046D0E72DE9F0470C46DDE937
:103A00000867002100258C4600BF60E04FF00108E8
:103A100008FA01F504EA050CAC4557D1D0F800804E
:103A20004FEA410A4FF0030909FA0AF928EA09089E
:103A3000C0F80080D0F800804FEA410902FA09F985
:103A400048EA0908C0F80080012A01D0022A27D1DB
:103A5000D0F808804FEA410A4FF0030909FA0AF941
:103A600028EA0908C0F80880D0F808804FEA410920
:103A700006FA09F948EA0908C0F80880D0F8049065
:103A80004FF0010808FA01F829EA0809C0F8049083
:103A9000D0F8048003FA01F948EA0908C0F8048064
:103AA000D0F80C804FEA410A4FF0030909FA0AF9ED
:103AB00028EA0908C0F80C80D0F80C804FEA4109C8
:103AC00007FA09F948EA0908C0F80C80491C1029CE
:103AD0009CD3BDE8F08700001B4800781B4909789B
:103AE000084440B218490870084690F900001028B0
:103AF00002DB0020087007E0134890F9000000285E
:103B000002DA0F201049087011480F4991F900108E
:103B100000EB810090ED000AF0EE040A20EE200A8E
:103B20000C4880ED000A0C48074991F9001000EBA1
:103B3000810090ED000AF0EE040A20EE200A07480A
:103B400080ED000A70470000500000205100002066
:103B50005871000858000020987100085C0000208F
:103B600010B5FEF79DF902F091FF012801D002F097
:103B700057FD10BD0348006840F47000014908601B
:103B80007047000088ED00E010B50248FFF70FF81D
:103B900010BD0000C403002000B58DB000BF0020A0
:103BA00000902E48006840F002002C49086008464A
:103BB000006800F00200009000BF00BF00BF0020BE
:103BC000009026481030006840F002002349103170
:103BD00008600846006800F00200009000BF00BFC7
:103BE000142108A8FCF78CFD0320089002200990FE
:103BF00000200A9002200B900C9008A91848FEF7AC
:103C000049F81848184908605320486000211648B0
:103C100081601821C16000210161FFF7D5F91C21E5
:103C200001A8FCF76DFD60200190052002900020A6
:103C300003900590082201A90B48FFF743F90C22D5
:103C400001A90948FFF73EF908210748FFF7F2F9F3
:103C50000C210548FFF7EEF90DB000BD30380240E9
:103C600000040240000400407C03002010B502481C
:103C7000FEF79DFF10BD00003403002010B50A4878
:103C80000068006900F0010060B107480068C06882
:103C900000F0010030B16FF00100034909680861CC
:103CA000FFF71AFF10BD0000EC02002010B50268FB
:103CB000294B98420ED0B0F1804F0BD0274B984241
:103CC00008D0274B984205D0264B984202D0264B6D
:103CD000984203D122F070024B681A431E4B98425F
:103CE00020D0B0F1804F1DD01C4B98421AD01C4BF5
:103CF000984217D01B4B984214D01B4B984211D0BE
:103D00001A4B98420ED01A4B98420BD0194B98423E
:103D100008D0194B984205D0184B984202D0184B46
:103D2000984203D122F44072CB681A4322F08003F8
:103D30004C6943EA040202608B68C3620B688362C9
:103D4000054B984202D0084B984201D10B6903639E
:103D50000123436110BD0000000001400004004049
:103D600000080040000C00400004014000400140F9
:103D7000004401400048014000180040001C004081
:103D80000020004030B501F01F05012404FA05F3BE
:103D9000046A9C430462046A01F01F0502FA05F5F7
:103DA0002C43046230BD000030B5056A25F00105E2
:103DB0000562026A4368846924F0700424F00304F5
:103DC0000D682C4322F002028D682A43104DA84250
:103DD00000D103E00F4DA84206D100BF22F0080237
:103DE000CD682A4322F00402094DA84202D0094DB1
:103DF000A84207D123F4807323F400734D692B4349
:103E00008D692B43436084614D684563026230BD18
:103E1000000001400004014030B5056A25F010059E
:103E20000562026A4368846924F4E04424F440741F
:103E30000D6844EA052422F020028D6842EA05124A
:103E4000124DA84200D103E0114DA84207D100BF96
:103E500022F08002CD6842EA051222F040020B4DAA
:103E6000A84202D00A4DA84209D123F4806323F46A
:103E700000634D6943EA85038D6943EA8503436026
:103E800084614D688563026230BD0000000001401E
:103E90000004014030B5056A25F480750562026AA8
:103EA0004368C46924F0700424F003040D682C43B3
:103EB00022F400728D6842EA0522124DA84200D118
:103EC00003E0114DA84207D100BF22F40062CD6883
:103ED00042EA052222F480620A4DA84202D00A4D2D
:103EE000A84209D123F4805323F400534D6943EAD7
:103EF00005138D6943EA05134360C4614D68C563CA
:103F0000026230BD000001400004014030B5056A86
:103F100025F480550562036A4468C26922F4E042D0
:103F200022F440720D6842EA052223F400538D68A2
:103F300043EA0533084DA84202D0084DA84204D1F7
:103F400024F480444D6944EA85144460C2614D689C
:103F50000564036230BD0000000001400004014020
:103F600000B595B000BF002001903D48006840F0CA
:103F700001003B4908600846006800F0010001901C
:103F800000BF00BF00BF002001903548103000681E
:103F900040F008003249103108600846006800F01F
:103FA0000800019000BF00BF142110A8FCF7A8FB77
:103FB00009201090022011900020129002201390EE
:103FC000149010A92748FDF765FE27482749086087
:103FD000532048602021254881601821C1600021BC
:103FE0000161FEF7F1FF1C2109A8FCF789FB6020A5
:103FF000099000200A900B900D90002209A91B48FF
:10400000FEF760FF0C2209A91848FEF75BFF1C2190
:1040100002A8FCF775FB302002901448C068401CD1
:1040200040080390042202A91048FEF78BFE0421E9
:104030000E48FEF7C1FE032201213220FDF78BFF5F
:104040003220FDF778FF0948FEF74CFC00210748B5
:10405000FEF7F0FF0C210548FEF7ECFF15B000BDA0
:104060003038024000000240000C004034030020C1
:1040700010B52DED028BF0EE408AB0EE608AB0EE06
:10408000680AFFF7F1FBB0EE480AFFF72DFCBDEC24
:10409000028B10BD10B50020034909684862024830
:1040A000FEF720FC10BD0000EC02002008B500BFA8
:1040B000002000901148006840F020000F4908607F
:1040C0000846006800F02000009000BF00BF0C48C8
:1040D0000C4908605320486040F2E7310948C1604C
:1040E000002101618160FEF7C9FB00220121372018
:1040F000FDF731FF3720FDF71EFF08BD40380240B5
:1041000000140040EC02002010B50248FFF756F8FA
:1041100010BD00001002002070B50546AC6B0020F9
:10412000E085E0842046FFF747F870BD0168C96864
:1041300021F490710268D1600168496921F00101A0
:1041400002685161016B012905D10168C96821F03C
:1041500010010268D160202180F83E100021016327
:10416000704710B504462068C06820F04000216800
:10417000C860202084F83D002046FFF7C0FA0020E8
:1041800010BD70B5044694F83E00222856D1A068B0
:10419000B0F5805F0CD1206950B90025A66A20686F
:1041A0004068C0F308003080A06A801CA06215E05F
:1041B000A56A0026A068B0F5805F03D0A06828B982
:1041C000206918B920684068287004E020684068B9
:1041D00000F07F002870A06A401CA062E08D401EA5
:1041E00080B2E08540BB2068C06820F020002168D4
:1041F000C8602068C06820F480702168C8602068AA
:10420000406920F0010021684861202084F83E00C8
:10421000206B01280AD12068C06820F010002168B6
:10422000C860A18D2046FEF7C6FF02E02046FFF7DA
:10423000AFF90020206370BD0020FCE70220FAE700
:104240002DE9F84F04462068006920F44050E168E9
:104250000843216808612169A0680843616908432F
:10426000E169084300902068C06849F20C61884306
:10427000009908432168C8602068406920F44070B4
:10428000A16908432168486176492068884203D0C3
:1042900075492068884203D1FDF788FF814602E016
:1042A000FDF774FF8146E069B0F5004F6CD1022044
:1042B0006168A0FB015003461920A9FB007001466C
:1042C0002A463846FCF75FF86421B0FBF1F04FEA6C
:1042D000001A02206168A0FB01510B461920A9FBBE
:1042E00000712A463846FCF74EF883460220616882
:1042F000A0FB015003461920A9FB00712A4638464D
:10430000FCF741F86421B0FBF1F000EBC00101EBD8
:104310000010ABEB8000322101EBC0006421B0FB48
:10432000F1F000F0F8000AEB400A02206168A0FBFF
:10433000015003461920A9FB007001462A46384661
:10434000FCF721F8834602206168A0FB0150034678
:104350001920A9FB00712A463846FCF714F864219D
:10436000B0FBF1F000EBC00101EB0010ABEB800003
:10437000322101EBC0006421B0FBF1F000F0070036
:104380005044216888606AE004206168A0FB015005
:1043900003461920A9FB007001462A463846FBF760
:1043A000F2FF824604206168A0FB015003461920F9
:1043B000A9FB007001462A463846FBF7E4FF64215A
:1043C000B0FBF1F000EBC00101EB0010AAEB8000A4
:1043D000322101EB00106421B0FBF1F000F0F00A93
:1043E00004206168A0FB017003461920A9FB00515D
:1043F0003A462846FBF7C7FF6421B0FBF1F00AEB11
:10440000001A04206168A0FB01510B461920A9FB8A
:1044100000712A463846FBF7B6FF834604206168E0
:10442000A0FB015003461920A9FB007001462A4653
:104430003846FBF7A8FF6421B0FBF1F000EBC001A8
:1044400001EB0010ABEB8000322101EB0010642186
:10445000B0FBF1F000F00F00504421688860BDE827
:10446000F88F0000001001400014014010B5034611
:1044700099629A85DA8500201864222083F83E002C
:1044800000BF002083F83C0000BF1868C06840F4FB
:1044900080701C68E0601868406940F001001C688A
:1044A00060611868C06840F020001C68E06000206F
:1044B00010BD014691F83D00212828D18868B0F54B
:1044C000805F0BD1086948B90A6A1088C0F30800F8
:1044D0000B685860086A801C086205E00B6A581C6B
:1044E000086218780B685860C88C401E80B2C88477
:1044F00058B90868C06820F080000B68D860086868
:10450000C06840F040000B68D8600020704702206F
:10451000FCE72DE9F04104460D4617469846069EF5
:1045200021E0701CF8B12EB1FDF7B4FCA0EB08003F
:10453000B04218D92068C06820F4D0702168C860E3
:104540002068406920F0010021684861202084F83B
:104550003D0084F83E0000BF002084F83C0000BF0E
:104560000320BDE8F081206800682840A84201D1FE
:10457000012000E00020B842D3D00020F1E700BFC6
:10458000FEE770B50621302001F030FA302001F04E
:104590003DF90546062D03D00621302001F026FA0C
:1045A000002403E002F0BAFD601C84B2C82CF9DBE1
:1045B00070BD000002480068C0F302207047000090
:1045C0000CED00E010B5002804DB0A07130E054AC5
:1045D000135406E00A07140E034A00F00F031B1FD2
:1045E000D45410BD00E400E018ED00E030380A2893
:1045F00001D2012070470020704700BF70470000C3
:1046000000F00101194A1160C0F34001184AC2F8D4
:104610008412C0F38001154A08321160C0F3001102
:10462000121F1160C0F34011104A3C321160C0F3F8
:104630008011104A1160C0F3C0110C4A3832116069
:10464000C0F300210B4A121D1160C0F34021074A3C
:1046500034321160C0F38021044A14321160C0F377
:10466000C021024A0C321160704700008082424231
:10467000000043429002434200F00101104A1160E1
:10468000C0F340010F4AC2F8BC12C0F380010C4ACB
:10469000383A1160C0F3C001121D1160C0F300115F
:1046A000094A1160C0F34011121D1160C0F380115E
:1046B000121D1160C109054AC2F8A8127047000016
:1046C000B8824142008041429C0242420000424284
:1046D00070B504460420FEF7A1F80A480460254698
:1046E0004FF47A7045434FF0E020006940F002003B
:1046F0004FF0E021086108464561006940F0010083
:10470000086170BD3400002000BF054A126802F045
:104710004002002AF9D0C2B2014B1B1D1A6070473B
:10472000004C00401CB50648012100238022CDE941
:10473000001004A1064802F079F901F0D5FD1CBD76
:104740002400002073746172745F7461736B0000E5
:10475000D15A000810B5FDF7AFFB0723022208214C
:104760004FF4A87001F0F8F90320FDF733FCA820FE
:10477000FFF7AEFF4FF4E13001F07AFA00F0FCFEF3
:10478000FFF794FCFFF7ECFBFFF706FAFCF7FCFBE6
:104790000120FDF76BFAFEF7B5FF0022062112207B
:1047A000FDF7D9FB1220FDF7C6FB002206213820B9
:1047B000FDF7D1FB3820FDF7BEFB3C210748FEF793
:1047C0008FF9002000F00CF8022000F009F8012019
:1047D00000F006F8FFF7A6FF002010BDC40300207C
:1047E00010B504460C4951F824104A000B4951F801
:1047F0002400002100F036F8094951F82420074927
:104800000C3951F82400002100F02CF80121034854
:104810000C30015510BD0000D8710008AC0000201C
:10482000F071000810B501460023002207E00B4894
:1048300050F8210030F8120000B15B1C521C0848EF
:1048400050F821009042F2D84FF47A705843044C4B
:1048500054F82140B0FBF4F080B210BDAC00002051
:10486000D871000830B5034601E003F8011B141E9F
:10487000A2F10102F9D130BD2DE9F04105460E4605
:104880002948076800202949096881F85900274804
:104890000068001D01F008FA50B92448006890F83B
:1048A0002C1001208840224909688143204801607A
:1048B000681CD8B9D6B11F4948681C490968886086
:1048C0001A4982680968CA6018490968091D82681E
:1048D000516016490968091D8160164A1349096823
:1048E0004A6111460968491C11601AE07C190F4899
:1048F00000684460BC4207D20C480168091D0E489C
:10490000006801F0F5F90CE008480168091D0B4842
:10491000006801F0EDF90A480068844201D20848B5
:104920000460BDE8F0810000D0000020BC00002041
:10493000D400002050860120C4000020C0000020C8
:10494000EC00002010B5044601F0F8F93148006889
:10495000401C304908603048006840B92E48046067
:104960000846006801280DD100F016FA0AE02B482D
:10497000006838B928480068C06AE16A884201D8EE
:104980002548046026480068401C25490860084600
:104990000068606494F82C1001208840214909685F
:1049A000084320490860E16A01EB81011E4A02EBDD
:1049B00081014868A0608268E260211D82685160C0
:1049C0008160E16A01EB8101174A02EB81026261B9
:1049D000E16A01EB8101144A52F82110491CE26A94
:1049E00002EB8202104B43F8221001F0F3F90B485E
:1049F000006868B108480068C06AE16A884207D266
:104A00004FF0805009490860BFF34F8FBFF36F8F9D
:104A100010BD0000CC000020BC000020D800002009
:104A2000E8000020D40000208083012004ED00E095
:104A300010B501F083F910480068D0B90F4801F0B3
:104A400047F90F4801F044F90C480E4908600C483A
:104A50000D49086000221021052001F0FBFD0649E8
:104A600008600846006820B108A10348006801F00A
:104A700071FA01F0AFF910BD040100206486012035
:104A800078860120FC00002000010020546D725146
:104A90000000000010B516E001F050F90C48C068A5
:104AA000C468201D01F000F90A480068401E094949
:104AB000086009480068401E0749086001F08AF94B
:104AC000204600F05FF8044800680028E4D110BDDB
:104AD0003C860120CC000020C800002070B50446B0
:104AE0000D46206C70B1216CE0680144E160D4E9AE
:104AF0000210884201D32168E1602846226CE168F7
:104B0000FBF7B1FD70BD2DE9F04104460F46154697
:104B10004FF00008A66B206C48B9206800282CD103
:104B2000A06802F0BDF880460020A06025E07DB9B5
:104B30003946226C6068FBF796FD216C606808447A
:104B40006060D4E90101884217D32068606014E0F6
:104B50003946226CE068FBF786FD216CE068411A5B
:104B6000E1602168E068884203D2216CA068411AA4
:104B7000E160022D01D106B1761E701CA063404693
:104B8000BDE8F08110B50446206B01F063F92046C2
:104B900001F060F910BD00000146084A1268126871
:104BA0000AB9012200E000220A600A6822B9034A19
:104BB0001268D268106800E000207047FC000020F6
:104BC00030B54FF42053174800F007042CB1C01D36
:104BD00020F00700134C041B1B1B0246124C2260E2
:104BE0000024114D6C60D018083820F007000F4CDD
:104BF000206000240D4D2D686C600C4D2D682C60DC
:104C00001146441A4C60094C24680C60084D4C68ED
:104C10002C60084D4C682C604FF00044064D2C6011
:104C200030BD00008C8601201001002018010020FA
:104C3000200100201C0100202C01002000BFFFF7F4
:104C400029FF064800680128F9D94FF0805004492F
:104C50000860BFF34F8FBFF36F8FF0E780830120B1
:104C600004ED00E02DE9F04106460D461746984652
:104C7000069C0DB9246000E02760E66325640121ED
:104C8000204601F02FFD84F850800020A064BDE88C
:104C9000F08100002DE9F05F82460F4690469B466A
:104CA0000A9E0C9C4FEA8801A522206BFBF720FD91
:104CB000A8F10100216B01EB800929F0070909F037
:104CC000070008B9012000E0002028B94FF458720D
:104CD00024A12DA0FBF7CEFB87B1002507E0795D6D
:104CE00004F134004155785D00B902E06D1C102DCF
:104CF000F5D300BF00214320015502E0002084F8D5
:104D00003400202E01D2012000E0002028B940F21A
:104D1000973214A11CA0FBF7ADFB202E00D31F2659
:104D2000E662E66400202065201D00F0DEFF04F14D
:104D3000180000F0DAFF2461C6F12000A06164626F
:104D40000020606584F8580084F859005A4651469E
:104D5000484600F0FBFB20600B9808B10B980460FC
:104D6000BDE8F09F2E2E5C2E2E5C4D6964646C6550
:104D700077617265735C4672656552544F535C741B
:104D800061736B732E6300004572726F723A202557
:104D9000732C2025640D0A0010B5002407E004EBF5
:104DA00084010F4A02EB810000F092FF641C202C6A
:104DB000F5D30C4800F08CFF0B4800F089FF0B483E
:104DC00000F086FF0A4800F083FF0A4800F080FFE9
:104DD00004480949086004480849086010BD0000FB
:104DE000808301200086012014860120288601206E
:104DF0003C86012050860120C0000020C400002015
:104E000010B50146164800E0006803688B42FBD3EA
:104E10000246436813448B4204D143684C682344E0
:104E2000436001460A464B6813440468A34211D10B
:104E30000C4C03682468A34208D04B68046864687B
:104E400023444B6003681B680B6005E0054B1B683F
:104E50000B6001E003680B60884200D0016010BD68
:104E600010010020180100202DE9F04104460D46F4
:104E700016461F464FF0000865602461B5420CD805
:104E8000F01BA169884202D34FF0010811E0211DF7
:104E90000948006800F02CFF0BE0BE4204D2BD427E
:104EA00002D34FF0010804E0211D0448006800F01F
:104EB0001FFF4046BDE8F08100010020FC000020FB
:104EC00070B5054600F03AFFA86B08B9012400E070
:104ED000002400F07FFF204670BD0000F1B500986F
:104EE000846C00262CB940F6D53220A128A0FBF70F
:104EF000C1FAA06BE16B884201D2012000E00020E2
:104F000028B940F6D63219A121A0FBF7B3FAA06B5D
:104F1000E16B884227D294F9455000226946204629
:104F2000FFF7F1FD0646681C60B9606A08B9012008
:104F300000E00020B0B904F1240001F039FF88B18D
:104F400001260FE07F2D01D0012000E0002028B9CC
:104F500040F6F63205A10EA0FBF78CFA681C40B2B1
:104F600084F8450000BF3046F8BD00002E2E5C2EB0
:104F70002E5C4D6964646C6577617265735C467222
:104F8000656552544F535C71756575652E630000FD
:104F90004572726F723A2025732C2025640D0A0029
:104FA00070B505460E460E480068C068C468201DEE
:104FB00000F07AFE94F8280000F0040028B1324690
:104FC0002946204600F0FEF805E094F8280000F09D
:104FD000FE0084F828002046216A884770BD000042
:104FE000FC00002070B586B08AE0029800280CDA38
:104FF00003AE2EB940F2063247A150A0FBF73AFAB1
:10500000D6E90020B168904700BF0298002877DBFE
:10501000049C606908B9012000E0002010B9201D3F
:1050200000F042FE01A800F0F9F8054602980A28AF
:1050300064D2DFE800F06305072E365306082F37E9
:1050400000BF00BF00BF94F8280040F0010084F8C2
:1050500028000398A269811803462A462046FFF7D4
:1050600003FFA8B194F8280000F0040038B10398B9
:10507000A26981182A46204600F0A4F805E094F8B9
:10508000280000F0FE0084F828002046216A8847A6
:1050900035E000BF94F8280000F0FE0084F82800F6
:1050A0002DE000BF94F8280040F0010084F82800AB
:1050B0000398A061A06908B1012000E0002028B990
:1050C00040F2593214A11DA0FBF7D4F9A06941198F
:1050D0002B462A462046FFF7C7FE10E094F828002A
:1050E00000F0020018B9204600F0B4FE05E094F884
:1050F000280000F0FE0084F8280000E000BF00BF98
:10510000002202A91148006801F06AFB00287FF420
:105110006CAF06B070BD00002E2E5C2E2E5C4D696B
:1051200064646C6577617265735C46726565525440
:105130004F535C74696D6572732E63004572726FB4
:10514000723A2025732C2025640D0A0004010020EA
:10515000F8B505460C4601F029F9684600F05EF8FE
:105160000646009820BB44B9B54206D801F0C6FEF9
:1051700031462846FFF714FF1CE03CB10E4800689A
:10518000006808B9012000E000200446A91B22465F
:105190000A48006800F024FF01F0B0FE50B94FF05B
:1051A000805007490860BFF34F8FBFF36F8F01E056
:1051B00001F0A4FEF8BD0000000100200401002061
:1051C00004ED00E070B504460D46164604E0A06903
:1051D00005442046216A8847A06941192B4632467A
:1051E0002046FFF741FE0028F1D170BD0948006854
:1051F000006808B9012000E0002020B14FF0FF3026
:105200000549086005E003480068C0680068024975
:1052100008607047C0000020EC00002070B5044614
:1052200001F044FC054607480068854204D200F0BE
:105230000BF80120206001E000202060014805609B
:10524000284670BD0C01002070B508E00D480068CC
:10525000C06804684FF0FF312046FFF7A1FE0948FF
:105260000068006808B9012000E000200028EDD0A7
:10527000044805680448006802490860024805605F
:1052800070BD0000FC000020000100200B480068F9
:10529000401C08B9012000E0002020B9E92208A143
:1052A00016A0FBF7E7F800BF502080F31188BFF38A
:1052B0004F8FBFF36F8F00BF00BFFEE730010020AC
:1052C0002E2E5C2E2E5C4D6964646C657761726570
:1052D000735C4672656552544F535C706F727461B3
:1052E000626C655C525644535C41524D5F434D3491
:1052F000465C706F72742E63000000004572726F1E
:10530000723A2025732C2025640D0A0008B500BFD1
:105310006846FFF741FC044620460099FFF718FF56
:10532000FFF760FEF4E770B5044600F007FD94F95E
:10533000455019E0A06C30B12046FFF7CFFD88B191
:1053400000F054FF0EE0606A08B9012000E0002080
:1053500038B904F1240001F02BFD18B100F046FF2C
:1053600000E003E0681E45B2002DE3DC00BFFF2033
:1053700084F8450000F02EFD00F0E0FC94F9445064
:1053800010E0206908B9012000E0002048B904F1CC
:10539000100001F00DFD08B100F028FF681E45B2B5
:1053A00000E001E0002DECDC00BFFF2084F84400A9
:1053B00000F010FD70BD00002DE9F04104464FF0F3
:1053C000000800F0F3FF4948006808B9FFF7F8FB50
:1053D000474800682040002875D1002C23D004F1F4
:1053E0000800A0421FD9083404F0070000281BD091
:1053F00004F00700C0F108002044A04211D904F0D5
:105400000700C0F10800044404F0070008B90120B7
:1054100000E0002040B99C2236A144A0FBF72AF806
:1054200002E0002400E00024002C4CD04348006837
:10543000844248D8424E3046056801E02E462D6829
:105440006868A04202D228680028F7D1274800687F
:10545000854238D0306800F10808286830606868F4
:10546000001B102813D92F1907F0070008B90120D5
:1054700000E0002020B9CF221EA12CA0FAF7FAFFED
:105480006868001B78606C603846FFF7B9FC2B49F0
:1054900068680968081A29490860084600682949A7
:1054A0000968884203D225480068264908601049E7
:1054B000686809680843686000202860224800681E
:1054C000401C2149086001F019FD08F0070008B9E7
:1054D000012000E0002028B94FF4887205A113A034
:1054E000FAF7C8FF4046BDE8F0810000180100202F
:1054F0002C0100202E2E5C2E2E5C4D6964646C65A0
:1055000077617265735C4672656552544F535C7087
:105510006F727461626C655C4D656D4D616E675C48
:10552000686561705F342E63000000004572726F21
:10553000723A2025732C2025640D0A001C010020DE
:10554000100100202001002024010020001F4FF046
:1055500080730360001F21F001030360001F054BEF
:10556000036014380260001F6FF0020303602038EC
:10557000704700008D52000800B58DB0FFF701F8AC
:1055800000BF00BF002000907148006840F040005C
:105590006F4908600846006800F04000009000BFB6
:1055A00000BF00BF00BF00BF002000900846006899
:1055B00040F0080008600846006800F0080000900D
:1055C00000BF00BF00BF00BF00BF00200090084622
:1055D000006840F0080008600846006800F0080015
:1055E000009000BF00BF00BF00BF002000905848DF
:1055F0000830006840F0010055490831086008464D
:10560000006800F00100009000BF00BF00BF002054
:1056100000904F48006840F008004D490860084677
:10562000006800F00800009000BF00BF00BF00202D
:1056300000900846006840F01000086008460068C6
:1056400000F01000009000BF00BF00BF00200090DD
:105650000846006840F0200008600846006800F036
:105660002000009000BF00BF00BF0020009008464F
:10567000006840F0400008600846006800F0400004
:10568000009000BF00BF081508900220099001207B
:105690000A9002200B900C200C9008A92D48FCF7D2
:1056A000F9FA2020089008A92B48FCF7F3FA1020FB
:1056B000089008A92848FCF7EDFA4FF60370089007
:1056C0000220099001200A9002200B9008A922488C
:1056D000FCF7E0FA4FF68370089008A91F48FCF722
:1056E000D9FA4FF23F00089008A91D48FCF7D2FAFA
:1056F0003F20089008A91748FCF7CCFA4FF020404B
:10570000184908601848486004208860002115483E
:10571000C16001611021416100218161C16141626B
:105720004FF4805181620021C16201634163816352
:105730000020019002900620039000200490079022
:1057400001AA01A90748FCF7E7FF0DB000BD000062
:105750003038024000180240000C024000100240A5
:105760000014024054020020040100A01CB520488F
:10577000006840F078001E490860012003210023E2
:105780000246CDE900104EF233011A48FEF734F913
:105790000120032100230246CDE900104EF22F0123
:1057A0001548FEF729F90120032100230246CDE91F
:1057B000001040F233411148FEF71EF90120032189
:1057C00000230246CDE900104FF4F0610C48FEF7CB
:1057D00013F901200B4908600B49C1F8A8020949D7
:1057E000091F086000200849C1F880021CBD0000A4
:1057F00030380240000C0240001402400018024001
:105800000010024094824142000043422DE9FC41D5
:105810000446002500260027FFF7A8FF00206B495B
:10582000086001F07BFC00BF10E0002067490860C1
:10583000674931F81500FEF7E3FE01F06FFC012027
:105840006449C1F8940201F069FC6D1C052DECDB84
:1058500001206149086000205E49C1F89402200AD5
:10586000FEF70AFF01F05AFC01205849086001F0D8
:1058700055FC00205749C1F89402E0B2FEF7FCFE47
:1058800001F04CFC01205149086001F047FC002068
:105890005049C1F894025148006840F078004F49DF
:1058A00008600120032103460022CDE900104FF4D7
:1058B000F0614B48FEF7A0F80120032103460022C7
:1058C000CDE900104CF203014648FEF795F80020A0
:1058D0003E49091F0860091D086001F01FFC0120F6
:1058E0003C49C1F8940201F019FC38485C38006862
:1058F0003849D1F83C1240EA41003649D1F800124B
:1059000040EA81003349D1F8041240EAC100364927
:10591000D1F81C1240EA01103349D1F8201240EAB4
:1059200041103149D1F8241240EA81102E49D1F8B2
:10593000281240EAC110C6B201F0F0FB0020234952
:10594000086001F0EBFB01202249C1F8940201F04C
:10595000E5FB1E485C3800681E49D1F83C1240EA5D
:1059600041001C49D1F8001240EA81001949D1F8E0
:10597000041240EAC1001C49D1F81C1240EA01108F
:105980001949D1F8201240EA41101749D1F82412E0
:1059900040EA81101449D1F8281240EAC110C7B278
:1059A00001F0BCFB00200C492831086001200749A8
:1059B0000860091F086001F0B1FB01200649283189
:1059C000086047EA0620BDE8FC810000948241425D
:1059D0003C010020008041428002434230380240B6
:1059E00000100240000C02400000424270B5044624
:1059F0000D460026FFF7BAFE01F090FB00BF10E055
:105A000000202F4908602F4931F81600FEF7F8FDF5
:105A100001F084FB01202C49C1F8940201F07EFBC7
:105A2000761C052EECDB0120284908600020264961
:105A3000C1F89402802141EA1420FEF71DFE01F016
:105A40006DFB01201E49086001F068FB00201E4923
:105A5000C1F89402E0B2FEF70FFE01F05FFB0120F7
:105A60001749086001F05AFB00201749C1F8940259
:105A7000280AFEF701FE01F051FB012010490860E1
:105A800001F04CFB00201049C1F89402E8B2FEF787
:105A9000F3FD01F043FB01200949086001F03EFBE2
:105AA00000200A4928310860012005490860091FC3
:105AB000086001F033FB012004492831086070BD03
:105AC000948241423C0100200080414280024342D6
:105AD0001CB5044600F032F912480221002380224E
