:020000040800F2
:10000000F0B201205D030008D146000877440008E3
:10001000CD460008CD1A00086B5300080000000010
:100020000000000000000000000000009D02000829
:10003000471E000800000000F9020008B949000846
:100040008103000881030008810300088103000880
:100050008103000881030008810300088103000870
:100060008103000881030008810300088103000860
:100070008103000881030008810300088103000850
:1000800081030008810300085D190008810300084E
:100090008103000881030008810300088103000830
:1000A0008103000881030008810300088103000820
:1000B000E14900088103000881030008810300086A
:1000C0008103000881030008810300088103000800
:1000D00081030008810300088103000881030008F0
:1000E00081030008810300088103000881030008E0
:1000F00081030008810300088103000881030008D0
:100100008103000881030008C54A00088103000834
:10011000614F00088103000881030008D54A0008E8
:100120002D1D0008810300088103000881030008D9
:10013000810300088103000881030008810300088F
:10014000810300088103000881030008810300087F
:10015000810300088103000881030008810300086F
:10016000810300088103000881030008810300085F
:1001700081030008810300088103000800000000DB
:10018000810300088103000800F002F800F077F80E
:100190000AA090E8000C82448344AAF10107DA45E2
:1001A00001D100F06CF8AFF2090EBAE80F0013F0BD
:1001B000010F18BFFB1A43F001031847E484000045
:1001C000048500000A444FF0000C10F8013B13F0C6
:1001D000070408BF10F8014B1D1108BF10F8015BA0
:1001E000641E05D010F8016B641E01F8016BF9D193
:1001F00013F0080F1EBF10F8014BAD1C0C1B09D1EA
:100200006D1E58BF01F801CBFAD505E014F8016B5B
:1002100001F8016B6D1EF9D59142D6D370470000ED
:100220000023002400250026103A28BF78C1FBD8FF
:10023000520728BF30C148BF0B607047662908F0DD
:10024000818103681B0A28BF41F08001642900F006
:100250005981E42900F09281732900F0CD850020B6
:1002600070471FB508F069F900F030FE0400002067
:10027000002107F0DDFEE0601FBD10B510BD00F0ED
:10028000E3FE1146FFF7EDFF05F072F900F001FF04
:1002900003B4FFF7F2FF03BC05F0BDF82C4B19685F
:1002A0000868B0E8F04F80F30988BFF36F8F4FF014
:1002B000000080F3118870470000000008480068C3
:1002C000006880F308884FF0000080F3148862B65D
:1002D00061B6BFF34F8FBFF36F8F00DF00BF00BF6A
:1002E00008ED00E0DFF80C00016841F470010160E6
:1002F000704700BF88ED00E0EFF30980BFF36F8F18
:10030000134B1A681EF0100F08BF20ED108A20E969
:10031000F04F106009B44FF0500080F31188BFF324
:100320004F8FBFF36F8F06F0CBFF4FF0000080F3CD
:10033000118809BC19680868B0E8F04F1EF0100F6A
:1003400008BFB0EC108A80F30988BFF36F8F704745
:10035000BC000020EFF30580704700000C480168E6
:1003600041F4700101600B4880470B480047FEE7ED
:10037000FEE7FEE7FEE7FEE7FEE7FEE7FEE7FEE755
:10038000FEE7000005480649044A064B7047000096
:1003900088ED00E0CD49000889010008F0AE012099
:1003A000F0B20120F0AE0120704753EA020C00F0D9
:1003B00069802DE9F04B4FF00006002B1FBFB3FA08
:1003C00083F503FA05F424FA05F65E4012BF1643DE
:1003D000B2FA82F502FA05F4C5F120051EBF22FA31
:1003E00005FC44EA0C04203556EA044C4FEA144458
:1003F00018BF641C4FF000084FF00009904271EBE9
:10040000030C39D3002919BFB1FA81F701FA07F6B5
:10041000B0FA80F700FA07F6C7F120071EBF20FAEE
:1004200007FC46EA0C062037B6FBF4FCA7EB0507F1
:10043000103F07F01F0BCBF120060CFA0BFB2CFA38
:1004400006F644BFB3460026202FA4BF5E464FF0F9
:10045000000B5BEA060C08BF4FF0010B19EB0B0910
:10046000ABFB027C48EB0608C01B06FB02CC0BFB77
:1004700003CC71EB0C01C1E70B46024641464846EE
:10048000BDE8F08B13B54FF000004FF00001AFF363
:100490000080BDE81C4070470FB4044910B503AAA2
:1004A000029800F0ADFC10BC5DF814FB3800002091
:1004B00070B50C460546012A05D02878800600D57F
:1004C000EA69002302E0012305E05B1C934202D2AB
:1004D000E05C0028F9D1A869E618C01AA861286A6A
:1004E000184428622846AFF3008004E0D5E90121D2
:1004F00014F8010B9047B442F8D32846AFF30080BC
:1005000070BD00002DE9F0410646002410687529F1
:10051000314616A510D0AFF30080002802DA404221
:1005200013A507E031688A0701D512A502E0490743
:1005300004D511A5012401E0AFF3008000210A22B7
:1005400006F1240709E0B0FBF2FCB0FBF2F302FB7A
:100550001C00303078541846491C0028F3D123463B
:100560002A463046BDE8F04100F0B3B90000000073
:100570002D0000002B000000200000002DE9F041BC
:100580008046D21D22F007020025D2E90002F5299B
:1005900015A614D0011E72F1000106DA0023D0EB7B
:1005A000030063EB020211A608E0D8F800108B07E5
:1005B00001D50FA602E0490701D50EA60125114677
:1005C000002408F1240704E000F03EF930323A55E7
:1005D000641C50EA0102F7D12B46324621464046C0
:1005E000BDE8F04100F075B9000000002D000000EA
:1005F0002B000000200000002DE9F0474FF0000A1A
:1006000089460446C0F820A02046E16888470028B3
:1006100076D0252806D0D4E901219047206A401CD5
:100620002062F1E7E168204600268847C4F81CA054
:1006300005460027C4F818A02A2D09D0284604F042
:10064000E3FE38B304EB8708303DC8F8185019E0D2
:1006500059F8041B204604EB87029161E168884742
:10066000012F054618D1E069002820DA26F020067F
:100670001DE0D8F8180000EB800005EB4000303892
:10068000C8F818002046E1688847054604F0BCFE1B
:100690000028EED1012F0AD02E2D08D12046E16886
:1006A00088477F1C0546022F46F02006C4DBA06960
:1006B000002803DA404246F00106A061F00701D0AD
:1006C00026F010066C2D0AD0682D08D04C2D39D09C
:1006D0006A2D35D0742D35D07A2D33D016E0E168EF
:1006E0002F4620468847B84205460AD16C2F27D0AE
:1006F0004FF48060E168064320468847054605E0E0
:1007000027E06C2F1AD04FF4807006430DB3A5F18B
:100710004100192802D8203546F400664A46294689
:10072000204626604E46FFF789FD80B101280BD098
:10073000F61D26F0070000F1080965E74020E4E710
:100740008020D7E70020D5E706F104095CE72846BA
:1007500061E7206ABDE8F087032A40F2308010F09C
:10076000030C00F0158011F8013BBCF1020F62444C
:1007700098BF11F801CB00F8013B38BF11F8013BDD
:10078000A2F1040298BF00F801CB38BF00F8013B8A
:1007900011F0030300F04683083AC0F0088051F8D6
:1007A000043B083A51F804CBA0E80810F5E7121D05
:1007B0005CBF51F8043B40F8043BAFF30080D20724
:1007C00024BF11F8013B11F801CB48BF11F8012BF0
:1007D00024BF00F8013B00F801CB48BF00F8012B13
:1007E000704702F0FF0343EA032242EA024200F0AC
:1007F0004DBB4FF0000200B5134694469646203993
:1008000022BFA0E80C50A0E80C50B1F12001BFF4C9
:10081000F7AF090728BFA0E80C5048BF0CC05DF82F
:1008200004EB890028BF40F8042B08BF704748BF7D
:1008300020F8022B11F0804F18BF00F8012B7047F1
:10084000704770477047704730B5B0F10A024FEA01
:10085000900E71F100034EEA817EB0EB0E0061EB69
:1008600091014FEA101E4EEA017E10EB0E0041EBA3
:1008700011114FEA102E4EEA016E10EB0E0041EB03
:1008800011214FEA104E4EEA014E10EB0E0041EBE3
:100890001141401841F100014FEAD00040EA417097
:1008A0004FEAD10110EB80054FEA810444EA9074CD
:1008B00044EB01046D1944EB0404521BA3414FF0B7
:1008C000000348BF0A3200D530BD401C41F1000191
:1008D00030BD2DE9F0470D4699469246044600F199
:1008E00024080168880604D5E06921F01001216020
:1008F00000E00120A84201DD471B00E00027A169BC
:100900007A1902EB0900081AA0612078C00602D407
:100910002046AFF30080002608E0D4E901211AF850
:1009200006009047206A401C761C20624E45F4DB8E
:100930002078C0060AD52046AFF3008006E0D4E94F
:10094000012130209047206A401C2062381EA7F108
:100950000107F4DC07E0D4E9012118F8050090470D
:10096000206A401C2062281EA5F10105F3DC204608
:10097000AFF300802078000602D50220BDE8F087A2
:100980000120FBE770472DE9FF4F0C461E464FF054
:10099000FF378BB0D2E90001DDF860800A908A460B
:1009A000C1F30A5505B93D46002108464FF0000045
:1009B000BAF1000F00F4400005DA00EB80004FF4BC
:1009C000400101EA50004FEA9059B9F1010F00DDF2
:1009D000B9460A9850EA4A000ED044F61050A5F2E3
:1009E000FF3545432F14B8F1000F1ED07542291E64
:1009F0001EDDC9F100021CE0B8F1010F4FF000004C
:100A000001D0302103E0F24305E02154401CB04204
:100A1000FBDB30460022002121540B99C1F80880ED
:100A2000C1E900200FB0BDE8F08FBD1B6D1CDEE7F3
:100A30004A4600DA694206A800F08CFA06AB93E851
:100A4000070003AB83E8070050460A9900F06AFBF1
:100A50008DE80700A0F500501F3800900398002D86
:100A60000ADD42F21F014A460844002303A903900D
:100A7000684600F0D3FD09E0A0F500504A461F3853
:100A8000002303A90390684600F0DDFD8DE8070010
:100A90000004000C03D04FF0FF30410800E0104686
:100AA000B8F1000F03D00022009215461EE0751E1B
:100AB00005D4FFF7C9FE303262556D1EF9D5B34635
:100AC0000122084302D000227F1C04E02078302855
:100AD00001D100227F1E002A099784D01DE0112D2C
:100AE00007DAFFF7B1FE303262556D1C50EA0102A1
:100AF000F5D1084302D00098C8B10EE00021681E6D
:100B000005E0235C625C63542254401E491C814210
:100B1000F7DBAB46A81B401E0990002004F80B0031
:100B20000B98099AC0F80880C0E9002B7AE71126D3
:100B30004FF0000857E72DE9F04F88460446D21DD4
:100B400022F0070191B0D1E90001CDE90A0104F0DA
:100B500026FC02460B98C00F01D02D2007E020682C
:100B6000810701D52B2002E0202101EAC000032AE1
:100B7000099001D0072A05DB03464146204600F0D4
:100B8000A9F90BE12078800601D5E06900E0062094
:100B9000B8F1650F814606D0B8F1660F18D0B8F1EC
:100BA000670F70D131E00020B9F1110F009001DB27
:100BB000112301E009F101030AAA01A90CA8FFF71A
:100BC000E2FEDDE90C70002609F10105834647E0ED
:100BD00001204B4600904FF000470AAA01A90CA83B
:100BE000FFF7D1FEDDE90DB00C995D46002610B986
:100BF00009F101000D18B9EB050003D4C0F1FF366F
:100C000009F10105A5EB09002BE0B9F1010F01DAAB
:100C10004FF001090020B9F1110F0090484601DDA5
:100C2000112300E003460AAA01A90CA8FFF7ABFEB6
:100C3000DDE90C704D4600268346207800070AD473
:100C4000AB4500DA5D4601A8012D04DD411911F81C
:100C5000011C302907D04F4502DA17F1040F04DADE
:100C6000012082460FE06D1EEEE7002F02DCED1B37
:100C70003E4403E0781CA84200DD7D1CB81B00F157
:100C8000010A4FF000472078000703D4AA4501DB92
:100C90004FF0FF3A0021B7F1004F0DF143088DF8F6
:100CA000431024D002202B23002F01DA7F422D2372
:100CB0000A21021EA0F1010000DC5FB197FBF1FCEC
:100CC00097FBF1F201FB1C7C17460CF1300C08F885
:100CD00001CDEEE7A8F1010003702188090501D5D7
:100CE000452100E06521A0F1010800F8011C0998E8
:100CF0000FA9A1EB0807FF1D00B10120411901EB6D
:100D0000EA70A1693844081A401EA0612078C00624
:100D100002D42046AFF30080099828B1D4E901211C
:100D20009047206A401C20622078C00622D52046C9
:100D3000AFF300801EE0002E04DBB34502DD01A806
:100D4000805D00E03020D4E901219047206A401CFA
:100D50002062761CAAF101005FEA000A0AD100F0C5
:100D6000B5F8C0680168405CD4E901219047206A69
:100D7000401C2062281EA5F10105DCDC07E0D4E957
:100D8000012118F8010B9047206A401C2062381E90
:100D9000A7F10107F3DC2046AFF30080032011B078
:100DA00041E6000001694A1C02610878704700B5FD
:100DB0008FB0CDE901310021059105497944CDE994
:100DC000031011466846FFF717FC0FB000BD000086
:100DD000E5FFFFFF10B5436913B1AFF3008001E0F9
:100DE000FFF766FB012010BD127800F124010A70A4
:100DF00000224A700122EDE711684FF0FF32E9E767
:100E0000074B70B50D467B44FFF7D1FF04462846DB
:100E100000F012F910B14FF0FF3070BD204670BDE8
:100E20001B47000010B5203AC0F00B80B1E8185005
:100E3000203AA0E81850B1E81850A0E81850BFF4C4
:100E4000F5AF5FEA027C24BFB1E81850A0E8185063
:100E500044BF18C918C0BDE810405FEA827C24BFB7
:100E600051F8043B40F8043B08BF7047D20728BF45
:100E700031F8023B48BF11F8012B28BF20F8023B94
:100E800048BF00F8012B70474FF000020429C0F062
:100E9000128010F0030C3FF4AEACCCF1040CBCF1AA
:100EA000020F18BF00F8012BA8BF20F8022BA1EBFE
:100EB0000C01FFF7A0BC5FEAC17C24BF00F8012B46
:100EC00000F8012B48BF00F8012B7047004870471D
:100ED000ACAE01202DE9F0411F460446032601680F
:100EE000072A01F4006004DB08B116A505E016A589
:100EF00003E008B115A500E015A521F01000206061
:100F0000A069C01EA0610FB1401EA0612046AFF3D2
:100F100000804FB1D4E9012138469047206A401C37
:100F20002062C01C206206E0206AFAE7D4E90121B1
:100F300015F8010B9047761EF8D22046AFF30080DB
:100F4000BDE8F0814E414E006E616E00494E460094
:100F5000696E66002DE9F047814616468AB035482D
:100F600078440DC88DE80D0032487844801C03ACED
:100F70000DC884E80D0041F69B300844372190FBF2
:100F8000F1F290FBF1F5A5F1800501FB12041B3C89
:100F900002D56442012000E00020DFF898A08046DE
:100FA0000027FA44AAF1BE0A0EE0E0070AD0324652
:100FB000684607EB470101230AEB810100F043FB80
:100FC0008DE8070064107F1C002CEED1194F7F4480
:100FD000AE3F19E0E80715D007EB04100DF1180A31
:100FE00090E80E008AE80E00C068F04201D198191E
:100FF00008903246012306A903A800F024FB03ABA6
:1010000083E807006D10641C002DE3D14FF001034D
:1010100032466946B8F1000F03A802D000F0FEFA8C
:1010200001E000F010FBC9E90001C9F808200AB08E
:10103000BDE8F08724770000007B00F08000704757
:10104000004870478CAE01207546FFF7F9FFAE46A9
:1010500005006946534620F00700854618B020B5C4
:10106000FFF790F9BDE820404FF000064FF0000771
:101070004FF000084FF0000B21F00701AC46ACE840
:10108000C009ACE8C009ACE8C009ACE8C0098D46AD
:10109000704710B50446AFF300802046BDE810400D
:1010A000FFF7F6B84FF0013C50F8042B51F8043B21
:1010B0009A4221D1A2EB0C03934313EACC1317D12C
:1010C00050F8042B51F8043B9A4215D1A2EB0C03C3
:1010D000934313EACC130BD150F8042B51F8043B83
:1010E0009A4209D1A2EB0C03934313EACC13DBD051
:1010F0004FF00000704700BFD01A01BAB1FA81F179
:1011000001F0180122FA01F0CB40C1F12001DBB25D
:10111000C0B2C01A2CFA01F3D11A914311EAC311DB
:10112000E6D170475FEA400C08BF91F0000F4FEA2C
:101130008C234FEAC12243EA51514FEA1C5018BF99
:1011400000F5F0404FEA300018BF41F000415FEA7F
:101150006C5C00F02980BCF1FF3F08BF40F080408C
:101160007047130C06BF12044FF0100C4FF0000C28
:10117000130E04BF12020CF1080C130F04BF12016E
:101180000CF1040C930F04BF92000CF1020CD30F6E
:1011900004BF52000CF1010C11464FF00002A0F107
:1011A0001F00A0EB0C00704711F0004F08BF704704
:1011B00031F000413FF4D5AF0B0C06BF09044FF0EE
:1011C000100C4FF0000C0B0E04BF09020CF1080CC0
:1011D0000B0F04BF09010CF1040C8B0F04BF890035
:1011E0000CF1020CCB0F04BF49000CF1010CCCF147
:1011F0002003A0EB0C0022FA03F302FA0CF241EAFE
:10120000030100F10100704720F07F4C80EA0300E9
:1012100023F07F47ACEB070303F57C5300F000405D
:1012200003F1FF032DE980494FEA154B09B44FEA5A
:10123000144325EA0B4E24EA03480FF2042606EB7A
:10124000132749083E785FEA320203FB0667C7F5B9
:10125000000707FB06F64FEA54374FEAD64606F179
:10126000020607FB066CCCF1005C4FEA1C472CEA37
:10127000074C07FB06F40CFB06F504EB15464FEA9A
:10128000961634BF00204FF000404FEAD13706FBDE
:1012900007FC4FEA1C4C0CFB0BF7D21B03FB0CF7B3
:1012A00061EB07010CFB0EF7B0EB074072EB174246
:1012B0000CFB08F734BFA2EB0742B2EB074261EB2D
:1012C00017414FEA0C444FEA910706FB07FC4FEA2F
:1012D0001C4C0CFB0BF7B0EBC74072EB573203FB17
:1012E0000CF734BFA2EBC742B2EBC74261EB5731F8
:1012F0000CFB0EF7B0EBC70072EB57720CFB08F754
:1013000034BFA2EBC702B2EBC70261EB5771039F78
:101310004FEA816141EA921104EBCC044FEAD137E4
:101320004FEA826206FB07FC42EA90124FEA8060B5
:101330004FEA1C4C0CFB0BF7D21B03FB0CF761EBC9
:1013400007010CFB0EF7B0EB074072EB17420CFBEA
:1013500008F734BFA2EB0742B2EB074261EB17413B
:101360004FEA8C554FEA910704EB9C2406FB07FCDF
:101370004FEA1C4C0CFB0BF7B0EBC74072EB57323B
:1013800003FB0CF734BFA2EBC742B2EBC74261EBE1
:1013900057310CFB0EF7B0EBC70072EB57720CFB2A
:1013A00008F734BFA2EBC702B2EBC70261EB57717B
:1013B00015EB4C254FEA816141EA92114FEA8262B6
:1013C0004FEAD13742EA901206FB07FC44F10004D1
:1013D0004FEA80604FEA1C4C0CFB0BF7D21B03FB5F
:1013E0000CF761EB07010CFB0EF7B0EB074072EB5B
:1013F00017420CFB08F734BFA2EB0742B2EB0742DF
:1014000061EB174115EB1C154FEA813141EA92411E
:101410004FEA823242EA90424FEA80304FEA0C763D
:1014200044F1000448EA03434EEA0B484FF0000E33
:10143000B2EB080C71EB030724BF624639464EEB52
:101440000E0E4FF0000B0018524149414BEB0B0BB5
:10145000B2EB080C71EB03077BF1000B24BF624673
:1014600039464EEB0E0E4FF0000B00185241494129
:101470004BEB0B0BB2EB080C71EB03077BF1000B92
:1014800024BF624639464EEB0E0E51EA020718BFE2
:1014900046F0010616EB0E7655F1000254F10001FC
:1014A00003D5BDE88901BDE80088BDE88901BDE834
:1014B0000048B619524141EB0101A3F10103704705
:1014C00080807F7E7D7C7B7A797877767675747381
:1014D000727171706F6E6E6D6C6C6B6A6A69686840
:1014E000676666656464636362616160605F5F5ED6
:1014F0005E5D5D5C5C5B5B5A5A595958585757564C
:1015000056555555545453535252525151505050B0
:101510004F4F4F4E4E4D4D4D4C4C4C4B4B4B4A4A02
:101520004A49494948484847474747464646454546
:10153000454444444443434343424242424141417F
:10154000002B9C4630D477002BD01CB54FEA3707D0
:1015500003B44FF010004FF01001BAF1000F06D0A5
:10156000BCF1000FDCBF40F0080040F008014FF074
:1015700000000FBCBDE810400BF1010BBBF1010FE7
:1015800008BF5FEA170722BF12F1010211F1010142
:101590004FF0004143F1000300F0004043EA000037
:1015A0007047F9D35708D0E746EA064613F1400FD3
:1015B0004FEA16461FDD13F1200FDFBF16430A4620
:1015C000002120335B42BED0C3F1200746EA064625
:1015D00002FA07F74FEA164646EA0706C3F1200764
:1015E00022FA03F201FA07F721FA03F14FF00003A0
:1015F00042EA0702A7E746EA020646EA06464FEA3B
:10160000164646EA0106BCBF46EA0646360C4FF0CF
:1016100000034FF000024FF0000194E72DE9804CE9
:101620009A46934670B491E8380007C831EA400CF6
:1016300048BF34EA430C03D5FFF7E6FDFFF780FF10
:10164000F0BCBDE8008C2DE9804C9A46934670B4FE
:1016500091E8380007C810F0804F08BF13F0804FA2
:1016600003D100F005F8FFF76BFFF0BCBDE8008C7C
:1016700020F07F4780EA030023F07F4C07EB0C0348
:10168000A3F57C5300F00040A3F1FE0392F0000F9D
:1016900000F0B38095F0000F00F077802DE901494C
:1016A0004FEA11404FEA144621EA004800FB06FCCD
:1016B00024EA064708FB06F607FB08F800FB07F7D5
:1016C00018EB06484CEB164C4FEA124B18EB074848
:1016D0004FEA15464CEB174022EA0B4E0BFB06FC7B
:1016E00025EA06470EFB06F607FB0EFE0BFB07F787
:1016F0001EEB064E4CEB164C4FF000061EEB074E51
:101700004CEB174B18EB0B0840F1000018EB0E0BDD
:1017100058EB000840F100008F1A4FF000013CBF69
:10172000C943661B14BFB5EB040C00213CBFC94381
:10173000F61B4FEA17444EEA8E0E27EA04454FEA9D
:101740001C4704FB07622CEA074C05FB07F70CFB60
:1017500005F604FB0CFC16EB074642EB174216EBB2
:101760000C4642EB1C421BEB060658EB02024141C1
:1017700046EA9E0601D5BDE80189B619524141EB02
:101780000101A3F10103BDE801894FEA14454FEAC5
:10179000114724EA054621EA074C05FB07F406FB3E
:1017A00007F70CFB06F105FB0CFC11EB074144EBC2
:1017B00017444FEA124711EB0C4144EB1C4422EA58
:1017C000074C05FB07F206FB07F70CFB06F605FBCB
:1017D0000CFC16EB074642EB174216EB0C4642EBAD
:1017E0001C456A1854F1000148BF7047B6195241B0
:1017F00041EB0101A3F10103704795F0000F37D0D1
:101800004FEA11424FEA144721EA024624EA074C04
:1018100002FB07F106FB07F70CFB06F402FB0CFCCE
:1018200014EB074441EB17414FEA154714EB0C4406
:1018300041EB1C4125EA074C02FB07F506FB07F7C5
:101840000CFB06F602FB0CFC16EB074645EB1745B6
:1018500016EB0C4645EB1C42121951F1000148BF32
:101860007047B619524141EB0101A3F101037047E2
:101870004FEA14454FEA114724EA054621EA074C8E
:1018800005FB07F106FB07F70CFB06F24FF000061D
:1018900005FB0CFC12EB074241EB174112EB0C422B
:1018A00051EB1C4148BF7047921841EB0101A3F175
:1018B0000103704770B50546AC6B206C00F050001A
:1018C00050BB206C40F4007020642068806800F0F9
:1018D0004050E8B9207ED8B92068C06A00F4700092
:1018E00020B12068806800F4806088B92068406872
:1018F00020F0200021684860206C20F48070206473
:10190000206C00F4805018B9206C40F00100206475
:10191000204600F03BFC0BE0206C00F0100018B1FA
:10192000204600F0B2FC03E0A06BC16C284688475B
:1019300070BD70B50546AC6B40202064606C40F013
:1019400004006064204600F0A0FC70BD70B5044641
:10195000A56B284600F098FC70BD000010B5024849
:1019600000F094FC10BD00000C04002055494A68AA
:1019700022F440324A604A6843681A434A60026867
:10198000526822F4807203685A60026853680269E0
:1019900043EA022203685A600268526822F04072E9
:1019A00003685A600268526883681A4303685A6081
:1019B0000268926822F4006203689A600268926882
:1019C000C3681A4303689A603F4B826A9A4218D0F0
:1019D0000268926822F0706203689A6002689268F6
:1019E000836A1A4303689A600268926822F0405240
:1019F00003689A6002689268C36A1A4303689A602F
:101A00000BE00268926822F0706203689A600268D4
:101A1000926822F0405203689A600268926822F04D
:101A2000020203689A6002689368027E43EA4202F7
:101A300003689A602022125CA2B10268526842F4E4
:101A4000006203685A600268526822F460420368C8
:101A50005A6002685368426A521E43EA423203687F
:101A60005A6005E00268526822F4006203685A6016
:101A70000268D26A22F470020368DA620268D36AEA
:101A8000828B521E43EA02520368DA62026892684D
:101A900022F4007203689A600268936890F830201C
:101AA00043EA422203689A600268926822F48062E4
:101AB00003689A6002689368426943EA8222036875
:101AC0009A607047002301400100000F00BFFEE74D
:101AD000B5EEC00AF1EE10FA16DDDFED1C0AB4EE29
:101AE000E00AF1EE10FA03D2DFED180AB0EE600A58
:101AF000DFED170AB4EEE00AF1EE10FA24DDDFEDB7
:101B0000140AB0EE600A1FE0B5EEC00AF1EE10FA5A
:101B100016D2DFED100AB4EEE00AF1EE10FA03DDA2
:101B2000DFED0C0AB0EE600ADFED0B0AB4EEE00A5E
:101B3000F1EE10FA08D2DFED080AB0EE600A03E019
:101B4000DFED060AB0EE600A70470000CDCC4C3DD8
:101B5000CDCC4C3ECDCC4CBDCDCC4CBE000000001D
:101B600010B52DED048B644890ED000AB1EE400AEB
:101B7000B0EE408A614890ED000AB1EE400AF0EE06
:101B8000408A5F4890ED000A78EE400A90ED000A26
:101B90009FED5C1A01EE200A80ED000A5A4890ED94
:101BA000000A78EEC00A90ED000A9FED561A01EE89
:101BB000200A80ED000A554890ED000A5048D0ED0B
:101BC000000A30EE600AB0EE409A514890ED000AEB
:101BD0004D48D0ED000A30EE600AF0EE409AB7EEC4
:101BE000080A69EE000A4B4890ED000A9FED4A1A78
:101BF00000EE810A80ED000AB7EE080A69EE800A5D
:101C0000464890ED000A9FED441A00EE810A80EDEF
:101C1000000A3E4890ED000A414880ED000A3C4829
:101C200090ED000A3F4880ED000A3D4890ED000A23
:101C3000DFED340AB4EEE00AF1EE10FA0CDD9FEDB0
:101C4000310A80ED000A334890ED000ADFED320AD8
:101C500030EE600A80ED000A314890ED000ADFEDB9
:101C6000320AB4EEE00AF1EE10FA0CD29FED2E0A21
:101C700080ED000A274890ED000ADFED270A30EEDC
:101C8000600A80ED000A274890ED000ADFED1D0A8A
:101C9000B4EEE00AF1EE10FA0CDD9FED1A0A80EDC9
:101CA000000A1E4890ED000ADFED1B0A30EE600AC4
:101CB00080ED000A1B4890ED000ADFED1B0AB4EE30
:101CC000E00AF1EE10FA0CD29FED170A80ED000A3F
:101CD000124890ED000ADFED100A30EE600A80ED48
:101CE000000A1048D0ED000A0D4890ED000A03F0FC
:101CF000EBF8BDEC048B10BD6400002068000020F0
:101D000088000020CDCC4C3E8C00002058000020E4
:101D10005C000020800000206F12833A84000020C5
:101D20009000002094000020CDCC4CBE10B502489D
:101D300000F0D8FC10BD00005404002001460878D3
:101D400010381823B0FBF3F20848805CC865032AFA
:101D500005D908686FF30900001D886503E008686D
:101D60006FF309008865886D704700006085000882
:101D7000014600208A6A8B69CBB932B1012A0DD0A5
:101D8000022A03D0032A10D10EE000BFCB6A03F071
:101D90008073B3F1807F00D1012007E0CB6AB3F1FB
:101DA000C07F00D1012001E000E000BF34E08B697A
:101DB000B3F5005F1AD132B1012A07D0022A03D04D
:101DC000032A11D10AE000BF01200EE0CB6A03F024
:101DD0008073B3F1807F00D1012006E0CB6AB3F1BC
:101DE000C07F00D1012000E000BF15E032B1012A20
:101DF00005D0022A04D0032A0CD103E000BF00BFA3
:101E0000012008E0CB6A03F08073B3F1807F00D13A
:101E1000012000E000BF00BF704730B504682468AF
:101E200024F4802405682C60046863608468402C76
:101E300004D10468A2600468E16003E00468A16062
:101E40000468E26030BD704700B58BB000BF002071
:101E500001902948006840F00100274908600846C1
:101E6000006800F00100019000BF00BF0806234990
:101E7000086000204860002120488160491EC16040
:101E800000210161032002900020039001200490B2
:101E9000002005900D20069000200790012008905A
:101EA000002009900D200A9000201449096848621A
:101EB00002A9124801F08EFC6FF001000F49096879
:101EC00008610E480068006840F004000B4909688A
:101ED00008600A480068C06840F0010007490968C6
:101EE000C860002211461C2000F059FF1C2000F0A1
:101EF00046FF0BB000BD000040380240C403002084
:101F000070B50446B3F5804F13D1D1E9000540EA1E
:101F100005108D6840EA05208D6928438D8940EAC7
:101F2000054054F82250064E3540284344F822001C
:101F300003E06FF0704044F82200002070BD000004
:101F40000000F0CF70B50246086852F8200020F07B
:101F500001000E6842F826008868082801D1402355
:101F600000E00023486818438E683043CE68304351
:101F70000E6930434E693043CE6930430E6A3043B8
:101F80004E6A30438E6A3043CE6A30430E6B40EA6D
:101F9000060488690443C86B0443074D45F4806513
:101FA00045F4E025086852F82000A84320430E6855
:101FB00042F82600002070BD7FFB080010B50346E4
:101FC000D1E9000440EA04108C6840EA04208C89BE
:101FD00040EA0444088A401E44EA0054087D801EFA
:101FE00044EA00608C692043541C53F8244004F0F8
:101FF00040442043541C43F82400002010BD704787
:1020000038B502460020009000BF92F83C0001283D
:1020100001D1022038BD012082F83C0000BF0868D1
:10202000092816D91068C0680C780A3C04EB4405EE
:102030000724AC40A0431468E0600C780A3C04EB31
:1020400044048868A0401468E46820431468E06091
:1020500013E0106800690C7804EB44050724AC40D9
:10206000A043146820610C7804EB44048868A04005
:10207000146824692043146820614868072817D22F
:102080001068406B0C79641E04EB84051F24AC407F
:10209000A04314686063088880B20C79641E04EB66
:1020A0008404A0401468646B20431468606331E0CA
:1020B00048680D2817D21068006B0C79E41F04EBF8
:1020C00084051F24AC40A04314682063088880B2B4
:1020D0000C79E41F04EB8404A0401468246B2043B3
:1020E0001468206316E01068C06A0C790D3C04EB9C
:1020F00084051F24AC40A0431468E062088880B2C5
:102100000C790D3C04EB8404A0401468E46A20437D
:102110001468E062194B1A4C1068A04206D1086896
:10212000122803D1586840F480005860144C10689D
:10213000A0421CD10868102802D00868112816D1C6
:10214000586840F400005860086810280FD10D4806
:1021500000680D4CB0FBF4F000EB800040000090F4
:1021600002E00098401E009000980028F9D100BFBE
:10217000002082F83C0000BF00BF4BE70023014075
:10218000002001400000002040420F00334A016857
:10219000914261D13249098800EE101A30494988CC
:1021A00000EE901AF8EE403A9FED2E4A63EE843A24
:1021B0009FED2D4AC3EE844AB0EE641AF8EE603A01
:1021C0009FED284A63EE843A9FED274AC3EE844A86
:1021D000F0EE641ADFED253A71EE633AB6EE004A8E
:1021E000C3EE844AB0EE642ADFED203A71EEE33AA2
:1021F000B6EE004AC3EE844AF0EE642ADFED1C3AE4
:10220000B0EE633A1B49D1ED003A32EE634AD1EDAC
:10221000003ADFED174A44EE843AC1ED003A164920
:10222000D1ED003A32EEE34AD1ED003ADFED104A4B
:1022300044EE843AC1ED003A0E49D1ED003A0F491F
:10224000C1ED003A0C49D1ED003A0D49C1ED003A1B
:1022500001210C4A117000BF7047000000200140AE
:10226000600000203333534000F07F453333D33FC9
:102270009A99993E740000207800002064000020A4
:102280006800002070000020704770472DE9F04181
:10229000044600250026206807682068D0F80480DE
:1022A00007F0020508F0200695B38EB3206C00F00D
:1022B000100018B9206C40F4007020642068806819
:1022C00000F04050E8B9207ED8B92068C06A00F418
:1022D000700020B12068806800F4806088B92068B0
:1022E000406820F0200021684860206C20F4807055
:1022F0002064206C00F4805018B9206C40F001007C
:1023000020642046FFF742FF6FF01200216808604A
:1023100007F0040508F08006E5B3DEB3206C00F09A
:10232000100018B9206C40F40050206420688068C8
:1023300000F4401038BB2068806B00F4401020B1DE
:102340002068806800F48060E8B92068406800F484
:102350008060C0B92068806800F0405098B9207E45
:1023600088B92068406820F0800021684860206CAF
:1023700020F480502064206C00F4807018B9206C28
:1023800040F0010020642046FFF739FE6FF00C009A
:102390002168086007F0010508F0400685B17EB1AC
:1023A0002068006800F0010050B1206C40F48030DB
:1023B0002064204600F050F86FF0010021680860AA
:1023C00007F0200508F080667DB176B1606C40F0C2
:1023D000020060646FF02000216808602046FFF76B
:1023E00054FF6FF0200021680860BDE8F081000014
:1023F00070B5044600250CB9012070BD1549A06ACE
:10240000884200D000BF206C30B9204600F025F88B
:102410000020606484F83C00206C00F0100088B953
:10242000206C20F4885040F0020020642046FFF722
:102430009DFA00206064206C20F0020040F0010052
:10244000206400E0012500BF002084F83C0000BFAC
:102450002846D2E70100000F70477047F8B50446E0
:102460000D4616460020009000BF94F83C0001285D
:1024700001D10220F8BD012084F83C0000BF206893
:10248000806800F00100A0B92068806840F0010079
:1024900021688860554800685549B0FBF1F000EBB1
:1024A0004000009002E00098401E00900098002834
:1024B000F9D12068806800F48070B0F5807F05D184
:1024C0002068806820F480702168886020688068B7
:1024D00000F0010000287ED0206C40F201618843AA
:1024E00040F4807020642068406800F4806028B167
:1024F000206C20F4005040F480502064206C00F4E4
:102500008050B0F5805F04D1606C20F006006064FC
:1025100001E00020606400BF002084F83C0000BFA0
:10252000344F3548A16BC8633448A16B0864344804
:10253000A16BC8646FF022002168086020684068C1
:1025400040F08060216848602068806840F48070B6
:1025500021688860226802F14C0133462A46A06B4C
:1025600000F056FA786800F01F0018BB2549206873
:10257000884213D024492068884204D1381D00685D
:1025800000F01F0050B12149206888422BD1194822
:10259000001D006800F01F00102824D22068806809
:1025A00000F04050F8B92068806840F08040216811
:1025B000886018E013492068884214D12068806838
:1025C00000F0405078B92068806840F08040216871
:1025D000886008E0FFE7206C40F010002064606C29
:1025E00040F001006064002044E70000000000208B
:1025F00040420F0000230140B51800084D190008A3
:102600003319000800200140002101400022014050
:1026100070B50446A56D00F061FB064694F83500E0
:10262000022808D08020606500BF002084F83400B4
:1026300000BF012070BD2068006820F016002168EE
:1026400008602068406920F0800021684861206CA3
:1026500008B9A06C28B12068006820F00800216843
:1026600008602068006820F001002168086010E020
:1026700000F034FB801B05280BD920206065032067
:1026800084F8350000BF002084F8340000BF032028
:10269000D0E72068006800F001000028E8D194F835
:1026A0005C103F208840A860012084F8350000BFFE
:1026B000002084F8340000BF00BFBBE7014691F85A
:1026C0003500022803D0802048650120704705208E
:1026D00081F835000868006820F001000A68106081
:1026E0000020F3E7F8B50446002000908C4800680D
:1026F0004FF41651B0FBF1F7A56D2E6894F85C10FD
:1027000008208840304098B12068006800F004003C
:1027100070B12068006820F004002168086094F817
:102720005C1008208840A860606D40F00100606582
:1027300094F85C1001208840304068B120684069FE
:1027400000F0800040B194F85C1001208840A8603F
:10275000606D40F00200606594F85C1004208840D1
:10276000304068B12068006800F0020040B194F881
:102770005C1004208840A860606D40F00400606533
:1027800094F85C1010208840304078B320680068CE
:1027900000F0080050B394F85C1010208840A86046
:1027A0002068006800F4802080B12068006800F490
:1027B000002028B9206CC8B12046216C884715E05C
:1027C000A06C98B12046A16C88470FE02068006893
:1027D00000F4807028B92068006820F008002168A3
:1027E0000860206C10B12046216C884794F85C107A
:1027F000202088403040002865D02068006800F024
:10280000100000285FD094F85C1020208840A86059
:1028100094F83500052828D12068006820F01600BB
:10282000216808602068406920F0800021684861C4
:10283000206C08B9A06C28B12068006820F008005E
:102840002168086094F85C103F208840A86001204F
:1028500084F8350000BF002084F8340000BF206DEC
:1028600010B12046216D8847F8BD2068006800F44B
:10287000802080B12068006800F4002028B9606CD6
:1028800010B12046616C88471DE0E06BD8B120464E
:10289000E16B884717E02068006800F4807068B931
:1028A0002068006820F0100021680860012084F88A
:1028B000350000BF002084F8340000BFE06B10B189
:1028C0002046E16B8847606D38B3606D00F0010011
:1028D000F0B1052084F835002068006820F0010080
:1028E0002168086000BF0098401C0090B84200D9E1
:1028F00005E02068006800F001000028F3D100BF67
:10290000012084F8350000BF002084F8340000BFA7
:10291000E06C10B12046E16C884700BFA4E70000DE
:10292000000000202DE9F0410446002500F0D6F912
:10293000074614B90120BDE8F081606A00B100BF0C
:10294000022084F8350000BF002084F8340000BF66
:102950002068006820F00100216808600AE000F0AB
:10296000BDF9C01B052805D920206065032084F827
:102970003500E0E72068006800F001000028EED193
:102980002068056821480540D4E901010843E16851
:1029900008432169084361690843A1690843E16963
:1029A0000843216A08430543606A042803D1D4E937
:1029B0000B0108430543206805602068456925F040
:1029C0000705606A0543606A04280DD1A06A0543C3
:1029D000E06A48B12046FFF7CBF928B14020606596
:1029E000012084F83500A6E7206845612046FFF7FE
:1029F000A5F9064694F85C103F208840B06000209E
:102A00006065012084F83500002094E73F8010F0D5
:102A10002DE9F04704460D4616461F464FF00008C4
:102A2000D4F8589000BF94F83400012802D1022055
:102A3000BDE8F087012084F8340000BF94F8350029
:102A4000012825D1022084F83500002060653B462E
:102A5000324629462046FFF7E0F994F85C103F2003
:102A60008840C9F808002068006840F01600216816
:102A70000860206C28B12068006840F008002168D8
:102A800008602068006840F001002168086006E0E6
:102A900000BF002084F8340000BF4FF00208404619
:102AA000C6E7000070B5044600F018F90646254652
:102AB000681C10B104480078054400BF00F00EF90E
:102AC000801BA842FAD370BD48000020F8B502462A
:102AD0000B460025002400200021D6E0012606FA3E
:102AE00001F51E6806EA0504AC4274D11E7906F0B1
:102AF0000306012E04D01E7906F00306022E13D120
:102B000090684F000326BE40B0434F00DE68BE40D1
:102B100030439060506801268E40B0431E79C6F362
:102B200000168E40304350601E7906F00306032ED7
:102B300009D0D0684F000326BE40B0434F009E68C6
:102B4000BE403043D0601E7906F00306022E13D13A
:102B5000CF0802F1200656F827004E07F70E0F2681
:102B6000BE40B0434F07FF0E1E69BE403043CF0842
:102B700002F1200646F8270010684F000326BE40E9
:102B8000B0431E7906F003064F00BE40304310608C
:102B90005E6806F44036002E76D000BF0026009610
:102BA0003C4E366846F480463A4F3E603E463668B4
:102BB00006F48046009600BF00BF374E8F0856F8D7
:102BC00027008E07370F0F26BE40B043334EB24268
:102BD00002D1002624E057E0314EB24201D1012655
:102BE0001EE0304EB24201D1022619E02E4EB24212
:102BF00001D1032614E02D4EB24201D104260FE08C
:102C00002B4EB24201D105260AE02A4EB24201D132
:102C1000062605E0284EB24201D1072600E008262C
:102C20008F073F0FBE4030431B4E8F0846F82700EA
:102C3000224E3068A0435E6806F4801606B1204339
:102C40001E4E3060361D3068A0435E6806F40016E4
:102C500006B12043194E361D3060184E361F3068BD
:102C6000A0435E6806F4003606B12043134E361FBB
:102C70003060361F3068A0435E6806F4803606B1C7
:102C800020430E4E083E3060491C1029FFF426AF49
:102C9000F8BD0000443802400838014000000240FE
:102CA0000004024000080240000C024000100240F4
:102CB0000014024000180240001C0240083C014081
:102CC000024613690B400BB1012000E00020704761
:102CD00001480068000C7047002004E001480068CB
:102CE000704700004000002003480068034909784D
:102CF0000844014908607047400000204800002057
:102D000010B50A48006840F4007008490860084699
:102D1000006840F480600860032000F07FF80F2016
:102D200000F006F800F02AF8002010BD003C024038
:102D300070B504460E4800784FF47A71B1FBF0F09C
:102D40000C490968B1FBF0F5284600F09FFC08B17A
:102D5000012070BD102C07D200222146501E00F029
:102D60001EF80548046001E00120F2E70020F0E7CA
:102D70004800002000000020440000207047014669
:102D80000846002809DB00F01F0301229A4043098E
:102D90009B0003F1E023C3F8002100BF70472DE939
:102DA000F05F80460D461646002702F011FB0746ED
:102DB00039462A46334601F00700C0F1070ABAF146
:102DC000040F02D94FF0040A01E0C0F1070AD1460E
:102DD00000F1040ABAF1070F02D24FF0000A01E035
:102DE000A0F1030AD4464FF0010A0AFA09FAAAF13F
:102DF000010A0AEA020A0AFA0CFA4FF0010B0BFA6E
:102E00000CFBABF1010B0BEA030B4AEA0B04214666
:102E1000404602F0E5FABDE8F09F000000BF00F078
:102E20000702064B19684FF6FF031940044B0B438A
:102E300043EA0221014B196000BF70470CED00E02E
:102E40000000FA0570B504460D460CB9012070BDAE
:102E50005848006800F00700A84209D255490D7093
:102E60000846006800F00700A84201D00120EEE704
:102E7000207800F0020002281DD1207800F0040024
:102E8000042805D14C48006840F4E0504A490860E5
:102E9000207800F00800082805D14748006840F471
:102EA0006040454908604448006820F0F000A1688F
:102EB000084341490860207800F00100A8B3606829
:102EC000012807D13C4808380068C0F34040B8B931
:102ED0000120BCE76068022802D06068032807D19F
:102EE000354808380068C0F3406048B90120AEE7B3
:102EF000314808380068C0F3400008B90120A6E74F
:102F00002D48006820F00300616808432A490860E2
:102F1000FFF7E4FE064609E0FFF7E0FE801B41F202
:102F20008831884202D9032091E707E022480068EF
:102F300000F00C006168B0EB810FEDD11D48006816
:102F400000F00700A84209D91A490D700846006828
:102F500000F00700A84201D0012078E7207800F0B7
:102F60000400042807D11448006820F4E050E16808
:102F7000084311490860207800F00800082808D1AB
:102F80000D48006820F46040216940EAC1000A4908
:102F9000086000F03FF808490968C1F30311074AC7
:102FA000515CC8400649086006480068FFF7C0FE4B
:102FB00000204CE7003C02400838024048850008E9
:102FC0000000002044000020014800687047000015
:102FD0000000002000B5FFF7F7FF04490968C1F3BE
:102FE0008221034A515CC84000BD000008380240FD
:102FF0005885000800B5FFF7E7FF04490968C1F3E9
:103000004231034A515CC84000BD0000083802400C
:10301000588500082DE9F047002400250026A14628
:103020002548006800F00C0020B1042805D00828CD
:103030003AD105E0DFF8849039E0DFF8849036E09B
:103040001D48001F006800F03F041B48001F006877
:1030500000F4800078B11A481749091F0968C1F3C4
:103060008811A0FB01700146224600233846FDF777
:103070009CF905460EE011480F49091F0968C1F384
:103080008811A0FB01700146224600233846FDF757
:103090008CF905460848001F0068C0F30140401C39
:1030A0004600B5FBF6F902E0DFF8109000BF00BF64
:1030B0004846BDE8F0870000083802400024F400CC
:1030C00000127A00F8B504460CB90120F8BD20784A
:1030D00000F00100002874D0F948006800F00C00EE
:1030E00004280DD0F648006800F00C00082813D121
:1030F000F348001F006800F48000B0F5800F0BD18A
:10310000EF4808380068C0F34040002859D0606894
:10311000002856D10120D9E700BF6068B0F5803F94
:1031200008D1E7480838006840F48030E44908399D
:1031300008601EE06068B0F5A02F0DD1E0480838A7
:10314000006840F48020DE490839086008460068BD
:1031500040F4803008600CE0D9480838006820F45A
:103160008030D749083908600846006820F480207C
:10317000086000BF606890B1FFF7B0FD054606E04B
:10318000FFF7ACFD401B642801D903209EE7CC4823
:1031900008380068C0F340400028F1D011E0FFF784
:1031A0009DFD054606E0FFF799FD401B642801D907
:1031B00003208BE7C24808380068C0F3404000286D
:1031C000F1D1207800F0020002285FD1BC480068ED
:1031D00000F00C0058B1BA48006800F00C00082854
:1031E0001CD1B748001F006800F48000B0B9B44893
:1031F00008380068C0F3400020B1E068012801D021
:10320000012063E7AE480838006820F0F800216923
:1032100040EAC100AA490839086037E0E06800B315
:103220000120A8490860FFF759FD054606E0FFF7B1
:1032300055FD401B022801D9032047E7A048083864
:103240000068C0F340000028F1D09D4808380068AD
:1032500020F0F800216940EAC10099490839086066
:1032600014E0002097490860FFF738FD054606E0A6
:10327000FFF734FD401B022801D9032026E79048C0
:1032800008380068C0F340000028F1D1207800F031
:10329000080008282CD16069A8B101208A4908607B
:1032A000FFF71CFD054606E0FFF718FD401B02284E
:1032B00001D903200AE782486C300068C0F340005F
:1032C0000028F1D014E000207F490860FFF706FDD8
:1032D000054606E0FFF702FD401B022801D9032046
:1032E000F4E677486C300068C0F340000028F1D164
:1032F000207800F00400042870D10027704838308E
:10330000006800F0805090B900BF002000906C4829
:103310003830006840F0805069493831086008460C
:10332000006800F08050009000BF00BF0127674890
:10333000006800F48070B0B96448006840F48070A0
:1033400062490860FFF7CAFC054606E0FFF7C6FCC5
:10335000401B022801D90320B8E65C48006800F44D
:1033600080700028F2D000BFA068012808D154481E
:103370006830006840F001005149683108601DE084
:10338000A06805280DD14E486830006840F0040060
:103390004B49683108600846006840F00100086049
:1033A0000CE047486830006820F00100444968316B
:1033B00008600846006820F00400086000BFA068AC
:1033C000A8B1FFF78BFC054609E0FFF787FC401B1F
:1033D00041F28831884202D9032077E626E0384856
:1033E00068300068C0F340000028EED013E0FFF71B
:1033F00075FC054608E0FFF771FC401B41F288317F
:10340000884201D9032061E62D4868300068C0F386
:1034100040000028EFD1012F07D12948383000683B
:1034200020F0805026493831086000BFA06900288C
:1034300045D02348006800F00C0008285DD0A06942
:10344000022845D100201F490866FFF747FC0546C2
:1034500006E0FFF743FC401B022801D9032035E6B4
:10346000174808380068C0F340600028F1D1D4E95B
:1034700007010843616A40EA81110122A06AC2EB98
:10348000500041EA00412C20005D41EA00600C49F7
:10349000091F086001200B490866FFF71FFC05465D
:1034A00006E0FFF71BFC401B022801D903200DE6B4
:1034B000034808380068C0F340600028F1D049E0B4
:1034C0000838024000004742800E4742007000402A
:1034D000002021490866FFF701FC054606E0FFF7DA
:1034E000FDFB401B022801D90320EFE51B480068C3
:1034F000C0F340600028F2D12CE0A069012800D17F
:10350000E4E51648001D0668A069012820D006F4ED
:103510008001E06981421BD106F03F01206A8142AF
:1035200016D147F6C0703040616AB0EB811F0FD1F1
:1035300006F440310122A06AC2EB5000B1EB004F0B
:1035400006D106F070612C20005DB1EB006F01D058
:103550000120BBE50020B9E50000474200380240E9
:1035600070B504460E4615460CB9012070BD94F89E
:10357000490028B9002084F84800204600F020F8CF
:1035800004F108012068FEF7DDFC3146A2682068DE
:10359000FEF714FD2946236BD4E90102FEF7B0FCC7
:1035A000A168206850F8210040F00100A26821685D
:1035B00041F82200012084F849000020D6E70000ED
:1035C00010B586B0044600BF002000902248006875
:1035D00040F00100204908600846006800F0010042
:1035E000009000BF00BF00BF002000901A480838BC
:1035F000006840F00800184908390860084600686B
:1036000000F00800009000BF00BF00BF0020009045
:103610000846006840F0100008600846006800F0A6
:103620001000009000BF00BF4CF203700190022018
:10363000029001200390022004900C20059001A923
:103640000648FFF743FA4FF68070019001A904483D
:10365000FFF73CFA06B010BD38380240000C0240BB
:1036600000100240042808D14FF0E021096941F020
:1036700004014FF0E022116107E04FF0E0210969F9
:1036800021F004014FF0E0221161704770B504464B
:103690002546681EB0F1807F01D301200FE0681E2F
:1036A0004FF0E02148610F214FF0FF3001F098FE0C
:1036B00000204FF0E021886107200861002070BDE4
:1036C0007047704710B504460CB9012010BD94F83E
:1036D0003D0028B9002084F83C00204600F025F881
:1036E000022084F83D00211D206801F00BFA012022
:1036F00084F8460000BF84F83E0001213F200155B8
:10370000402001554120015500BF00BF012084F831
:10371000420043200155442001554520015500BF7A
:10372000012084F83D000020D0E77047014691F861
:103730003D00012801D001207047022081F83D00A2
:103740000868C06840F001000B68D8601A4B086830
:1037500098421BD00868B0F1804F17D0174B08680B
:10376000984213D0164B086898420FD0154B086842
:1037700098420BD0144B0868984207D0134B086846
:10378000984203D0124B086898420CD108688068B0
:1037900000F00702062A0CD00868006840F001001B
:1037A0000B68186005E00868006840F001000B68CD
:1037B00018600020C0E70000000001400004004045
:1037C00000080040000C004000040140004001409F
:1037D000001800402DE9F04104460D4614B90120BF
:1037E000BDE8F08194F83D0028B9002084F83C0041
:1037F000204600F053F8022084F83D0020688068DD
:1038000044F20701884321688860211D206801F087
:1038100079F92068D0F80880206886692068076AEE
:10382000286840EA080840F203308643A969A8687E
:1038300040EA0120064340F60C4086434FF2F00078
:103840008643E969E86840EA0120064328690001E7
:10385000296A40EA0130064327F0220727F088074B
:103860006969686840EA011007432068C0F8088069
:103870002068866120680762012084F8460084F889
:103880003E0001213F200155012084F842004320E1
:103890000155012084F83D000020A1E710B586B055
:1038A00004462068B0F1804F35D100BF0020009061
:1038B0001A48006840F0010018490860084600688E
:1038C00000F00100009000BF00BF00BF002000908A
:1038D0000846006840F0020008600846006800F0F2
:1038E0000200009000BF00BF4FF400400190022092
:1038F000029001200390059001A90948FFF7E6F81E
:10390000082001900220029001200390059001A957
:103910000448FFF7DBF806B010BD00003038024065
:1039200000000240000402402DE9F04304460D4629
:1039300094F83E603F20075D94F84280432010F8E1
:1039400004906DB9012E02D1B8F1010F02D001200F
:10395000BDE8F083022084F83E0084F8420025E0B0
:10396000042D0CD1012F02D1B9F1010F01D001209A
:10397000EEE702213F2001554320015516E0012EBC
:1039800007D1012F05D1B8F1010F02D1B9F1010F13
:1039900001D00120DCE7022084F83E0002213F2014
:1039A0000155022084F842004320015515B1042D31
:1039B0000CD105E001220021206801F00FF910E090
:1039C00001220421206801F009F90AE00122002106
:1039D000206801F003F901220421206801F0FEF8BB
:1039E00000BF00BF2068006840F001002168086047
:1039F0000020ADE7704710B5044620680069C0F3A9
:103A00004000D8B12068C068C0F34000B0B16FF08A
:103A1000020021680861012020772068806900F099
:103A2000030018B12046FFF7E5FF05E0204600F04F
:103A3000E5F8204600F020FA002020772068006991
:103A4000C0F38000D8B12068C068C0F38000B0B176
:103A50006FF00400216808610220207720688069E7
:103A600000F4407018B12046FFF7C4FF05E020467F
:103A700000F0C4F8204600F0FFF90020207720680D
:103A80000069C0F3C000D8B12068C068C0F3C000AE
:103A9000B0B16FF008002168086104202077206829
:103AA000C06900F0030018B12046FFF7A3FF05E04E
:103AB000204600F0A3F8204600F0DEF90020207731
:103AC00020680069C0F30010D8B12068C068C0F356
:103AD0000010B0B16FF01000216808610820207755
:103AE0002068C06900F4407018B12046FFF782FFDB
:103AF00005E0204600F082F8204600F0BDF90020E5
:103B000020772068006900F0010058B12068C06883
:103B100000F0010030B16FF001002168086120461B
:103B200000F032FA20680069C0F3C01058B1206874
:103B3000C068C0F3C01030B16FF080002168086128
:103B40002046FFF7BDFD20680069C0F3801058B122
:103B50002068C068C0F3801030B16FF04000216869
:103B60000861204600F04AFA20680069C0F340105E
:103B700058B12068C068C0F3401030B16FF0200029
:103B8000216808612046FFF79CFD10BD2DE9F0413A
:103B900004460E461546002700BF94F83C00012855
:103BA00002D10220BDE8F081012084F83C0000BF72
:103BB00035B1042D09D0082D0CD00C2D14D10EE0F8
:103BC0003146206801F01CF810E03146206801F011
:103BD0004FF80BE03146206801F088F806E03146E6
:103BE000206801F0BFF801E0012700BF00BF00BF5F
:103BF000002084F83C0000BF3846D3E7704700003F
:103C000070B504460D4615B994F83E000BE0042D3E
:103C100002D13F20005D06E0082D02D14020005D6A
:103C200001E04120005D012801D0012070BD1DB9D7
:103C3000022084F83E000EE0042D03D102213F2033
:103C4000015508E0082D03D102214020015502E072
:103C500002214120015501222946206800F0BEFFC3
:103C600023492068884203D022492068884201D134
:103C7000012000E0002028B12068406C40F40040A2
:103C8000216848641A49206888421BD02068B0F136
:103C9000804F17D018492068884213D017492068F0
:103CA00088420FD01649206888420BD011492068FD
:103CB000884207D013492068884203D012492068FF
:103CC00088420CD12068806800F00706062E0CD0D0
:103CD0002068006840F001002168086005E0206865
:103CE000006840F001002168086000209EE70000A5
:103CF00000000140000401400004004000080040B2
:103D0000000C004000400140001800402DE9F04147
:103D100004460D461646002700BF94F83C000128D3
:103D200002D10220BDE8F081012084F83C0000BFF0
:103D300036B1042E1BD0082E31D00C2E5ED145E0BA
:103D40002946206800F05CFF2068806940F0080088
:103D5000216888612068806920F0040021688861FA
:103D600020688069296908432168886148E02946FC
:103D7000206800F07DFF2068806940F400602168C1
:103D800088612068806920F48060216888612068EB
:103D90008069296940EA01202168886130E029466C
:103DA000206800F0A3FF2068C06940F00800216887
:103DB000C8612068C06920F004002168C8612068DB
:103DC000C069296908432168C86119E0294620684B
:103DD00000F0C8FF2068C06940F400602168C86135
:103DE0002068C06920F480602168C8612068C069CB
:103DF000296940EA01202168C86101E0012700BF6C
:103E000000BF00BF002084F83C0000BF384689E7AF
:103E100010B504460CB9012010BD94F83D0028B936
:103E2000002084F83C00204600F025F8022084F8A9
:103E30003D00211D206800F065FE012084F8460049
:103E400000BF84F83E0001213F200155402001556C
:103E50004120015500BF00BF012084F842004320EB
:103E60000155442001554520015500BF012084F82B
:103E70003D000020D0E770477047000070B5044651
:103E80000D4615B994F83E000BE0042D02D13F20F9
:103E9000005D06E0082D02D14020005D01E04120D8
:103EA000005D012801D0012070BD1DB9022084F8F9
:103EB0003E000EE0042D03D102213F20015508E011
:103EC000082D03D102214020015502E002214120AA
:103ED000015501222946206800F080FE2349206810
:103EE000884203D022492068884201D1012000E0A5
:103EF000002028B12068406C40F4004021684864EC
:103F00001A49206888421BD02068B0F1804F17D032
:103F100018492068884213D01749206888420FD07A
:103F20001649206888420BD011492068884207D082
:103F300013492068884203D01249206888420CD176
:103F40002068806800F00706062E0CD02068006804
:103F500040F001002168086005E02068006840F03A
:103F600001002168086000209EE700000000014079
:103F7000000401400004004000080040000C004024
:103F8000004001400018004010B504461649206862
:103F9000884211D115480078401CC0B213490870FE
:103FA000042809DB002008701148007820B10020A7
:103FB0000F490870FDF7D4FD2068B0F1804F11D192
:103FC0000C480068006800F01000102805D10A486D
:103FD0000068401E0849086004E007480068401C6B
:103FE0000549086010BD0000000C00404900002099
:103FF00070000020C40300204C0000207047704770
:10400000704700002DE9F84F0446206805682068D5
:10401000C668206847694FF00009CA4605F00F09D5
:10402000B9F1000F0AD105F0200038B106F02000E8
:1040300020B1204600F0D1FFBDE8F88FB9F1000FA4
:1040400072D007F0010018B906F4907000286BD008
:1040500005F0010030B106F4807018B1206C40F01A
:104060000100206405F0040030B107F0010018B130
:10407000206C40F00200206405F0020030B107F02F
:10408000010018B1206C40F00400206405F0080025
:1040900048B106F0200010B907F0010018B1206CFB
:1040A00040F008002064206C70B305F0200028B1B7
:1040B00006F0200010B1204600F08FFF2068406914
:1040C000C0F3801A206C00F0080010B9BAF1000F9C
:1040D00023D0204600F056FF2068406900F04000E1
:1040E000402816D12068406920F0400021684861CE
:1040F000A06B50B15648A16B0865A06BFEF7DEFAC5
:1041000010B1A06B016D88470CE02046FFF778FFE7
:1041100008E02046FFF774FF04E02046FFF770FF39
:104120000020206488E7FFE7206B012879D105F0A3
:104130001000002875D006F01000002871D000BFD4
:10414000002000902068006800902068406800907F
:1041500000BF00BF2068406900F04000402839D10E
:10416000A06B006840681FFA80F8B8F1000F30D0EB
:10417000A08D40452DDDA4F82E80A06BC069B0F560
:10418000807F1FD02068C06820F480702168C860DC
:104190002068406920F0010021684861206840697A
:1041A00020F0400021684861202084F83E00002073
:1041B00020632068C06820F010002168C860A06BF0
:1041C000FEF726FAA08DE28D801A81B22046FFF715
:1041D00016FF31E7A08DE18D401A1FFA80F8E08DBF
:1041E000E8B1B8F1000F1AD02068C06820F49070D0
:1041F0002168C8602068406920F00100216848619A
:10420000202084F83E00002020632068C06820F051
:1042100010002168C86041462046FFF7F0FE0BE71A
:10422000FFE705F0800030B106F0800018B12046AD
:1042300001F06BF800E705F0400030B106F04000F7
:1042400018B1204600F0B9FEF6E600BFF4E6000023
:10425000714F000810B504460CB9012010BDA069CB
:1042600000B100E000BF94F83D0028B9002084F8B8
:104270003C00204600F028F8242084F83D00206807
:10428000C06820F400502168C860204600F004FF98
:104290002068006920F49040216808612068406926
:1042A00020F02A00216848612068C06840F400506E
:1042B0002168C86000202064202084F83D0084F834
:1042C0003E000020CAE7000010B586B004462E4923
:1042D0002068884255D100BF00BF002000902B48C5
:1042E000006840F40020294908600846006800F48E
:1042F0000020009000BF00BF00BF00BF00BF002033
:10430000009022481038006840F004001F4910391E
:1043100008600846006800F00400009000BF00BF7D
:1043200000BF00BF00BF002000900846006840F0BA
:10433000040008600846006800F00400009000BF18
:1043400000BF00BF081501900220029001200390D9
:10435000022004900820059001A90D48FEF7B6FB45
:104360004FF4006001900820059001A90848FEF76D
:10437000ADFB3420FEF703FD032211463420FEF787
:104380000EFD06B010BD0000004C00404038024059
:104390000008024070B504460D46164694F83E00EB
:1043A000202816D105B10EB9012070BD00BF94F8C8
:1043B0003C00012801D10220F7E7012084F83C00ED
:1043C00000BF0020206332462946204600F07AFFD5
:1043D000EBE70220E9E7000010B504462049206819
:1043E00088423BD11F48008800F4004088BB1D482C
:1043F000008800F4804070B11B4800780A2803D080
:1044000000201849088024E01648008840F4004045
:10441000144908801DE0144800780D2806D1114881
:10442000008840F480400F49088012E00E48007870
:104430000C490988C1F30D010C4A50540948008801
:10444000401C0849088008460088C72801DD002074
:104450000880012204490648FFF79CFF10BD0000B8
:10446000004C00403C0000203E000020480100209D
:1044700010020020704700BFFEE7000000B58BB0BF
:1044800000BF002001904D48006840F480704B4907
:1044900008600846006800F48070019000BF00BF0B
:1044A00000BF0020019045481438006840F0040027
:1044B0004249143908600846006800F00400019081
:1044C00000BF00BF00BF002001900846006840F414
:1044D000800008600846006800F48000019000BF7A
:1044E00000BF142106A8FCF784F90C2006900320D5
:1044F00007900020089006A93148FEF7E7FA3148F6
:10450000314908600020486000212F488160C16067
:104510004FF4806101614900416189008161491165
:10452000C1614902016200214162FEF7FBF900BF4F
:1045300025482649886308462349886300BF2448E4
:10454000224908604FF48030486000211F48816094
:10455000012101610021017680F820104FF03061C7
:1045600081624FF08051C1620021C1600221C161AE
:10457000012180F8301000214161FDF739FF002052
:1045800002900390049005900C200290012003906B
:104590000420049002A90D48FDF732FD0D20029081
:1045A0000220039002A90948FDF72AFD02220949C9
:1045B0000648FDF753FF0BB000BD00004438024031
:1045C0000008024010640240540400200C04002043
:1045D000002001406000002000B52DED0A8B83B063
:1045E0002948006803F038FF41EC1B0B274800689E
:1045F00003F032FF41EC1C0B8DED00BB53EC1C2B88
:1046000023A0FBF749FF2648C068401C08EE100AAB
:1046100023480068C06B08EE900A21480068006CCF
:1046200009EE100AB8EE680AF8EE480A80EE201A81
:10463000F0EE419AB8EE490AF8EE480A80EE201AE8
:10464000B0EE41AA9FED170A2AEE000A10EE101AEA
:10465000084603F001FF41EC1B0B9FED120A29EE07
:10466000800A10EE101A084603F0F6FE41EC1C0B0F
:104670008DED00BB53EC1C2B0BA0FBF70DFF03B023
:10468000BDEC0A8B00BD0000680000206400002023
:1046900063757272656E74323A25662C25660A005F
:1046A0007C0300200000C8425B4220CFE05D204236
:1046B0002B203D20252E32662525202020422D202E
:1046C0003D20252E326625250D0A000000BFFEE79D
:1046D0007047000010B52DED028BB0EE408AB0EEB1
:1046E000480AFDF7F5F9B0EE408A1948C06808EEAF
:1046F000900AB0EEC80AF8EE680A20EE200ABCEE76
:10470000C00A10EE104AB5EEC08AF1EE10FA07DDCD
:104710000F480068046400200D490968486313E0ED
:10472000B5EEC08AF1EE10FA07D2002008490968F8
:10473000086407480068446306E0002004490968EB
:104740000864034909684863BDEC028B10BD000092
:104750003403002010B52DED028BB0EE408AB0EE90
:10476000480AFDF7B5F9B0EE408A1948C06808EE6E
:10477000900AB0EEC80AF8EE680A20EE200ABCEEF5
:10478000C00A10EE104AB5EEC08AF1EE10FA07DD4D
:104790000F480068C46300200D490968086413E0ED
:1047A000B5EEC08AF1EE10FA07D200200849096878
:1047B000C86307480068046406E0002004490968EB
:1047C000C863034909680864BDEC028B10BD000092
:1047D0007C0300202DE9F0470C46DDE90867002145
:1047E00000258C4600BF60E04FF0010808FA01F593
:1047F00004EA050CAC4557D1D0F800804FEA410AD5
:104800004FF0030909FA0AF928EA0908C0F80080FC
:10481000D0F800804FEA410902FA09F948EA09088C
:10482000C0F80080012A01D0022A27D1D0F80880E0
:104830004FEA410A4FF0030909FA0AF928EA090880
:10484000C0F80880D0F808804FEA410906FA09F953
:1048500048EA0908C0F80880D0F804904FF0010831
:1048600008FA01F829EA0809C0F80490D0F8048091
:1048700003FA01F948EA0908C0F80480D0F80C806E
:104880004FEA410A4FF0030909FA0AF928EA090830
:10489000C0F80C80D0F80C804FEA410907FA09F9FA
:1048A00048EA0908C0F80C80491C10299CD3BDE8CF
:1048B000F08700002DE9FC4101211048FEF700FAC5
:1048C000054608210D48FEF7FBF9064601210C4874
:1048D000FEF7F6F9074602210948FEF7F1F904460A
:1048E000084890F900003B4632462946CDE9004091
:1048F00005A0FBF7D1FDBDE8FC81000000000240EF
:104900000004024050000020612B3D2564202061FE
:104910002D3D25642020622B3D25642020622D3D05
:10492000256420696E6465783D25640D0A000000E9
:104930001B4800781B490978084440B218490870A0
:10494000084690F90000102802DB0020087007E0FC
:10495000134890F90000002802DA0F20104908706F
:1049600011480F4991F9001000EB810090ED000A09
:10497000F0EE040A20EE200A0C4880ED000A0C48F4
:10498000074991F9001000EB810090ED000AF0EE6C
:10499000040A20EE200A074880ED000A7047000054
:1049A00050000020510000206885000858000020B9
:1049B000A88500085C00002010B5FEF795F902F00C
:1049C000E7FF012801D002F0ADFD10BD03480068EB
:1049D00040F47000014908607047000088ED00E075
:1049E00010B50248FFF707F810BD0000C40300200F
:1049F00000B58DB000BF002000902E48006840F048
:104A000002002C4908600846006800F0020000908F
:104A100000BF00BF00BF0020009026481030006893
:104A200040F002002349103108600846006800F099
:104A30000200009000BF00BF142108A8FBF7D9FEB8
:104A4000032008900220099000200A9002200B9079
:104A50000C9008A91848FEF739F81848184908605A
:104A6000532048600021164881601821C160002150
:104A70000161FFF7CDF91C2101A8FBF7BAFE602008
:104A8000019005200290002003900590082201A9C2
:104A90000B48FFF73BF90C2201A90948FFF736F94B
:104AA00008210748FFF7EAF90C210548FFF7E6F966
:104AB0000DB000BD30380240000402400004004048
:104AC0007C03002010B50248FEF795FF10BD0000E2
:104AD0003403002010B50A480068006900F00100A6
:104AE00060B107480068C06800F0010030B16FF0A5
:104AF0000100034909680861FFF71AFF10BD0000B3
:104B0000EC02002010B50268294B98420ED0B0F19B
:104B1000804F0BD0274B984208D0274B984205D0A6
:104B2000264B984202D0264B984203D122F07002C5
:104B30004B681A431E4B984220D0B0F1804F1DD0D5
:104B40001C4B98421AD01C4B984217D01B4B9842D2
:104B500014D01B4B984211D01A4B98420ED01A4BCE
:104B600098420BD0194B984208D0194B984205D067
:104B7000184B984202D0184B984203D122F440724D
:104B8000CB681A4322F080034C6943EA04020260B6
:104B90008B68C3620B688362054B984202D0084B56
:104BA000984201D10B6903630123436110BD0000EA
:104BB000000001400004004000080040000C0040DC
:104BC0000004014000400140004401400048014011
:104BD00000180040001C00400020004030B501F0EB
:104BE0001F05012404FA05F3046A9C430462046A65
:104BF00001F01F0502FA05F52C43046230BD0000E8
:104C000030B5056A25F001050562026A43688469CA
:104C100024F0700424F003040D682C4322F00202F7
:104C20008D682A43104DA84200D103E00F4DA842E1
:104C300006D100BF22F00802CD682A4322F0040208
:104C4000094DA84202D0094DA84207D123F4807330
:104C500023F400734D692B438D692B4343608461BA
:104C60004D684563026230BD000001400004014010
:104C700030B5056A25F010050562026A436884694B
:104C800024F4E04424F440740D6844EA052422F03E
:104C900020028D6842EA0512124DA84200D103E0BD
:104CA000114DA84207D100BF22F08002CD6842EA30
:104CB000051222F040020B4DA84202D00A4DA84234
:104CC00009D123F4806323F400634D6943EA85032B
:104CD0008D6943EA8503436084614D6885630262A0
:104CE00030BD0000000001400004014030B5056AFD
:104CF00025F480750562026A4368C46924F0700473
:104D000024F003040D682C4322F400728D6842EAFB
:104D10000522124DA84200D103E0114DA84207D14F
:104D200000BF22F40062CD6842EA052222F48062CC
:104D30000A4DA84202D00A4DA84209D123F480535B
:104D400023F400534D6943EA05138D6943EA0513C3
:104D50004360C4614D68C563026230BD000001401C
:104D60000004014030B5056A25F480550562036AE8
:104D70004468C26922F4E04222F440720D6842EABB
:104D8000052223F400538D6843EA0533084DA842F9
:104D900002D0084DA84204D124F480444D6944EA6D
:104DA00085144460C2614D680564036230BD000033
:104DB000000001400004014000B595B000BF002094
:104DC00001903D48006840F001003B4908600846FA
:104DD000006800F00100019000BF00BF00BF00208C
:104DE000019035481030006840F008003249103119
:104DF00008600846006800F00800019000BF00BF8E
:104E0000142110A8FBF7F5FC092010900220119046
:104E10000020129002201390149010A92748FDF74B
:104E200055FE27482749086053204860202125481F
:104E300081601821C16000210161FEF7E9FF1C219A
:104E400009A8FBF7D6FC6020099000200A900B907F
:104E50000D90002209A91B48FEF758FF0C2209A952
:104E60001848FEF753FF1C2102A8FBF7C2FC3020B4
:104E700002901448C068401C40080390042202A914
:104E80001048FEF783FE04210E48FEF7B9FE032208
:104E900001213220FDF783FF3220FDF770FF094822
:104EA000FEF744FC00210748FEF7E8FF0C21054807
:104EB000FEF7E4FF15B000BD3038024000000240AC
:104EC000000C00403403002010B52DED028BF0EEF5
:104ED000408AB0EE608AB0EE680AFFF7FBFBB0EEE6
:104EE000480AFFF737FCBDEC028B10BD10B500205F
:104EF0000349096848620248FEF718FC10BD00002B
:104F0000EC02002008B500BF0020009011480068A6
:104F100040F020000F4908600846006800F02000BB
:104F2000009000BF00BF0C480C4908605320486047
:104F300040F2E7310948C160002101618160FEF75C
:104F4000C1FB002201213720FDF729FF3720FDF7A3
:104F500016FF08BD4038024000140040EC0200205B
:104F600010B50248FFF74EF810BD000010020020F7
:104F700070B50546AC6B0020E085E0842046FFF765
:104F80003FF870BD0168C96821F490710268D16072
:104F90000168496921F0010102685161016B012931
:104FA00005D10168C96821F010010268D160202193
:104FB00080F83E1000210163704710B50446206858
:104FC000C06820F040002168C860202084F83D00BF
:104FD0002046FFF74FFA002010BD70B5044694F844
:104FE0003E00222856D1A068B0F5805F0CD1206920
:104FF00050B90025A66A20684068C0F308003080D8
:10500000A06A801CA06215E0A56A0026A068B0F521
:10501000805F03D0A06828B9206918B9206840686B
:10502000287004E02068406800F07F002870A06AC3
:10503000401CA062E08D401E80B2E08540BB20682D
:10504000C06820F020002168C8602068C06820F493
:1050500080702168C8602068406920F001002168E4
:105060004861202084F83E00206B01280AD1206886
:10507000C06820F010002168C860A18D2046FEF7AE
:10508000BEFF02E02046FFF7A7F90020206370BDB5
:105090000020FCE70220FAE72DE9F84F04462068DB
:1050A000006920F44050E1680843216808612169E3
:1050B000A068084361690843E169084300902068DB
:1050C000C06849F20C618843009908432168C860B0
:1050D0002068406920F44070A16908432168486154
:1050E00076492068884203D075492068884203D1F8
:1050F000FDF780FF814602E0FDF76CFF8146E06925
:10510000B0F5004F6CD102206168A0FB015003464E
:105110001920A9FB007001462A463846FBF745F9DD
:105120006421B0FBF1F04FEA001A02206168A0FB95
:1051300001510B461920A9FB00712A463846FBF79E
:1051400034F9834602206168A0FB01500346192010
:10515000A9FB00712A463846FBF727F96421B0FB0A
:10516000F1F000EBC00101EB0010ABEB800032214D
:1051700001EBC0006421B0FBF1F000F0F8000AEB95
:10518000400A02206168A0FB015003461920A9FBD8
:10519000007001462A463846FBF707F9834602208D
:1051A0006168A0FB015003461920A9FB00712A4643
:1051B0003846FBF7FAF86421B0FBF1F000EBC001D0
:1051C00001EB0010ABEB8000322101EBC000642149
:1051D000B0FBF1F000F007005044216888606AE0FD
:1051E00004206168A0FB015003461920A9FB007050
:1051F00001462A463846FBF7D8F882460420616803
:10520000A0FB015003461920A9FB007001462A4665
:105210003846FBF7CAF86421B0FBF1F000EBC0019F
:1052200001EB0010AAEB8000322101EB0010642199
:10523000B0FBF1F000F0F00A04206168A0FB0170FF
:1052400003461920A9FB00513A462846FBF7ADF862
:105250006421B0FBF1F00AEB001A04206168A0FBA6
:1052600001510B461920A9FB00712A463846FBF76D
:105270009CF8834604206168A0FB01500346192076
:10528000A9FB007001462A463846FBF78EF86421D8
:10529000B0FBF1F000EBC00101EB0010ABEB8000C4
:1052A000322101EB00106421B0FBF1F000F00F009F
:1052B000504421688860BDE8F88F0000001001406C
:1052C0000014014010B5034699629A85DA850020E2
:1052D0001864222083F83E0000BF002083F83C00C1
:1052E00000BF1868C06840F480701C68E0601868EF
:1052F000406940F001001C6860611868C06840F0B7
:1053000020001C68E060002010BD014691F83D00BF
:10531000212828D18868B0F5805F0BD1086948B989
:105320000A6A1088C0F308000B685860086A801C7D
:10533000086205E00B6A581C086218780B68586010
:10534000C88C401E80B2C88458B90868C06820F074
:1053500080000B68D8600868C06840F040000B68A7
:10536000D860002070470220FCE700BFFEE770B560
:105370000621302001F048FA302001F055F90546A9
:10538000062D03D00621302001F03EFA002403E070
:1053900002F046FE601C84B2C82CF9DB70BD03B479
:1053A00001984100009850EAC12018BF04204A0D1E
:1053B00018BF40F0010040F2FF72B2EB515F08BF2E
:1053C00040F00200012808BF052002B0704700002D
:1053D00002480068C0F30220704700000CED00E0B6
:1053E00010B5002804DB0A07130E054A135406E023
:1053F0000A07140E034A00F00F031B1FD45410BDFC
:1054000000E400E018ED00E030380A2801D2012065
:1054100070470020704700BF7047000000F0010196
:10542000194A1160C0F34001184AC2F88412C0F34F
:105430008001154A08321160C0F30011121F11607B
:10544000C0F34011104A3C321160C0F38011104A81
:105450001160C0F3C0110C4A38321160C0F3002152
:105460000B4A121D1160C0F34021074A343211600B
:10547000C0F38021044A14321160C0F3C021024AF3
:105480000C321160704700008082424200004342AB
:105490009002434200F00101104A1160C0F3400144
:1054A0000F4AC2F8BC12C0F380010C4A383A1160AE
:1054B000C0F3C001121D1160C0F30011094A116050
:1054C000C0F34011121D1160C0F38011121D116054
:1054D000C109054AC2F8A81270470000B8824142CB
:1054E000008041429C0242420000424270B50446A4
:1054F0000420FEF7B7F80A48046025464FF47A7096
:1055000045434FF0E020006940F002004FF0E021F9
:10551000086108464561006940F00100086170BDFE
:105520003400002000BF054A126802F04002002A41
:10553000F9D0C2B2014B1B1D1A607047004C0040ED
:105540001CB50648012100238022CDE9001004A1EA
:10555000064802F0EDF901F049FE1CBD24000020D0
:1055600073746172745F7461736B0000ED6800089E
:1055700010B5FDF7C5FB0723022208214FF4A870E0
:1055800001F0F8F90320FDF749FCA820FFF7AEFF72
:105590004FF4E13001F0EEFA00F0FCFEFFF7B2FC50
:1055A000FFF70AFCFFF724FAFCF74EFC0120FDF799
:1055B00079FAFEF763FF002206211220FDF7EFFBC8
:1055C0001220FDF7DCFB002206213820FDF7E7FB67
:1055D0003820FDF7D4FB3C210748FEF7A5F9002051
:1055E00000F00CF8022000F009F8012000F006F8A5
:1055F000FFF7A6FF002010BDC403002010B504462D
:105600000C4951F824104A000B4951F8240000219C
:1056100000F036F8094951F8242007490C3951F8AF
:105620002400002100F02CF8012103480C30015522
:1056300010BD0000E8850008AC00002000860008CE
:1056400010B501460023002207E00B4850F8210066
:1056500030F8120000B15B1C521C084850F82100C1
:105660009042F2D84FF47A705843044C54F82140D9
:10567000B0FBF4F080B210BDAC000020E88500085B
:1056800030B5034601E003F8011B141EA2F101022C
:10569000F9D130BD2DE9F04105460E46294807688D
:1056A00000202949096881F8590027480068001D31
:1056B00001F07CFA50B92448006890F82C100120C1
:1056C000884022490968814320480160681CD8B994
:1056D000D6B11F4948681C49096888601A49826820
:1056E0000968CA6018490968091D8268516016492D
:1056F0000968091D8160164A134909684A61114603
:105700000968491C11601AE07C190F480068446060
:10571000BC4207D20C480168091D0E48006801F020
:1057200069FA0CE008480168091D0B48006801F09F
:1057300061FA0A480068844201D208480460BDE862
:10574000F0810000D0000020BC000020D400002028
:1057500050860120C4000020C0000020EC00002082
:1057600010B5044601F06CFA31480068401C30491D
:1057700008603048006840B92E4804600846006858
:1057800001280DD100F016FA0AE02B48006838B95C
:1057900028480068C06AE16A884201D82548046048
:1057A00026480068401C2549086008460068606477
:1057B00094F82C10012088402149096808432049A9
:1057C0000860E16A01EB81011E4A02EB8101486831
:1057D000A0608268E260211D826851608160E16A98
:1057E00001EB8101174A02EB81026261E16A01EB80
:1057F0008101144A52F82110491CE26A02EB82022C
:10580000104B43F8221001F067FA0B48006868B1AA
:1058100008480068C06AE16A884207D24FF08050A9
:1058200009490860BFF34F8FBFF36F8F10BD0000B1
:10583000CC000020BC000020D8000020E8000020A0
:10584000D40000208083012004ED00E010B501F0B9
:10585000F7F910480068D0B90F4801F0BBF90F48BC
:1058600001F0B8F90C480E4908600C480D49086071
:1058700000221021052001F06FFE0649086008464D
:10588000006820B108A10348006801F0E5FA01F0C2
:1058900023FA10BD040100206486012078860120CF
:1058A000FC00002000010020546D72510000000037
:1058B00010B516E001F0C4F90C48C068C468201D9A
:1058C00001F074F90A480068401E09490860094857
:1058D0000068401E0749086001F0FEF9204600F00C
:1058E0005FF8044800680028E4D110BD3C86012020
:1058F000CC000020C800002070B504460D46206C86
:1059000070B1216CE0680144E160D4E90210884282
:1059100001D32168E1602846226CE168FAF71CFF98
:1059200070BD2DE9F04104460F4615464FF00008C2
:10593000A66B206C48B9206800282CD1A06802F022
:1059400031F980460020A06025E07DB93946226CFF
:105950006068FAF701FF216C606808446060D4E970
:105960000101884217D32068606014E03946226C38
:10597000E068FAF7F1FE216CE068411AE160216805
:10598000E068884203D2216CA068411AE160022DD0
:1059900001D106B1761E701CA0634046BDE8F081BF
:1059A00010B50446206B01F0D7F9204601F0D4F978
:1059B00010BD00000146084A126812680AB90122A7
:1059C00000E000220A600A6822B9034A1268D2681D
:1059D000106800E000207047FC00002030B54FF454
:1059E0002053174800F007042CB1C01D20F0070019
:1059F000134C041B1B1B0246124C22600024114D49
:105A00006C60D018083820F007000F4C206000248C
:105A10000D4D2D686C600C4D2D682C601146441A9C
:105A20004C60094C24680C60084D4C682C60084D93
:105A30004C682C604FF00044064D2C6030BD0000D7
:105A40008C86012010010020180100202001002078
:105A50001C0100202C01002000BFFFF729FF064891
:105A600000680128F9D94FF0805004490860BFF35D
:105A70004F8FBFF36F8FF0E78083012004ED00E0CC
:105A80002DE9F04106460D4617469846069C0DB98D
:105A9000246000E02760E66325640121204601F0D0
:105AA000A3FD84F850800020A064BDE8F0810000D0
:105AB0002DE9F05F82460F4690469B460A9E0C9C5D
:105AC0004FEA8801A522206BFAF78BFEA8F10100AE
:105AD000216B01EB800929F0070909F0070008B9DB
